:100000000C943C010C945D090C9432090C94070982
:100010000C94DC080C94B1080C9486080C945B08D2
:100020000C9430080C946D010C946D010C946D01CE
:100030000C946D010C9488090C946D010C946D0165
:100040000C946D010C946D010C946D010C946D0178
:100050000C946D010C946D010C946D010C94E607E9
:100060000C946D010C94510A0C94270A0C946D01A8
:100070000C946D010C946D010C946D010C946D0148
:100080000C946D010C946D010C946D010C946D0138
:100090000C946D010C946D010C946D010C946D0128
:1000A0000C946D010C946D010C946D010C946D0118
:1000B0000C946D010C946D010C946D010C946D0108
:1000C0000C946D010C946D010C946D010C946D01F8
:1000D0000C946D010C946D010C946D010C946D01E8
:1000E0000C946D010C943D060C948D010C949701B9
:1000F0000C94B2010C949F010C94D2010C94AC01AD
:100100000C942E060C9493010C94A8010C94E40614
:100110000C94B6010C94870A0C94CD010C94BA018E
:100120000C94A2010C9401060C9497060C949B016C
:100130000C94C8010C9451060C9435070C94D7020A
:100140000C94C4010C94CE010C945F060C94C00175
:100150000C94F8050200002100240027002A002D3D
:10016000003000330001010000040107010A010012
:10017000002200250028002B002E00310034000250
:10018000010000050108010B0100002000230026EA
:100190000029002C002F003200000100000301069E
:1001A00001090105050505070508080808020202FE
:1001B000020A0A0808040404040101010101010102
:1001C000010303030303030303040707070C0C0CD9
:1001D0000C0C0C0C0C0202020206060606060606B1
:1001E000060B0B0B0B0B0B0B0B010210202008084E
:1001F0001020401020408002010201080402010189
:100200000204081020408080402010080402018071
:1002100004020180402010080402010804020101C8
:1002200002040810204080010204081020408000D1
:10023000000A0B02090C0D0E080703040100000060
:1002400000000000000000000000000000000000AE
:10025000000000000000000000000012111000006B
:10026000000000000000000000000000000000008E
:10027000000000000000870A11241FBECFEFD1E26A
:10028000DEBFCDBF00E00CBF23E0ACEAB2E001C0AE
:100290001D92A33FB207E1F712E0A0E0B2E0E4E86C
:1002A000F0E200E00BBF02C007900D92AC3AB1073C
:1002B000D9F711E0CCE3D1E000E006C021970109B5
:1002C000802FFE010E943110CB33D10780E0080758
:1002D000A9F70E94000C0C9440100C94000081506F
:1002E000823108F05AC0E82FF0E08827E558FE4F29
:1002F0008F4F0C9431109B019F018D019301970149
:10030000CD01A201A801AC01B201B601BA01C00140
:10031000C401CD01C801CE01D201809180008F7748
:10032000809380000895809180008F7DF9CF809127
:100330008000877FF5CF84B58F7784BD089584B51D
:100340008F7DFBCF8091B0008F778093B0000895B0
:100350008091B0008F7DF9CF809190008F7780934E
:1003600090000895809190008F7DF9CF809190004A
:10037000877FF5CF8091A0008F778093A0000895AC
:100380008091A0008F7DF9CF8091A000877FF5CF6D
:10039000809120018F778093200108958091200122
:1003A0008F7DF9CF80912001877FF5CFCF93DF93A9
:1003B000282F30E0F901E15DFD4F8491F901E7510B
:1003C000FE4FD491F901ED55FE4FC491CC23A1F01D
:1003D00081110E946F01EC2FF0E0EE0FFF1FE75735
:1003E000FE4FA591B491EC91ED2381E090E009F4EA
:1003F00080E0DF91CF91089580E090E0FACF809186
:10040000BC030E94D6019C018091BB03823028F47A
:1004100081E0232B31F080E004C081E02130310500
:10042000D1F708951F93CF93DF93282F30E0F90180
:10043000E15DFD4F8491F901E751FE4FD491F9013F
:10044000ED55FE4FC491CC23A9F0162F81110E94C7
:100450006F01EC2FF0E0EE0FFF1FE159FE4FA59169
:10046000B4918FB7F894EC91111108C0D095DE23A8
:10047000DC938FBFDF91CF911F910895DE2BF8CFD2
:10048000FF920F931F93CF93DF93082F162FF42E15
:10049000C22FD8E06C2FF11015C06170802F0E9420
:1004A0001202C69561E0812F0E94120260E0812F46
:1004B0000E941202D15071F7DF91CF911F910F91DD
:1004C000FF900895661F6627661F802F0E94120204
:1004D000CC0FE8CFCF93DF9390E0FC01E751FE4FC4
:1004E00024918D559E4FFC0184918823C9F090E0A2
:1004F000880F991FFC01EB5AFE4FA591B491FC01A6
:10050000E159FE4FC591D49161110DC09FB7F89488
:100510008C91209582238C938881282328839FBFE8
:10052000DF91CF910895623051F49FB7F8943C91D8
:10053000822F809583238C93E8812E2BEFCF8FB76A
:10054000F894EC912E2B2C938FBFEACF3FB7F89401
:100550008091DB029091DC02A091DD02B091DE027D
:1005600026B5A89B05C02F3F19F00196A11DB11D0E
:100570003FBFBA2FA92F982F8827BC01CD01620F4A
:10058000711D811D911D42E0660F771F881F991F05
:100590004A95D1F708952FB7F8946091D7027091DA
:1005A000D8028091D9029091DA022FBF0895089560
:1005B0004F925F926F927F928F929F92AF92BF9273
:1005C000CF92DF92EF92FF920F931F93CF93DF931F
:1005D00000D01F921F92CDB7DEB78B0129833A83DB
:1005E0004B835C83909100028917C9F09F3F09F407
:1005F0008FC00F900F900F900F900F90DF91CF91C1
:100600001F910F91FF90EF90DF90CF90BF90AF9030
:100610009F908F907F906F905F904F900895E4E54A
:10062000F1E024912D8327FDE4CF61E00E946A026E
:100630002D81222321F08D81823009F007C24801EB
:10064000B12CA12C60E072E18AE790E0A50198014D
:100650000E94121029013A017A01690191E0C91A38
:10066000D108E108F1082FEFC216D104E104F1042A
:1006700009F00CF4B4C160E472E48FE090E0A501ED
:1006800098010E94121069017A0181E0C81AD1080C
:10069000E108F1089D81923009F026C182E02FEF38
:1006A000C216D104E104F10409F00CF46AC160E956
:1006B00070ED83E090E0A50198010E94121069019D
:1006C0007A0181E0C81AD108E108F10883E09FEFC0
:1006D000C916D104E104F10409F00CF452C168E434
:1006E00078EE81E090E0A50198010E941210690166
:1006F0007A0181E0C81AD108E108F1089FEFC91614
:10070000D104E104F10411F00CF042C184E039C1DC
:1007100080930002E4E5F1E094919D839F3F09F40A
:1007200068CF923009F474C058F4992399F191304C
:1007300009F44CC097FD5DCF61E00E946A027BCF57
:100740002D81243009F4AEC008F488C0253091F71B
:1007500010922001109221019091210198609093B4
:10076000210190912101916090932101282F30E087
:10077000F901ED55FE4FE491F0E0EE0FFF1FE15956
:10078000FE4F45915491F901E751FE4FE491E093FA
:10079000AC024BCF14BC15BC94B5926094BD95B51A
:1007A000916095BD282F30E0F901ED55FE4FE491A1
:1007B000F0E0EE0FFF1FE159FE4F45915491F90112
:1007C000E751FE4FE491E093B0022FCF10928000EA
:1007D0001092810090918100986090938100909197
:1007E0008100916090938100282F30E0F901ED5550
:1007F000FE4FE491F0E0EE0FFF1FE159FE4F4591EF
:100800005491F901E751FE4FE491E093AF020DCF0F
:100810001092B0001092B1009091B000926090934D
:10082000B0009091B10091609093B100282F30E01A
:10083000F901ED55FE4FE491F0E0EE0FFF1FE15995
:10084000FE4F459154915093C6024093C502F90161
:10085000E751FE4FE491E093C702E7CE109290007B
:1008600010929100909191009860909391009091D6
:100870009100916090939100282F30E0F901ED559F
:10088000FE4FE491F0E0EE0FFF1FE159FE4F45915E
:100890005491F901E751FE4FE491E093AE0293E0E9
:1008A0009D83C3CE1092A0001092A1009091A10050
:1008B00098609093A1009091A10091609093A10005
:1008C000282F30E0F901ED55FE4FE491F0E0EE0FF6
:1008D000FF1FE159FE4F45915491F901E751FE4F39
:1008E000E491E093AD02A1CE2FEFC216D104E10452
:1008F000F10409F00CF4A8C068E478EE81E090E01F
:10090000A50198010E94121069017A0181E0C81ABC
:10091000D108E108F1089D81992309F45FC12FEF07
:10092000C216D104E104F10409F00CF4EFCE62E147
:100930007AE780E090E0A50194010E94121069011D
:100940007A0181E0C81AD108E108F1089D81992354
:1009500009F411C186E09FEFC916D104E104F10446
:1009600081F078F0730162019AE0F594E794D794EE
:10097000C7949A95D1F781E0C81AD108E108F10827
:1009800087E09091B100987F892B8093B1002FC0B0
:1009900064E274EF80E090E0A50194010E941210DF
:1009A00069017A0181E0C81AD108E108F10885E0FF
:1009B0009FEFC916D104E104F10419F310F362E1C9
:1009C0007AE780E090E0A50194010E94121069018D
:1009D0007A0181E0C81AD108E108F108BBCF81E0B3
:1009E0002D812111CECF95B5987F892B85BDD8015A
:1009F000AA0FBB1F29813A814B815C810E94D60FCF
:100A000028EE33E040E050E00E94F00F8D8182300C
:100A100009F47DC00CF0C8C0882309F469C0813096
:100A200009F0E7CDD0928900C09288002093BD02E2
:100A30003093BE024093BF025093C00280916F007A
:100A4000826080936F00D5CD82E0CACFB12CA12CFB
:100A500060E072E18AE790E0A50198010E9412101F
:100A600069017A0181E0C81AD108E108F108C114CE
:100A7000D10491E0E906F1045CF491E02D8121308C
:100A8000C1F480918100887F892B80938100AFCF52
:100A900068E478EE81E090E0A50198010E941210D0
:100AA00069017A0181E0C81AD108E108F10893E0F0
:100AB000E5CF8D81833039F480919100887F892B37
:100AC0008093910094CF2D81243039F48091A1003E
:100AD000887F892B8093A1008ACF8D81853009F092
:100AE00086CF80912101887F892B809321017FCF40
:100AF000C7BC2093C1023093C2024093C3025093FB
:100B0000C40280916E00826080936E0072CDC092AC
:100B1000B3002093C8023093C9024093CA02509395
:100B2000CB028091700082608093700062CDD09281
:100B30009900C09298002093B9023093BA02409372
:100B4000BB025093BC02809171008260809371005F
:100B500050CDD092A900C092A8002093B502309346
:100B6000B6024093B7025093B8028091720082603F
:100B7000809372003ECD84E02FEFC216D104E104D1
:100B8000F10409F008F42FCF730162012AE0F59413
:100B9000E794D794C7942A95D1F791E0C91AD10860
:100BA000E108F10885E01FCF9D81943091F20CF4AB
:100BB000BECF953009F01DCDD0922901C0922801F9
:100BC0002093B1023093B2024093B3025093B40227
:100BD000809173008260809373000BCD83E09FEF60
:100BE000C916D104E104F10409F00CF4FCCE9FCE47
:100BF0002CE231E040E050E068EB71E085E00C94DD
:100C0000D802AF92BF92CF92DF92EF92FF920F93F2
:100C10001F93CF93DF936C017B018B01040F151F92
:100C2000EB015E01AE18BF08C017D10759F06991FA
:100C3000D601ED91FC910190F081E02DC60119954E
:100C4000892B79F7C501DF91CF911F910F91FF900B
:100C5000EF90DF90CF90BF90AF900895FC01538D3F
:100C6000448D252F30E0842F90E0821B930B541786
:100C700010F0CF96089501970895FC01918D828D13
:100C8000981761F0A28DAE0FBF2FB11D5D968C91AC
:100C9000928D9F5F9F73928F90E008958FEF9FEFEB
:100CA0000895FC01918D828D981731F0828DE80FA7
:100CB000F11D858D90E008958FEF9FEF0895FC0161
:100CC000918D228D892F90E0805C9F4F821B91092E
:100CD0008F73992708958FED92E00E945F0621E0BF
:100CE000892B09F420E0822F0895FC01A48DA80F20
:100CF000B92FB11DA35ABF4F2C91848D90E001965E
:100D00008F739927848FA689B7892C93A089B1897D
:100D10008C91837080648C93938D848D981306C01E
:100D20000288F389E02D80818F7D80830895EF9282
:100D3000FF920F931F93CF93DF93EC0181E0888F95
:100D40009B8D8C8D98131AC0E889F989808185FF65
:100D500015C09FB7F894EE89FF896083E889F98907
:100D600080818370806480839FBF81E090E0DF9109
:100D7000CF911F910F91FF90EF900895F62E0B8D5C
:100D800010E00F5F1F4F0F731127E02E8C8D8E1117
:100D90000CC00FB607FCFACFE889F989808185FF7E
:100DA000F5CFCE010E947506F1CFEB8DEC0FFD2F34
:100DB000F11DE35AFF4FF0829FB7F8940B8FEA8939
:100DC000FB8980818062CFCFCF93DF93EC01888D48
:100DD0008823B9F0AA89BB89E889F9898C9185FDB6
:100DE00003C0808186FD0DC00FB607FCF7CF8C9144
:100DF00085FFF2CF808185FFEDCFCE010E94750681
:100E0000E9CFDF91CF91089580E090E0892B29F020
:100E10000E946B0681110E94000080E090E0892B07
:100E200049F080E090E0892B29F00E9400008111B8
:100E30000E94000080E090E0892B49F080E090E083
:100E4000892B29F00E94000081110E94000080E09F
:100E500090E0892B49F080E090E0892B29F00E94F6
:100E6000000081110C94000008950F931F9380914E
:100E7000D8030E94D601182F8091DA030E94D60170
:100E8000880F991F812B9091DE03891709F46DC09B
:100E9000E091DE030091DF031091E0032091E10374
:100EA0003091E20394E0E902F0011124482F082E6A
:100EB000000C550BE42BF52BED5EFD4F9081492F77
:100EC000990F550B660B770B400F511F621F731F55
:100ED0004093DF035093E0036093E1037093E203D8
:100EE0008093DE032091DC033091DD032230310555
:100EF000D1F123303105E1F121303105B1F58330F5
:100F0000A1F58091DF039091E003A091E103B091FE
:100F1000E20332E0B595A795979587953A95D1F775
:100F20008093E3039093E403A093E503B093E60377
:100F30008091EB039091EC03A091ED03B091EE034F
:100F40008093EF039093F003A093F103B093F20327
:100F50000E94CB026093EB037093EC038093ED034C
:100F60009093EE0302C0882361F21F910F910895C0
:100F7000882311F08330C9F78091DF039091E0035B
:100F8000A091E103B091E203B595A7959795879558
:100F9000C7CFCF93DF93FC0101900020E9F7319791
:100FA000AF01481B590BBC018FED92E00E94010676
:100FB000EC0142E050E061E772E08FED92E00E94C8
:100FC00001068C0F9D1FDF91CF9108951F920F9204
:100FD0000FB60F9211242F933F938F939F93AF934C
:100FE000BF938091D7029091D802A091D902B0917D
:100FF000DA023091D60223E0230F2D3758F50196FF
:10100000A11DB11D2093D6028093D7029093D802E0
:10101000A093D902B093DA028091DB029091DC02B6
:10102000A091DD02B091DE020196A11DB11D809359
:10103000DB029093DC02A093DD02B093DE02BF914D
:10104000AF919F918F913F912F910F900FBE0F9075
:101050001F90189526E8230F0296A11DB11DD2CF2F
:101060001F920F920FB60F9211240BB60F922F936F
:101070003F934F935F936F937F938F939F93AF9320
:10108000BF93EF93FF93E0910F02F0911002199537
:10109000FF91EF91BF91AF919F918F917F916F9150
:1010A0005F914F913F912F910F900BBE0F900FBE0C
:1010B0000F901F9018951F920F920FB60F92112448
:1010C0000BB60F922F933F934F935F936F937F9342
:1010D0008F939F93AF93BF93EF93FF93E0910D0294
:1010E000F0910E021995FF91EF91BF91AF919F91F1
:1010F0008F917F916F915F914F913F912F910F90C1
:101100000BBE0F900FBE0F901F9018951F920F925D
:101110000FB60F9211240BB60F922F933F934F935C
:101120005F936F937F938F939F93AF93BF93EF934F
:10113000FF93E0910302F09104021995FF91EF9162
:10114000BF91AF919F918F917F916F915F914F91DF
:101150003F912F910F900BBE0F900FBE0F901F90DD
:1011600018951F920F920FB60F9211240BB60F9283
:101170002F933F934F935F936F937F938F939F939F
:10118000AF93BF93EF93FF93E0910102F0910202BE
:101190001995FF91EF91BF91AF919F918F917F91A1
:1011A0006F915F914F913F912F910F900BBE0F90D8
:1011B0000FBE0F901F9018951F920F920FB60F92AF
:1011C00011240BB60F922F933F934F935F936F931E
:1011D0007F938F939F93AF93BF93EF93FF93E09190
:1011E0000B02F0910C021995FF91EF91BF91AF9115
:1011F0009F918F917F916F915F914F913F912F912F
:101200000F900BBE0F900FBE0F901F9018951F925E
:101210000F920FB60F9211240BB60F922F933F939C
:101220004F935F936F937F938F939F93AF93BF93EE
:10123000EF93FF93E0910902F0910A021995FF9153
:10124000EF91BF91AF919F918F917F916F915F913E
:101250004F913F912F910F900BBE0F900FBE0F90AB
:101260001F9018951F920F920FB60F9211240BB674
:101270000F922F933F934F935F936F937F938F932F
:101280009F93AF93BF93EF93FF93E0910702F09189
:1012900008021995FF91EF91BF91AF919F918F91A6
:1012A0007F916F915F914F913F912F910F900BBE66
:1012B0000F900FBE0F901F9018951F920F920FB6B0
:1012C0000F9211240BB60F922F933F934F935F937E
:1012D0006F937F938F939F93AF93BF93EF93FF93FE
:1012E000E0910502F09106021995FF91EF91BF91EF
:1012F000AF919F918F917F916F915F914F913F91AE
:101300002F910F900BBE0F900FBE0F901F9018954E
:101310001F920F920FB60F9211240BB60F922F93BC
:101320003F934F935F936F937F938F939F93AF936D
:10133000BF93EF93FF938091C8029091C902A0914F
:10134000CA02B091CB02892B8A2B8B2BE1F19091B1
:10135000C702E091C502F091C6028081892780838F
:101360008091C8029091C902A091CA02B091CB02AB
:10137000181619061A061B069CF48091C802909153
:10138000C902A091CA02B091CB020197A109B1098B
:101390008093C8029093C902A093CA02B093CB0273
:1013A000FF91EF91BF91AF919F918F917F916F913D
:1013B0005F914F913F912F910F900BBE0F900FBEF9
:1013C0000F901F90189580910002E4E5F1E0E49100
:1013D0009FEF90930002E230E9F040F4EE2389F0B1
:1013E000E13091F060E00E941202DACFE43049F17E
:1013F00010F1E530B9F7909173009D7F90937300E1
:10140000F1CF10926E00EECF90916F009D7F909380
:101410006F00E8CF909170009D7F9093700091E0F5
:101420009093B0009091B100987F94609093B10038
:101430001092B300D7CF909171009D7F909371006F
:10144000D1CF909172009D7F90937200CBCF1F926D
:101450000F920FB60F9211240BB60F922F933F935A
:101460004F935F936F937F938F939F93AF93BF93AC
:10147000EF93FF938FED92E00E947506FF91EF913D
:10148000BF91AF919F918F917F916F915F914F919C
:101490003F912F910F900BBE0F900FBE0F901F909A
:1014A00018951F920F920FB60F9211240BB60F9240
:1014B0002F938F939F93EF93FF93E091EF02F0911F
:1014C000F0028081E091F502F091F60282FD1DC0EC
:1014D00090818091F8028F5F8F732091F9028217BB
:1014E00041F0E091F802F0E0E152FD4F958F8093DA
:1014F000F802FF91EF919F918F912F910F900BBE6A
:101500000F900FBE0F901F9018958081F2CFEF9231
:10151000FF921F93CF93DF9300D01F92CDB7DEB71A
:101520001092E2021092E10288EE93E0A0E0B0E0B7
:101530008093E3029093E402A093E502B093E60265
:101540008BE492E09093E0028093DF0285EC90E0E0
:101550009093EC028093EB0284EC90E09093EE0287
:101560008093ED0280EC90E09093F0028093EF0284
:1015700081EC90E09093F2028093F10282EC90E093
:101580009093F4028093F30286EC90E09093F6023D
:101590008093F5021092F8021092F9021092FA026A
:1015A0001092FB0284E1E82EF12CF092D903E09234
:1015B000D80385E190E09093DB038093DA0382E027
:1015C00090E09093DD038093DC0362E084E10E946D
:1015D0006A0262E085E10E946A028091D8030E945B
:1015E000D601182F8091DA030E94D601880F991F27
:1015F000812B8093DE031092DF031092E0031092A0
:10160000E1031092E2031092E3031092E4031092BC
:10161000E5031092E6031092E7031092E80310929C
:10162000E9031092EA031092BA031092B90362E040
:1016300087E30E946A021092BA031092B9031092D3
:10164000C7031092C8031092C9031092CA031092E4
:10165000CB031092CC031092CD031092CE0387E3FC
:101660008093BC0311E01093BB0388E893E190934F
:10167000BE038093BD03F092C003E092BF031092BB
:10168000C2031092C1031092C4031092C3031092BC
:10169000C6031092C5031092D0031092CF0310928C
:1016A000D2031092D1031092D4031092D30310925C
:1016B000D6031092D5031092D7031C821B8284E0BC
:1016C00090E09A83898390937D0380937C0387E0E5
:1016D00090E090937F0380937E0388E090E0909366
:1016E00081038093800361E084E00E946A0261E0EC
:1016F00080917E030E946A0261E0809180030E94D3
:101700006A02109282031093830310938403E1E62C
:10171000F2E029EA33E0819191918830910508F057
:101720005EC0875A9D4FDC018C91D9018D939D013C
:10173000B2E0E137FB0779F7109286031092850338
:101740001092880310928703DE011196E9E8F3E016
:1017500090E080E030E020E0F82E192F4D915D916F
:10176000141615060CF043C0BA01620F731F0196E0
:1017700069307105B4F13093860320938503F092AC
:1017800087031093880348E050E06FEF70E081EB2F
:1017900093E00E94391060E080917C030E94120265
:1017A00020E041E060917E03809180030E9440022E
:1017B00020E041E060917E03809180030E9440021E
:1017C00061E080917C030E9412020F900F900F90B5
:1017D0000F90DF91CF911F91FF90EF90089580E0DF
:1017E000A4CF318B208B419351939B01B5CF309384
:1017F0008603209385039093880380938703C3CF48
:10180000CF93DF931F921F92CDB7DEB7789484B544
:10181000826084BD84B5816084BD85B5826085BDEC
:1018200085B5816085BD80916E00816080936E007A
:10183000109281008091810082608093810080916C
:10184000810081608093810080918000816080931D
:1018500080008091B10084608093B1008091B000DD
:1018600081608093B00080919100826080939100AC
:1018700080919100816080939100809190008160BF
:10188000809390008091A10082608093A10080915C
:10189000A10081608093A1008091A000816080936D
:1018A000A00080912101826080932101809121011B
:1018B00081608093210180912001816080932001CB
:1018C00080917A00846080937A0080917A008260AF
:1018D00080937A0080917A00816080937A00809171
:1018E0007A00806880937A001092C10061E08BE3F7
:1018F0000E946A0260E08BE30E94120261E085E0D0
:101900000E946A0225E337E0309308022093070221
:1019100080916900837F846080936900E99A3093A5
:10192000060220930502809169008C7F816080937C
:101930006900E89A88EF95E09093D0038093CF03F5
:10194000E091EF02F091F00282E08083E091EB02FF
:10195000F091EC021082E091ED02F091EE028FEC3A
:1019600080831092F702E091F302F091F40286E096
:101970008083E091F102F091F202808180618083A6
:10198000E091F102F091F202808188608083E09121
:10199000F102F091F202808180688083E091F1028F
:1019A000F091F20280818F7D80838AE0882E912CD5
:1019B000A12CB12C9DE2392E8091B9039091BA03EC
:1019C0008130910509F456C040F0029709F4BDC07A
:1019D0001092BA031092B90331C08091C50390915F
:1019E000C603892BB9F00E94CB020091CB03109162
:1019F000CC032091CD033091CE03601B710B820B81
:101A0000930B683E73408105910520F01092C60348
:101A10001092C5030E94FF01882381F00E94CB022F
:101A20006093C7037093C8038093C9039093CA035C
:101A300081E090E09093BA038093B9034090E30370
:101A40005090E4036090E5037090E6032DB73EB735
:101A50003A832983A301920110E000E00F5F1F4F3A
:101A600057FFD3C050954095309521953F4F4F4F2C
:101A70005F4FF4CF0E94CB020091C7031091C803BF
:101A80002091C9033091CA03AB01BC01401B510B2B
:101A9000620B730B8091BF039091C003B0E0A0E094
:101AA000481759076A077B0748F20E94FF018823FD
:101AB00009F48ECF1092C4031092C3038091D70310
:101AC0008E7F86608093D7038091C5039091C60373
:101AD000892B51F40E94CB026093CB037093CC030B
:101AE0008093CD039093CE038091C1039091C20364
:101AF00001969093C2038093C1038091C503909196
:101B0000C60301969093C6038093C503E091CF036B
:101B1000F091D003309719F089EB93E019958091FB
:101B2000C5039091C603029748F0E091D503F09168
:101B3000D603309719F089EB93E01995E2E0F0E0D5
:101B4000F093BA03E093B90379CF0E94FF01882391
:101B500009F450C00E94CB020091C7031091C80342
:101B60002091C9033091CA03AB01BC01401B510B4A
:101B7000620B730B8091BD039091BE03B0E0A0E0B7
:101B8000481759076A077B0708F458CF0E94CB0211
:101B90000091C7031091C8032091C9033091CA0373
:101BA000DC01CB01801B910BA20BB30B2091C30373
:101BB0003091C403820F931F9093C4038093C30397
:101BC0000E94CB026093C7037093C8038093C9033C
:101BD0009093CA03E091D103F091D203309719F0AA
:101BE00089EB93E019958091D7038B7F8160809377
:101BF000D70324CFE091D303F091D403309709F4B5
:101C0000E7CE89EB93E01995E3CE2A303105410503
:101C100051053CF0CA01B901A50194010E941210BE
:101C20001DCF8DB79EB7801B910B0FB6F8949EBF4A
:101C30000FBE8DBFEDB7FEB731967F01212C77FE29
:101C40000AC07094609450944094411C511C611CD3
:101C5000711C222423946701C00ED11EC301B2015E
:101C6000A50194010E941210605DF60162936F015C
:101C700029013A01EE15FF0589F7222011F0F7013D
:101C800030828091890390918A03FC0131972DB7AE
:101C90003EB7281B390B0FB6F8943EBF0FBE2DBFC1
:101CA0004DB75EB74F5F5F4FBC01601B710BDA0130
:101CB0009D01241B350B261737071CF430E23D939A
:101CC000F7CF9B01E217F3077CF037FD0AC0D9017B
:101CD000A61BB70BAE0DBF1D1C91DA01A20FB31FDF
:101CE0001C932F5F3F4FEECFEDB7FEB7E81BF90B0C
:101CF0000FB6F894FEBF0FBEEDBF2DB73EB72F5FF6
:101D00003F4FBA01D901FB01E41BF50BE817F907B6
:101D10005CF5FB011191BF01F0EDF10FFA3048F4D1
:101D2000E12F110FFF0BE35FFD4FE081EC93119664
:101D3000EACFFFE9F10FFA3130F4E12F110FFF0B79
:101D4000EE53FE4FF2CFFFEBF10FFA3130F4E12FFB
:101D5000110FFF0BEE51FE4FE8CF1D3219F4F2E0E8
:101D6000FC93E5CF1C92E3CF60918203E09199034D
:101D7000F0919A03EF54FC4FD901AD01421B530B74
:101D80004817590734F44D91611101C040954193B2
:101D9000F4CF29813A810FB6F8943EBF0FBE2DBF14
:101DA00080918303882309F44AC00CE713E0209153
:101DB000850330918603C8018C579340821793079F
:101DC0000CF05EC060E080917C030E941202809162
:101DD0008403F801811128C025A540E060917E03AD
:101DE000809180030E944002F80125A940E06091A3
:101DF0007E03809180030E94400261E080917C0319
:101E00000E9412020E94A6026B017C010E94A6029F
:101E10006C197D098E099F09683E73408105910503
:101E2000A8F30F5F1F4FC3CF25A940E060917E0349
:101E3000809180030E944002F80125A5D7CF60E081
:101E400080917C030E941202009185031091860309
:101E500004581C4F01501109C8018C57934097FD3D
:101E60000AC0F80125A940E060917E0380918003BB
:101E70000E944002EFCF61E080917C030E94120239
:101E80008091D4029091D502092E000CAA0BBB0BB5
:101E90004091E3035091E4036091E5037091E60300
:101EA00084179507A607B707B9F14091E30350914E
:101EB000E4036091E5037091E60384179507A60794
:101EC000B7070CF069C084E792E00E94C9078091CF
:101ED000E3039091E403A091E503B091E6039093AE
:101EE000D5028093D4026091E3037091E403809162
:101EF000E5039091E603A50194010E941210672B5F
:101F0000682B692B49F424E630E040E050E068EBB0
:101F100071E085E00E94D8020E94CB026B017C0137
:101F2000C092D002D092D102E092D202F092D302BB
:101F30008091CC029091CD02A091CE02B091CF02BF
:101F400088519C4FAF4FBF4FC816D906EA06FB0613
:101F500000F18091110290911202C296843FF1E04B
:101F60009F07ECF49093120280931102609111028A
:101F70007091120224E630E040E050E085E00E94DB
:101F8000D802C092CC02D092CD02E092CE02F09262
:101F9000CF020E94040710CD8DE892E096CF24E690
:101FA00030E03093120220931102E0CF0E94E10F43
:101FB000A59F900DB49F900DA49F800D911D11249D
:101FC0000895A29FB001B39FC001A39F700D811D12
:101FD0001124911DB29F700D811D1124911D089532
:101FE000A1E21A2EAA1BBB1BFD010DC0AA1FBB1F1D
:101FF000EE1FFF1FA217B307E407F50720F0A21B8F
:10200000B30BE40BF50B661F771F881F991F1A94FB
:1020100069F760957095809590959B01AC01BD0125
:10202000CF010895052E97FB1EF400940E942910FD
:1020300057FD07D00E94F00F07FC03D04EF40C941C
:10204000291050954095309521953F4F4F4F5F4F48
:10205000089590958095709561957F4F8F4F9F4F14
:102060000895EE0FFF1F881F8BBF0790F691E02D9C
:102070001994DC0101C06D9341505040E0F7089580
:04208000F894FFCF02
:10208400FFD702D702D702D702D702D702D702D787
:1020940002640000FF0100010000FFFF00000100D6
:1020A40001FF00EE3E9C7A9E8EBC6E0C78AE1CEC5A
:1020B4002A3ACEE68CB61E387C7E6C76DAFC60DA80
:1020C400F266B6BEE0FEE600000000970601062EAA
:1020D40006E4065F063D065106804020100804020F
:1020E40001000001000200030004000500060007CF
:1020F400000D0A004769726F206E6F2073656E745D
:1021040069646F20686F726172696F2E004769722B
:102114006F206E6F2073656E7469646F20616E74D6
:0C212400692D686F726172696F2E0000F7
:00000001FF
