:020000040000FA
:100000000C943C010C945D090C9432090C94070982
:100010000C94DC080C94B1080C9486080C945B08D2
:100020000C9430080C946D010C946D010C946D01CE
:100030000C946D010C9488090C946D010C946D0165
:100040000C946D010C946D010C946D010C946D0178
:100050000C946D010C946D010C946D010C94E607E9
:100060000C946D010C94510A0C94270A0C946D01A8
:100070000C946D010C946D010C946D010C946D0148
:100080000C946D010C946D010C946D010C946D0138
:100090000C946D010C946D010C946D010C946D0128
:1000A0000C946D010C946D010C946D010C946D0118
:1000B0000C946D010C946D010C946D010C946D0108
:1000C0000C946D010C946D010C946D010C946D01F8
:1000D0000C946D010C946D010C946D010C946D01E8
:1000E0000C946D010C943D060C948D010C949701B9
:1000F0000C94B2010C949F010C94D2010C94AC01AD
:100100000C942E060C9493010C94A8010C94E40614
:100110000C94B6010C94870A0C94CD010C94BA018E
:100120000C94A2010C9401060C9497060C949B016C
:100130000C94C8010C9451060C9435070C94D7020A
:100140000C94C4010C94CE010C945F060C94C00175
:100150000C94F8050200002100240027002A002D3D
:10016000003000330001010000040107010A010012
:10017000002200250028002B002E00310034000250
:10018000010000050108010B0100002000230026EA
:100190000029002C002F003200000100000301069E
:1001A00001090105050505070508080808020202FE
:1001B000020A0A0808040404040101010101010102
:1001C000010303030303030303040707070C0C0CD9
:1001D0000C0C0C0C0C0202020206060606060606B1
:1001E000060B0B0B0B0B0B0B0B010210202008084E
:1001F0001020401020408002010201080402010189
:100200000204081020408080402010080402018071
:1002100004020180402010080402010804020101C8
:1002200002040810204080010204081020408000D1
:10023000000A0B02090C0D0E080703040100000060
:1002400000000000000000000000000000000000AE
:10025000000000000000000000000012111000006B
:10026000000000000000000000000000000000008E
:10027000000000000000870A11241FBECFEFD1E26A
:10028000DEBFCDBF00E00CBF23E0ACEAB2E001C0AE
:100290001D92A33FB207E1F712E0A0E0B2E0E4E86C
:1002A000F0E200E00BBF02C007900D92AC3AB1073C
:1002B000D9F711E0CCE3D1E000E006C021970109B5
:1002C000802FFE010E943110CB33D10780E0080758
:1002D000A9F70E94000C0C9440100C94000081506F
:1002E000823108F05AC0E82FF0E08827E558FE4F29
:1002F0008F4F0C9431109B019F018D019301970149
:10030000CD01A201A801AC01B201B601BA01C00140
:10031000C401CD01C801CE01D201809180008F7748
:10032000809380000895809180008F7DF9CF809127
:100330008000877FF5CF84B58F7784BD089584B51D
:100340008F7DFBCF8091B0008F778093B0000895B0
:100350008091B0008F7DF9CF809190008F7780934E
:1003600090000895809190008F7DF9CF809190004A
:10037000877FF5CF8091A0008F778093A0000895AC
:100380008091A0008F7DF9CF8091A000877FF5CF6D
:10039000809120018F778093200108958091200122
:1003A0008F7DF9CF80912001877FF5CFCF93DF93A9
:1003B000282F30E0F901E15DFD4F8491F901E7510B
:1003C000FE4FD491F901ED55FE4FC491CC23A1F01D
:1003D00081110E946F01EC2FF0E0EE0FFF1FE75735
:1003E000FE4FA591B491EC91ED2381E090E009F4EA
:1003F00080E0DF91CF91089580E090E0FACF809186
:10040000BC030E94D6019C018091BB03823028F47A
:1004100081E0232B31F080E004C081E02130310500
:10042000D1F708951F93CF93DF93282F30E0F90180
:10043000E15DFD4F8491F901E751FE4FD491F9013F
:10044000ED55FE4FC491CC23A9F0162F81110E94C7
:100450006F01EC2FF0E0EE0FFF1FE159FE4FA59169
:10046000B4918FB7F894EC91111108C0D095DE23A8
:10047000DC938FBFDF91CF911F910895DE2BF8CFD2
:10048000FF920F931F93CF93DF93082F162FF42E15
:10049000C22FD8E06C2FF11015C06170802F0E9420
:1004A0001202C69561E0812F0E94120260E0812F46
:1004B0000E941202D15071F7DF91CF911F910F91DD
:1004C000FF900895661F6627661F802F0E94120204
:1004D000CC0FE8CFCF93DF9390E0FC01E751FE4FC4
:1004E00024918D559E4FFC0184918823C9F090E0A2
:1004F000880F991FFC01EB5AFE4FA591B491FC01A6
:10050000E159FE4FC591D49161110DC09FB7F89488
:100510008C91209582238C938881282328839FBFE8
:10052000DF91CF910895623051F49FB7F8943C91D8
:10053000822F809583238C93E8812E2BEFCF8FB76A
:10054000F894EC912E2B2C938FBFEACF3FB7F89401
:100550008091DB029091DC02A091DD02B091DE027D
:1005600026B5A89B05C02F3F19F00196A11DB11D0E
:100570003FBFBA2FA92F982F8827BC01CD01620F4A
:10058000711D811D911D42E0660F771F881F991F05
:100590004A95D1F708952FB7F8946091D7027091DA
:1005A000D8028091D9029091DA022FBF0895089560
:1005B0004F925F926F927F928F929F92AF92BF9273
:1005C000CF92DF92EF92FF920F931F93CF93DF931F
:1005D00000D01F921F92CDB7DEB78B0129833A83DB
:1005E0004B835C83909100028917C9F09F3F09F407
:1005F0008FC00F900F900F900F900F90DF91CF91C1
:100600001F910F91FF90EF90DF90CF90BF90AF9030
:100610009F908F907F906F905F904F900895E4E54A
:10062000F1E024912D8327FDE4CF61E00E946A026E
:100630002D81222321F08D81823009F007C24801EB
:10064000B12CA12C60E072E18AE790E0A50198014D
:100650000E94121029013A017A01690191E0C91A38
:10066000D108E108F1082FEFC216D104E104F1042A
:1006700009F00CF4B4C160E472E48FE090E0A501ED
:1006800098010E94121069017A0181E0C81AD1080C
:10069000E108F1089D81923009F026C182E02FEF38
:1006A000C216D104E104F10409F00CF46AC160E956
:1006B00070ED83E090E0A50198010E94121069019D
:1006C0007A0181E0C81AD108E108F10883E09FEFC0
:1006D000C916D104E104F10409F00CF452C168E434
:1006E00078EE81E090E0A50198010E941210690166
:1006F0007A0181E0C81AD108E108F1089FEFC91614
:10070000D104E104F10411F00CF042C184E039C1DC
:1007100080930002E4E5F1E094919D839F3F09F40A
:1007200068CF923009F474C058F4992399F191304C
:1007300009F44CC097FD5DCF61E00E946A027BCF57
:100740002D81243009F4AEC008F488C0253091F71B
:1007500010922001109221019091210198609093B4
:10076000210190912101916090932101282F30E087
:10077000F901ED55FE4FE491F0E0EE0FFF1FE15956
:10078000FE4F45915491F901E751FE4FE491E093FA
:10079000AC024BCF14BC15BC94B5926094BD95B51A
:1007A000916095BD282F30E0F901ED55FE4FE491A1
:1007B000F0E0EE0FFF1FE159FE4F45915491F90112
:1007C000E751FE4FE491E093B0022FCF10928000EA
:1007D0001092810090918100986090938100909197
:1007E0008100916090938100282F30E0F901ED5550
:1007F000FE4FE491F0E0EE0FFF1FE159FE4F4591EF
:100800005491F901E751FE4FE491E093AF020DCF0F
:100810001092B0001092B1009091B000926090934D
:10082000B0009091B10091609093B100282F30E01A
:10083000F901ED55FE4FE491F0E0EE0FFF1FE15995
:10084000FE4F459154915093C6024093C502F90161
:10085000E751FE4FE491E093C702E7CE109290007B
:1008600010929100909191009860909391009091D6
:100870009100916090939100282F30E0F901ED559F
:10088000FE4FE491F0E0EE0FFF1FE159FE4F45915E
:100890005491F901E751FE4FE491E093AE0293E0E9
:1008A0009D83C3CE1092A0001092A1009091A10050
:1008B00098609093A1009091A10091609093A10005
:1008C000282F30E0F901ED55FE4FE491F0E0EE0FF6
:1008D000FF1FE159FE4F45915491F901E751FE4F39
:1008E000E491E093AD02A1CE2FEFC216D104E10452
:1008F000F10409F00CF4A8C068E478EE81E090E01F
:10090000A50198010E94121069017A0181E0C81ABC
:10091000D108E108F1089D81992309F45FC12FEF07
:10092000C216D104E104F10409F00CF4EFCE62E147
:100930007AE780E090E0A50194010E94121069011D
:100940007A0181E0C81AD108E108F1089D81992354
:1009500009F411C186E09FEFC916D104E104F10446
:1009600081F078F0730162019AE0F594E794D794EE
:10097000C7949A95D1F781E0C81AD108E108F10827
:1009800087E09091B100987F892B8093B1002FC0B0
:1009900064E274EF80E090E0A50194010E941210DF
:1009A00069017A0181E0C81AD108E108F10885E0FF
:1009B0009FEFC916D104E104F10419F310F362E1C9
:1009C0007AE780E090E0A50194010E94121069018D
:1009D0007A0181E0C81AD108E108F108BBCF81E0B3
:1009E0002D812111CECF95B5987F892B85BDD8015A
:1009F000AA0FBB1F29813A814B815C810E94D60FCF
:100A000028EE33E040E050E00E94F00F8D8182300C
:100A100009F47DC00CF0C8C0882309F469C0813096
:100A200009F0E7CDD0928900C09288002093BD02E2
:100A30003093BE024093BF025093C00280916F007A
:100A4000826080936F00D5CD82E0CACFB12CA12CFB
:100A500060E072E18AE790E0A50198010E9412101F
:100A600069017A0181E0C81AD108E108F108C114CE
:100A7000D10491E0E906F1045CF491E02D8121308C
:100A8000C1F480918100887F892B80938100AFCF52
:100A900068E478EE81E090E0A50198010E941210D0
:100AA00069017A0181E0C81AD108E108F10893E0F0
:100AB000E5CF8D81833039F480919100887F892B37
:100AC0008093910094CF2D81243039F48091A1003E
:100AD000887F892B8093A1008ACF8D81853009F092
:100AE00086CF80912101887F892B809321017FCF40
:100AF000C7BC2093C1023093C2024093C3025093FB
:100B0000C40280916E00826080936E0072CDC092AC
:100B1000B3002093C8023093C9024093CA02509395
:100B2000CB028091700082608093700062CDD09281
:100B30009900C09298002093B9023093BA02409372
:100B4000BB025093BC02809171008260809371005F
:100B500050CDD092A900C092A8002093B502309346
:100B6000B6024093B7025093B8028091720082603F
:100B7000809372003ECD84E02FEFC216D104E104D1
:100B8000F10409F008F42FCF730162012AE0F59413
:100B9000E794D794C7942A95D1F791E0C91AD10860
:100BA000E108F10885E01FCF9D81943091F20CF4AB
:100BB000BECF953009F01DCDD0922901C0922801F9
:100BC0002093B1023093B2024093B3025093B40227
:100BD000809173008260809373000BCD83E09FEF60
:100BE000C916D104E104F10409F00CF4FCCE9FCE47
:100BF0002CE231E040E050E068EB71E085E00C94DD
:100C0000D802AF92BF92CF92DF92EF92FF920F93F2
:100C10001F93CF93DF936C017B018B01040F151F92
:100C2000EB015E01AE18BF08C017D10759F06991FA
:100C3000D601ED91FC910190F081E02DC60119954E
:100C4000892B79F7C501DF91CF911F910F91FF900B
:100C5000EF90DF90CF90BF90AF900895FC01538D3F
:100C6000448D252F30E0842F90E0821B930B541786
:100C700010F0CF96089501970895FC01918D828D13
:100C8000981761F0A28DAE0FBF2FB11D5D968C91AC
:100C9000928D9F5F9F73928F90E008958FEF9FEFEB
:100CA0000895FC01918D828D981731F0828DE80FA7
:100CB000F11D858D90E008958FEF9FEF0895FC0161
:100CC000918D228D892F90E0805C9F4F821B91092E
:100CD0008F73992708958FED92E00E945F0621E0BF
:100CE000892B09F420E0822F0895FC01A48DA80F20
:100CF000B92FB11DA35ABF4F2C91848D90E001965E
:100D00008F739927848FA689B7892C93A089B1897D
:100D10008C91837080648C93938D848D981306C01E
:100D20000288F389E02D80818F7D80830895EF9282
:100D3000FF920F931F93CF93DF93EC0181E0888F95
:100D40009B8D8C8D98131AC0E889F989808185FF65
:100D500015C09FB7F894EE89FF896083E889F98907
:100D600080818370806480839FBF81E090E0DF9109
:100D7000CF911F910F91FF90EF900895F62E0B8D5C
:100D800010E00F5F1F4F0F731127E02E8C8D8E1117
:100D90000CC00FB607FCFACFE889F989808185FF7E
:100DA000F5CFCE010E947506F1CFEB8DEC0FFD2F34
:100DB000F11DE35AFF4FF0829FB7F8940B8FEA8939
:100DC000FB8980818062CFCFCF93DF93EC01888D48
:100DD0008823B9F0AA89BB89E889F9898C9185FDB6
:100DE00003C0808186FD0DC00FB607FCF7CF8C9144
:100DF00085FFF2CF808185FFEDCFCE010E94750681
:100E0000E9CFDF91CF91089580E090E0892B29F020
:100E10000E946B0681110E94000080E090E0892B07
:100E200049F080E090E0892B29F00E9400008111B8
:100E30000E94000080E090E0892B49F080E090E083
:100E4000892B29F00E94000081110E94000080E09F
:100E500090E0892B49F080E090E0892B29F00E94F6
:100E6000000081110C94000008950F931F9380914E
:100E7000D8030E94D601182F8091DA030E94D60170
:100E8000880F991F812B9091DE03891709F46DC09B
:100E9000E091DE030091DF031091E0032091E10374
:100EA0003091E20394E0E902F0011124482F082E6A
:100EB000000C550BE42BF52BED5EFD4F9081492F77
:100EC000990F550B660B770B400F511F621F731F55
:100ED0004093DF035093E0036093E1037093E203D8
:100EE0008093DE032091DC033091DD032230310555
:100EF000D1F123303105E1F121303105B1F58330F5
:100F0000A1F58091DF039091E003A091E103B091FE
:100F1000E20332E0B595A795979587953A95D1F775
:100F20008093E3039093E403A093E503B093E60377
:100F30008091EB039091EC03A091ED03B091EE034F
:100F40008093EF039093F003A093F103B093F20327
:100F50000E94CB026093EB037093EC038093ED034C
:100F60009093EE0302C0882361F21F910F910895C0
:100F7000882311F08330C9F78091DF039091E0035B
:100F8000A091E103B091E203B595A7959795879558
:100F9000C7CFCF93DF93FC0101900020E9F7319791
:100FA000AF01481B590BBC018FED92E00E94010676
:100FB000EC0142E050E061E772E08FED92E00E94C8
:100FC00001068C0F9D1FDF91CF9108951F920F9204
:100FD0000FB60F9211242F933F938F939F93AF934C
:100FE000BF938091D7029091D802A091D902B0917D
:100FF000DA023091D60223E0230F2D3758F50196FF
:10100000A11DB11D2093D6028093D7029093D802E0
:10101000A093D902B093DA028091DB029091DC02B6
:10102000A091DD02B091DE020196A11DB11D809359
:10103000DB029093DC02A093DD02B093DE02BF914D
:10104000AF919F918F913F912F910F900FBE0F9075
:101050001F90189526E8230F0296A11DB11DD2CF2F
:101060001F920F920FB60F9211240BB60F922F936F
:101070003F934F935F936F937F938F939F93AF9320
:10108000BF93EF93FF93E0910F02F0911002199537
:10109000FF91EF91BF91AF919F918F917F916F9150
:1010A0005F914F913F912F910F900BBE0F900FBE0C
:1010B0000F901F9018951F920F920FB60F92112448
:1010C0000BB60F922F933F934F935F936F937F9342
:1010D0008F939F93AF93BF93EF93FF93E0910D0294
:1010E000F0910E021995FF91EF91BF91AF919F91F1
:1010F0008F917F916F915F914F913F912F910F90C1
:101100000BBE0F900FBE0F901F9018951F920F925D
:101110000FB60F9211240BB60F922F933F934F935C
:101120005F936F937F938F939F93AF93BF93EF934F
:10113000FF93E0910302F09104021995FF91EF9162
:10114000BF91AF919F918F917F916F915F914F91DF
:101150003F912F910F900BBE0F900FBE0F901F90DD
:1011600018951F920F920FB60F9211240BB60F9283
:101170002F933F934F935F936F937F938F939F939F
:10118000AF93BF93EF93FF93E0910102F0910202BE
:101190001995FF91EF91BF91AF919F918F917F91A1
:1011A0006F915F914F913F912F910F900BBE0F90D8
:1011B0000FBE0F901F9018951F920F920FB60F92AF
:1011C00011240BB60F922F933F934F935F936F931E
:1011D0007F938F939F93AF93BF93EF93FF93E09190
:1011E0000B02F0910C021995FF91EF91BF91AF9115
:1011F0009F918F917F916F915F914F913F912F912F
:101200000F900BBE0F900FBE0F901F9018951F925E
:101210000F920FB60F9211240BB60F922F933F939C
:101220004F935F936F937F938F939F93AF93BF93EE
:10123000EF93FF93E0910902F0910A021995FF9153
:10124000EF91BF91AF919F918F917F916F915F913E
:101250004F913F912F910F900BBE0F900FBE0F90AB
:101260001F9018951F920F920FB60F9211240BB674
:101270000F922F933F934F935F936F937F938F932F
:101280009F93AF93BF93EF93FF93E0910702F09189
:1012900008021995FF91EF91BF91AF919F918F91A6
:1012A0007F916F915F914F913F912F910F900BBE66
:1012B0000F900FBE0F901F9018951F920F920FB6B0
:1012C0000F9211240BB60F922F933F934F935F937E
:1012D0006F937F938F939F93AF93BF93EF93FF93FE
:1012E000E0910502F09106021995FF91EF91BF91EF
:1012F000AF919F918F917F916F915F914F913F91AE
:101300002F910F900BBE0F900FBE0F901F9018954E
:101310001F920F920FB60F9211240BB60F922F93BC
:101320003F934F935F936F937F938F939F93AF936D
:10133000BF93EF93FF938091C8029091C902A0914F
:10134000CA02B091CB02892B8A2B8B2BE1F19091B1
:10135000C702E091C502F091C6028081892780838F
:101360008091C8029091C902A091CA02B091CB02AB
:10137000181619061A061B069CF48091C802909153
:10138000C902A091CA02B091CB020197A109B1098B
:101390008093C8029093C902A093CA02B093CB0273
:1013A000FF91EF91BF91AF919F918F917F916F913D
:1013B0005F914F913F912F910F900BBE0F900FBEF9
:1013C0000F901F90189580910002E4E5F1E0E49100
:1013D0009FEF90930002E230E9F040F4EE2389F0B1
:1013E000E13091F060E00E941202DACFE43049F17E
:1013F00010F1E530B9F7909173009D7F90937300E1
:10140000F1CF10926E00EECF90916F009D7F909380
:101410006F00E8CF909170009D7F9093700091E0F5
:101420009093B0009091B100987F94609093B10038
:101430001092B300D7CF909171009D7F909371006F
:10144000D1CF909172009D7F90937200CBCF1F926D
:101450000F920FB60F9211240BB60F922F933F935A
:101460004F935F936F937F938F939F93AF93BF93AC
:10147000EF93FF938FED92E00E947506FF91EF913D
:10148000BF91AF919F918F917F916F915F914F919C
:101490003F912F910F900BBE0F900FBE0F901F909A
:1014A00018951F920F920FB60F9211240BB60F9240
:1014B0002F938F939F93EF93FF93E091EF02F0911F
:1014C000F0028081E091F502F091F60282FD1DC0EC
:1014D00090818091F8028F5F8F732091F9028217BB
:1014E00041F0E091F802F0E0E152FD4F958F8093DA
:1014F000F802FF91EF919F918F912F910F900BBE6A
:101500000F900FBE0F901F9018958081F2CFEF9231
:10151000FF921F93CF93DF9300D01F92CDB7DEB71A
:101520001092E2021092E10288EE93E0A0E0B0E0B7
:101530008093E3029093E402A093E502B093E60265
:101540008BE492E09093E0028093DF0285EC90E0E0
:101550009093EC028093EB0284EC90E09093EE0287
:101560008093ED0280EC90E09093F0028093EF0284
:1015700081EC90E09093F2028093F10282EC90E093
:101580009093F4028093F30286EC90E09093F6023D
:101590008093F5021092F8021092F9021092FA026A
:1015A0001092FB0284E1E82EF12CF092D903E09234
:1015B000D80385E190E09093DB038093DA0382E027
:1015C00090E09093DD038093DC0362E084E10E946D
:1015D0006A0262E085E10E946A028091D8030E945B
:1015E000D601182F8091DA030E94D601880F991F27
:1015F000812B8093DE031092DF031092E0031092A0
:10160000E1031092E2031092E3031092E4031092BC
:10161000E5031092E6031092E7031092E80310929C
:10162000E9031092EA031092BA031092B90362E040
:1016300087E30E946A021092BA031092B9031092D3
:10164000C7031092C8031092C9031092CA031092E4
:10165000CB031092CC031092CD031092CE0387E3FC
:101660008093BC0311E01093BB0388E893E190934F
:10167000BE038093BD03F092C003E092BF031092BB
:10168000C2031092C1031092C4031092C3031092BC
:10169000C6031092C5031092D0031092CF0310928C
:1016A000D2031092D1031092D4031092D30310925C
:1016B000D6031092D5031092D7031C821B8284E0BC
:1016C00090E09A83898390937D0380937C0387E0E5
:1016D00090E090937F0380937E0388E090E0909366
:1016E00081038093800361E084E00E946A0261E0EC
:1016F00080917E030E946A0261E0809180030E94D3
:101700006A02109282031093830310938403E1E62C
:10171000F2E029EA33E0819191918830910508F057
:101720005EC0875A9D4FDC018C91D9018D939D013C
:10173000B2E0E137FB0779F7109286031092850338
:101740001092880310928703DE011196E9E8F3E016
:1017500090E080E030E020E0F82E192F4D915D916F
:10176000141615060CF043C0BA01620F731F0196E0
:1017700069307105B4F13093860320938503F092AC
:1017800087031093880348E050E06FEF70E081EB2F
:1017900093E00E94391060E080917C030E94120265
:1017A00020E041E060917E03809180030E9440022E
:1017B00020E041E060917E03809180030E9440021E
:1017C00061E080917C030E9412020F900F900F90B5
:1017D0000F90DF91CF911F91FF90EF90089580E0DF
:1017E000A4CF318B208B419351939B01B5CF309384
:1017F0008603209385039093880380938703C3CF48
:10180000CF93DF931F921F92CDB7DEB7789484B544
:10181000826084BD84B5816084BD85B5826085BDEC
:1018200085B5816085BD80916E00816080936E007A
:10183000109281008091810082608093810080916C
:10184000810081608093810080918000816080931D
:1018500080008091B10084608093B1008091B000DD
:1018600081608093B00080919100826080939100AC
:1018700080919100816080939100809190008160BF
:10188000809390008091A10082608093A10080915C
:10189000A10081608093A1008091A000816080936D
:1018A000A00080912101826080932101809121011B
:1018B00081608093210180912001816080932001CB
:1018C00080917A00846080937A0080917A008260AF
:1018D00080937A0080917A00816080937A00809171
:1018E0007A00806880937A001092C10061E08BE3F7
:1018F0000E946A0260E08BE30E94120261E085E0D0
:101900000E946A0225E337E0309308022093070221
:1019100080916900837F846080936900E99A3093A5
:10192000060220930502809169008C7F816080937C
:101930006900E89A88EF95E09093D0038093CF03F5
:10194000E091EF02F091F00282E08083E091EB02FF
:10195000F091EC021082E091ED02F091EE028FEC3A
:1019600080831092F702E091F302F091F40286E096
:101970008083E091F102F091F202808180618083A6
:10198000E091F102F091F202808188608083E09121
:10199000F102F091F202808180688083E091F1028F
:1019A000F091F20280818F7D80838AE0882E912CD5
:1019B000A12CB12C9DE2392E8091B9039091BA03EC
:1019C0008130910509F456C040F0029709F4BDC07A
:1019D0001092BA031092B90331C08091C50390915F
:1019E000C603892BB9F00E94CB020091CB03109162
:1019F000CC032091CD033091CE03601B710B820B81
:101A0000930B683E73408105910520F01092C60348
:101A10001092C5030E94FF01882381F00E94CB022F
:101A20006093C7037093C8038093C9039093CA035C
:101A300081E090E09093BA038093B9034090E30370
:101A40005090E4036090E5037090E6032DB73EB735
:101A50003A832983A301920110E000E00F5F1F4F3A
:101A600057FFD3C050954095309521953F4F4F4F2C
:101A70005F4FF4CF0E94CB020091C7031091C803BF
:101A80002091C9033091CA03AB01BC01401B510B2B
:101A9000620B730B8091BF039091C003B0E0A0E094
:101AA000481759076A077B0748F20E94FF018823FD
:101AB00009F48ECF1092C4031092C3038091D70310
:101AC0008E7F86608093D7038091C5039091C60373
:101AD000892B51F40E94CB026093CB037093CC030B
:101AE0008093CD039093CE038091C1039091C20364
:101AF00001969093C2038093C1038091C503909196
:101B0000C60301969093C6038093C503E091CF036B
:101B1000F091D003309719F089EB93E019958091FB
:101B2000C5039091C603029748F0E091D503F09168
:101B3000D603309719F089EB93E01995E2E0F0E0D5
:101B4000F093BA03E093B90379CF0E94FF01882391
:101B500009F450C00E94CB020091C7031091C80342
:101B60002091C9033091CA03AB01BC01401B510B4A
:101B7000620B730B8091BD039091BE03B0E0A0E0B7
:101B8000481759076A077B0708F458CF0E94CB0211
:101B90000091C7031091C8032091C9033091CA0373
:101BA000DC01CB01801B910BA20BB30B2091C30373
:101BB0003091C403820F931F9093C4038093C30397
:101BC0000E94CB026093C7037093C8038093C9033C
:101BD0009093CA03E091D103F091D203309719F0AA
:101BE00089EB93E019958091D7038B7F8160809377
:101BF000D70324CFE091D303F091D403309709F4B5
:101C0000E7CE89EB93E01995E3CE2A303105410503
:101C100051053CF0CA01B901A50194010E941210BE
:101C20001DCF8DB79EB7801B910B0FB6F8949EBF4A
:101C30000FBE8DBFEDB7FEB731967F01212C77FE29
:101C40000AC07094609450944094411C511C611CD3
:101C5000711C222423946701C00ED11EC301B2015E
:101C6000A50194010E941210605DF60162936F015C
:101C700029013A01EE15FF0589F7222011F0F7013D
:101C800030828091890390918A03FC0131972DB7AE
:101C90003EB7281B390B0FB6F8943EBF0FBE2DBFC1
:101CA0004DB75EB74F5F5F4FBC01601B710BDA0130
:101CB0009D01241B350B261737071CF430E23D939A
:101CC000F7CF9B01E217F3077CF037FD0AC0D9017B
:101CD000A61BB70BAE0DBF1D1C91DA01A20FB31FDF
:101CE0001C932F5F3F4FEECFEDB7FEB7E81BF90B0C
:101CF0000FB6F894FEBF0FBEEDBF2DB73EB72F5FF6
:101D00003F4FBA01D901FB01E41BF50BE817F907B6
:101D10005CF5FB011191BF01F0EDF10FFA3048F4D1
:101D2000E12F110FFF0BE35FFD4FE081EC93119664
:101D3000EACFFFE9F10FFA3130F4E12F110FFF0B79
:101D4000EE53FE4FF2CFFFEBF10FFA3130F4E12FFB
:101D5000110FFF0BEE51FE4FE8CF1D3219F4F2E0E8
:101D6000FC93E5CF1C92E3CF60918203E09199034D
:101D7000F0919A03EF54FC4FD901AD01421B530B74
:101D80004817590734F44D91611101C040954193B2
:101D9000F4CF29813A810FB6F8943EBF0FBE2DBF14
:101DA00080918303882309F44AC00CE713E0209153
:101DB000850330918603C8018C579340821793079F
:101DC0000CF05EC060E080917C030E941202809162
:101DD0008403F801811128C025A540E060917E03AD
:101DE000809180030E944002F80125A940E06091A3
:101DF0007E03809180030E94400261E080917C0319
:101E00000E9412020E94A6026B017C010E94A6029F
:101E10006C197D098E099F09683E73408105910503
:101E2000A8F30F5F1F4FC3CF25A940E060917E0349
:101E3000809180030E944002F80125A5D7CF60E081
:101E400080917C030E941202009185031091860309
:101E500004581C4F01501109C8018C57934097FD3D
:101E60000AC0F80125A940E060917E0380918003BB
:101E70000E944002EFCF61E080917C030E94120239
:101E80008091D4029091D502092E000CAA0BBB0BB5
:101E90004091E3035091E4036091E5037091E60300
:101EA00084179507A607B707B9F14091E30350914E
:101EB000E4036091E5037091E60384179507A60794
:101EC000B7070CF069C084E792E00E94C9078091CF
:101ED000E3039091E403A091E503B091E6039093AE
:101EE000D5028093D4026091E3037091E403809162
:101EF000E5039091E603A50194010E941210672B5F
:101F0000682B692B49F424E630E040E050E068EBB0
:101F100071E085E00E94D8020E94CB026B017C0137
:101F2000C092D002D092D102E092D202F092D302BB
:101F30008091CC029091CD02A091CE02B091CF02BF
:101F400088519C4FAF4FBF4FC816D906EA06FB0613
:101F500000F18091110290911202C296843FF1E04B
:101F60009F07ECF49093120280931102609111028A
:101F70007091120224E630E040E050E085E00E94DB
:101F8000D802C092CC02D092CD02E092CE02F09262
:101F9000CF020E94040710CD8DE892E096CF24E690
:101FA00030E03093120220931102E0CF0E94E10F43
:101FB000A59F900DB49F900DA49F800D911D11249D
:101FC0000895A29FB001B39FC001A39F700D811D12
:101FD0001124911DB29F700D811D1124911D089532
:101FE000A1E21A2EAA1BBB1BFD010DC0AA1FBB1F1D
:101FF000EE1FFF1FA217B307E407F50720F0A21B8F
:10200000B30BE40BF50B661F771F881F991F1A94FB
:1020100069F760957095809590959B01AC01BD0125
:10202000CF010895052E97FB1EF400940E942910FD
:1020300057FD07D00E94F00F07FC03D04EF40C941C
:10204000291050954095309521953F4F4F4F5F4F48
:10205000089590958095709561957F4F8F4F9F4F14
:102060000895EE0FFF1F881F8BBF0790F691E02D9C
:102070001994DC0101C06D9341505040E0F7089580
:10208000F894FFCFFFD702D702D702D702D702D7E3
:1020900002D702D702640000FF0100010000FFFF29
:1020A0000000010001FF00EE3E9C7A9E8EBC6E0C8B
:1020B00078AE1CEC2A3ACEE68CB61E387C7E6C7666
:1020C000DAFC60DAF266B6BEE0FEE60000000097D9
:1020D0000601062E06E4065F063D065106804020F6
:1020E00010080402010000010002000300040005C2
:1020F00000060007000D0A004769726F206E6F200E
:1021000073656E7469646F20686F726172696F2E97
:10211000004769726F206E6F2073656E7469646F1B
:1021200020616E74692D686F726172696F2E000094
:020000040003F7
:10E000000D9489F10D94B2F10D94B2F10D94B2F129
:10E010000D94B2F10D94B2F10D94B2F10D94B2F1F0
:10E020000D94B2F10D94B2F10D94B2F10D94B2F1E0
:10E030000D94B2F10D94B2F10D94B2F10D94B2F1D0
:10E040000D94B2F10D94B2F10D94B2F10D94B2F1C0
:10E050000D94B2F10D94B2F10D94B2F10D94B2F1B0
:10E060000D94B2F10D94B2F10D94B2F10D94B2F1A0
:10E070000D94B2F10D94B2F10D94B2F10D94B2F190
:10E080000D94B2F10D94B2F10D94B2F10D94B2F180
:10E090000D94B2F10D94B2F10D94B2F10D94B2F170
:10E0A0000D94B2F10D94B2F10D94B2F10D94B2F160
:10E0B0000D94B2F10D94B2F10D94B2F10D94B2F150
:10E0C0000D94B2F10D94B2F10D94B2F10D94B2F140
:10E0D0000D94B2F10D94B2F10D94B2F10D94B2F130
:10E0E0000D94B2F141546D656761323536300041AF
:10E0F000726475696E6F206578706C6F72657220DE
:10E1000073746B3530305632206279204D4C530099
:10E11000426F6F746C6F616465723E004875683F52
:10E1200000436F6D70696C6564206F6E203D200048
:10E130004350552054797065202020203D20005FF9
:10E140005F4156525F415243485F5F3D2000415658
:10E1500052204C696243205665723D20004743437C
:10E160002056657273696F6E203D20004350552024
:10E1700049442020202020203D20004C6F7720663D
:10E18000757365202020203D20004869676820665F
:10E190007573652020203D200045787420667573D6
:10E1A00065202020203D20004C6F636B2066757336
:10E1B000652020203D20004D617220203720323024
:10E1C000313300312E362E3800342E332E350056A2
:10E1D00023202020414444522020206F7020636F70
:10E1E00064652020202020696E73747275637469E1
:10E1F0006F6E2061646472202020496E74657272B3
:10E20000757074006E6F20766563746F7200726A49
:10E210006D702020006A6D70200057686174207056
:10E220006F72743A00506F7274206E6F7420737541
:10E2300070706F72746564004D7573742062652030
:10E2400061206C6574746572002000577269747483
:10E25000696E672045450052656164696E672045B7
:10E26000450045452065727220636E743D00504F35
:10E27000525400303D5A65726F2061646472003FF1
:10E280003D43505520737461747300403D454550C3
:10E29000524F4D207465737400423D426C696E6B41
:10E2A000204C454400453D44756D70204545505215
:10E2B0004F4D00463D44756D7020464C415348001B
:10E2C000483D48656C70004C3D4C69737420492F83
:10E2D0004F20506F72747300513D51756974005234
:10E2E0003D44756D702052414D00563D73686F7707
:10E2F00020696E7465727275707420566563746FF0
:10E30000727300593D506F727420626C696E6B00BD
:10E310002A0011241FBECFEFD1E2DEBFCDBF01E046
:10E320000CBF12E0A0E0B2E0EEE1FDEF03E00BBFB6
:10E3300002C007900D92A030B107D9F712E0A0E01B
:10E34000B2E001C01D92AE30B107E1F70F9460F367
:10E350000D948DFE01E20EBF0FEF0DBF11241FBE05
:10E360000D9460F30D9400F020E030E040ED57E0B4
:10E3700005C0FA013197F1F72F5F3F4F2817390792
:10E38000C0F308959C01260F311DC901A0E0B0E043
:10E390002F5F3F4FABBFFC018791882361F08093D3
:10E3A000C6008091C00086FFFCCF8091C0008064D1
:10E3B0008093C000EACF08958DE08093C6008091DD
:10E3C000C00086FFFCCF8091C00080648093C000B5
:10E3D0008AE08093C6008091C00086FFFCCF8091C8
:10E3E000C00080648093C00008950F94C2F10F9420
:10E3F000DCF10895FC019081992359F09093C600B7
:10E400008091C00086FFFCCF8091C0008064809323
:10E41000C0003196992379F70895282F982F929567
:10E420009F70892F805D8A3308F0895F8093C600D2
:10E430008091C00086FFFCCF8091C00080648093F3
:10E44000C000822F8F70982F905D9A3308F0995FEB
:10E450009093C6008091C00086FFFCCF8091C000E1
:10E4600080648093C00008959C01FB01853691056E
:10E470001CF46330710594F0C90164E670E00F94F8
:10E480002EFE605D7F4F6093C6008091C00086FFC6
:10E49000FCCF8091C00080648093C0002B30310598
:10E4A00014F43297B4F0C90164E670E00F942EFEC4
:10E4B0006AE070E00F942EFE605D7F4F6093C600AF
:10E4C0008091C00086FFFCCF8091C0008064809363
:10E4D000C000C9016AE070E00F942EFEC0968093E0
:10E4E000C6008091C00086FFFCCF8091C000806490
:10E4F0008093C00008951F93182F8EE692EE60E07F
:10E500000F94C2F11093C6008091C00086FFFCCF2B
:10E510008091C00080648093C0000F94DCF11F9153
:10E5200008952F923F924F925F926F927F928F92B7
:10E530009F92AF92BF92CF92DF92EF92FF920F9392
:10E540001F93DF93CF93CDB7DEB762970FB6F894E2
:10E55000DEBF0FBECDBF382E622ECA01DB015C01CB
:10E560006D01772420E2222E2E010894411C511CBB
:10E570008BC081E0A81680E0B80681E0C80680E084
:10E58000D80628F0C601AA27BB270F940DF2BB2797
:10E59000AD2D9C2D8B2D0F940DF28A2D0F940DF225
:10E5A0002092C6008091C00086FFFCCF8091C00001
:10E5B00080648093C0009DE29093C6008091C0006B
:10E5C00086FFFCCF8091C00080648093C0002092C1
:10E5D000C6008091C00086FFFCCF8091C00080649F
:10E5E0008093C00019828601750188249924A1E0D6
:10E5F0003A1651F03A1620F0B2E03B1661F409C029
:10E600000BBFF701779007C0C7010F9477FE782EF4
:10E6100002C0F7017080872D0F940DF22092C60082
:10E620008091C00086FFFCCF8091C0008064809301
:10E63000C000872D8052F401EF70F0708F3520F408
:10E64000E40DF51D708204C0E40DF51D8EE280839B
:10E650000894E11CF11C011D111D0894811C911CE2
:10E6600090E18916910409F0C2CF80E190E0A0E02A
:10E67000B0E0A80EB91ECA1EDB1E198AC2010F9493
:10E68000FAF10F94DCF16A94662009F072CF629679
:10E690000FB6F894DEBF0FBECDBFCF91DF911F91B3
:10E6A0000F91FF90EF90DF90CF90BF90AF909F9031
:10E6B0008F907F906F905F904F903F902F90089534
:10E6C0002F923F924F925F926F927F928F929F9282
:10E6D000AF92BF92CF92DF92EF92FF920F931F9370
:10E6E000DF93CF93CDB7DEB7CD53D1400FB6F894BB
:10E6F000DEBF0FBECDBF01E20EBF0FEF0DBF94B75F
:10E70000F894A89514BE80916000886180936000A1
:10E7100010926000789493FF05C0E0910002F091A0
:10E7200001021995279A2F9A8091C00082608093E8
:10E73000C00080E18093C40088E18093C1000000A4
:10E74000EE24FF24870144E0A42EB12CCC24DD2448
:10E7500024C0C5010197F1F70894E11CF11C011DCB
:10E76000111D21E2E2162EE4F20620E0020720E06D
:10E77000120718F031E0C32ED12CC801B70127ECE5
:10E780003BE140E050E00F9441FE611571058105C9
:10E79000910519F485B1805885B98091C00087FD35
:10E7A00003C0C114D104A9F2A6014F5F5F4FC25E3E
:10E7B000DE4F59834883CE51D140C25EDE4F8881FF
:10E7C0009981CE51D140019711F00D9410FEC05D9A
:10E7D000DE4F19821882C053D14060E0C15DDE4F28
:10E7E0001882CF52D14088249924C35DDE4F19820C
:10E7F0001882CD52D140C05EDE4F188219821A8233
:10E800001B82C052D140CE5CDE4F188219821A8220
:10E810001B82C253D140EE24FF2487010BBFF701B6
:10E8200007911691C45CDE4F19830883CC53D14005
:10E830000D940BFEC25EDE4F28813981CE51D1404E
:10E840002130310509F52091C600C25EDE4F1982E4
:10E850001882CE51D14022C02F5F3F4F4F4F5F4FA4
:10E86000213082E138078AE7480780E0580780F0C6
:10E87000C45CDE4FE881F981CC53D140EF5FFF4F9C
:10E8800019F0EE27FF27099420E030E040E050E047
:10E890008091C00087FFE0CF2091C600C35DDE4FAE
:10E8A00048815981CD52D1404F5F5F4FC35DDE4FEC
:10E8B00059834883CD52D140213209F063C64A3092
:10E8C000510508F05FC60894811C911C53E0851621
:10E8D000910409F059C600E010E018C081E280936D
:10E8E000C6008091C00086FFFCCF8091C00080648C
:10E8F0008093C0002F5F3F4F2931310579F70F9486
:10E90000DCF10F5F1F4F0530110519F020E030E0FA
:10E91000E5CF10920A0210920B0210920C02109294
:10E920000D02109206021092070210920802109235
:10E930000902109202021092030210920402109235
:10E9400005028FEE90EE60E00F94F5F180E191EE1C
:10E9500060E00F94C2F18091C00087FFFCCF9091DE
:10E96000C600903608F09F759032B8F09093C600BC
:10E970008091C00086FFFCCF8091C00080648093AE
:10E98000C000A0E2A093C6008091C00086FFFCCF2B
:10E990008091C00080648093C000983409F4D7C18E
:10E9A0009934B8F4923409F459C1933458F490333B
:10E9B00019F1903308F4E3C59F33A1F1903409F0C5
:10E9C000DEC5BDC0953409F470C1963409F0D7C5D1
:10E9D00098C1923509F42BC2933538F49C3409F46C
:10E9E000F5C1913509F0CBC518C2963509F445C279
:10E9F000993509F0C4C567C483E792EE62E00F94CD
:10EA0000F5F110920602109207021092080210927D
:10EA1000090210920A0210920B0210920C0210923C
:10EA20000D0213C18FE792EE62E00F94F5F18FEEC5
:10EA300090EE60E00F94F5F181E291EE60E00F94CA
:10EA4000C2F187EB91EE60E00F94F5F180E391EE77
:10EA500060E00F94C2F184EE90EE60E00F94F5F167
:10EA60008FE391EE60E00F94C2F186E090E061E008
:10EA700070E00F9434F20F94DCF18DE591EE60E0DC
:10EA80000F94C2F189EC91EE60E00F94F5F18EE401
:10EA900091EE60E00F94C2F183EC91EE60E00F9490
:10EAA000F5F18CE691EE60E00F94C2F18EE10F94E7
:10EAB0000DF288E90F940DF281E00F940DF20F949E
:10EAC000DCF18BE791EE60E00F94C2F119E0E0E039
:10EAD000F0E010935700E4918E2F0F940DF20F94F5
:10EAE000DCF18AE891EE60E00F94C2F1E3E0F0E03F
:10EAF00010935700E4918E2F0F940DF20F94DCF1D8
:10EB000089E991EE60E00F94C2F1E2E0F0E0109349
:10EB10005700E4918E2F0F940DF20F94DCF188EAE8
:10EB200091EE60E00F94C2F1E1E0F0E01093570045
:10EB30001491812F0F940DF20F94DCF107CF8BE825
:10EB400092EE62E00F94F5F18BE492EE60E00F94A8
:10EB5000F5F10F94DCF100E010E019C0C8016F2D51
:10EB60000F947FFEFF2031F489E492EE60E00F9471
:10EB7000C2F10BC0F092C6008091C00086FFFCCFAE
:10EB80008091C00080648093C0000F5F1F4FC80158
:10EB900081519F41A0E0B0E0ABBFFC01F790BAE229
:10EBA000FB1621F0E2E000301E07C1F60F94DCF105
:10EBB0000F94DCF187E592EE60E00F94F5F10F948D
:10EBC000DCF1CC24DD2400E010E01EC0C8010F946D
:10EBD00077FEF82E882331F489E492EE60E00F94FA
:10EBE000C2F10BC08093C6008091C00086FFFCCFAD
:10EBF0008091C00080648093C000FE1419F00894D6
:10EC0000C11CD11C0F5F1F4FC80181519F41A0E063
:10EC1000B0E0ABBFFC01E790FAE2EF1621F022E092
:10EC20000030120799F60F94DCF10F94DCF182E6C4
:10EC300092EE60E00F94C2F1C60161E070E00F94C3
:10EC400034F20F94DCF10F94DCF110920202109276
:10EC50000302109204021092050278CE89E992EE26
:10EC600062E00F94F5F1279A2F9A16C02F9880E052
:10EC700090E0E0EDF7E03197F1F7019684369105E9
:10EC8000C1F72F9A80E090E0E0EDF7E03197F1F7DF
:10EC9000019684369105C1F78091C00087FFE6CFC9
:10ECA0008091C00087FFFCCF64C485EA92EE62E0E9
:10ECB0000F94F5F140910202509103026091040219
:10ECC0007091050281E020E10F9491F2809102029F
:10ECD00090910302A0910402B091050280509F4FD1
:10ECE000AF4FBF4F8093020290930302A0930402A0
:10ECF000B093050280509041A040B04008F426CE69
:10ED0000A4CF83EB92EE62E00F94F5F140910602FE
:10ED100050910702609108027091090280E020E1A1
:10ED20000F9491F28091060290910702A09108023F
:10ED3000B091090280509F4FAF4FBF4F80930602A2
:10ED400090930702A0930802B0930902FFCD80ECD4
:10ED500092EE62E00F94F5F183E792EE60E00F949B
:10ED6000F5F18FE792EE60E00F94F5F18BE892EE0B
:10ED700060E00F94F5F189E992EE60E00F94F5F10F
:10ED800085EA92EE60E00F94F5F183EB92EE60E09D
:10ED90000F94F5F180EC92EE60E00F94F5F187ECC2
:10EDA00092EE60E00F94F5F188ED92EE60E00F9442
:10EDB000F5F18FED92EE60E00F94F5F18AEE92EEB0
:10EDC00060E00F94F5F183E093EEBDCD87EC92EE19
:10EDD00062E00F94F5F181E40F947BF282E40F94EA
:10EDE0007BF283E40F947BF284E40F947BF285E45E
:10EDF0000F947BF286E40F947BF287E40F947BF20E
:10EE000088E40F947BF28AE40F947BF28BE40F94F6
:10EE10007BF28CE40F947BF299CD88ED92EE62E068
:10EE20000F94F5F1772473948824992409C48FED05
:10EE300092EE62E00F94F5F140910A0250910B02BC
:10EE400060910C0270910D0282E020E10F9491F22A
:10EE500080910A0290910B02A0910C02B0910D02D8
:10EE600080509F4FAF4FBF4F80930A0290930B0289
:10EE7000A0930C02B0930D0269CD8AEE92EE62E08F
:10EE80000F94F5F184EE90EE60E00F94F5F18FECC5
:10EE900091EE60E00F94F5F1662477244301CC5D98
:10EEA000DE4F19821882C452D140D401C301B695F5
:10EEB000A79597958795CA5DDE4F88839983AA8326
:10EEC000BB83C652D140CC5DDE4FA881B981C4520C
:10EED000D1401196CC5DDE4FB983A883C452D14096
:10EEE000CD0162E070E00F9434F2B0E2B093C6005E
:10EEF0008091C00086FFFCCF8091C0008064809329
:10EF0000C000EDE2E093C6008091C00086FFFCCF18
:10EF10008091C00080648093C000F0E2F093C6004E
:10EF20008091C00086FFFCCF8091C00080648093F8
:10EF3000C000CA5DDE4FE880F9800A811B81C6529D
:10EF4000D140BB27A12F902F8F2D0F940DF2CA5DBA
:10EF5000DE4F8881C652D1400F940DF2B0E2FB2EF5
:10EF6000F092C6008091C00086FFFCCF8091C00067
:10EF700080648093C0000DE30093C6008091C000C0
:10EF800086FFFCCF8091C00080648093C00010E2B7
:10EF90001093C6008091C00086FFFCCF8091C00016
:10EFA00080648093C0008BBEF3012791C65DDE4F65
:10EFB0002883CA52D140A22EBB24CC24DD2408943D
:10EFC000611C711C811C911C8BBEF3018791282E42
:10EFD0003324442455240894611C711C811C911C09
:10EFE0008BBEF3013791C55DDE4F3883CB52D140E4
:10EFF0000894611C711C811C911C8BBEF30147910C
:10F00000C45DDE4F4883CC52D140ADEFEA2EAFEF66
:10F01000FA2EAFEF0A2FAFEF1A2F6E0C7F1C801E57
:10F02000911E142D032DF22CEE24EA0CFB1C0C1D5A
:10F030001D1D0F940DF220E22093C6008091C000A8
:10F0400086FFFCCF8091C00080648093C000C65DC5
:10F05000DE4F8881CA52D1400F940DF230E23093D6
:10F06000C6008091C00086FFFCCF8091C000806404
:10F070008093C000C45DDE4F8881CC52D1400F9494
:10F080000DF240E24093C6008091C00086FFFCCFA5
:10F090008091C00080648093C000C55DDE4F888190
:10F0A000CB52D1400F940DF250E25093C6008091A4
:10F0B000C00086FFFCCF8091C00080648093C000B8
:10F0C0008FEFE8168FEFF80680E0080780E018075A
:10F0D00031F484E092EE60E00F94C2F1DFC0D80119
:10F0E000C7018070907CA070B0708050904CA040A0
:10F0F000B040D1F52FEF3FE340E050E0E222F322B1
:10F1000004231523CA5DDE4FA880B980CA80DB8046
:10F11000C652D140AE0CBF1CC01ED11EAA0CBB1CD7
:10F12000CC1CDD1C8EE092EE60E00F94C2F1BB2798
:10F13000A12F902F8F2D0F940DF28E2D0F940DF285
:10F1400030E23093C6008091C00086FFFCCF8091F2
:10F15000C00080648093C0004EE34093C60080915D
:10F16000C00086FFFCCF87C08EE09EEFA0E0B0E03D
:10F17000E822F9220A231B239CE0E91694E9F90608
:10F1800090E0090790E0190709F088C0C45DDE4FE0
:10F19000A881CC52D140EA2EFF2400E010E0102FCD
:10F1A0000F2DFE2CEE24C55DDE4FB881CB52D14031
:10F1B000EB0EF11C011D111DD601C501817090706F
:10F1C000A070B070DC0199278827E80EF91E0A1F8D
:10F1D0001B1F20EF30E040E050E0A222B322C42207
:10F1E000D52241E1AA0CBB1CCC1CDD1C4A95D1F7F1
:10F1F000EA0CFB1C0C1D1D1D81E090E0A0E0B0E0BE
:10F20000282239224A225B2235E1220C331C441C7D
:10F21000551C3A95D1F7E20CF31C041D151D57013E
:10F220006801AA0CBB1CCC1CDD1C85E192EE60E0E1
:10F230000F94C2F1C801AA27BB270F940DF2BB2778
:10F24000A12F902F8F2D0F940DF28E2D0F940DF274
:10F2500090E29093C6008091C00086FFFCCF809121
:10F26000C00080648093C000AEE3A093C60080918C
:10F27000C00086FFFCCF8091C00080648093C000F6
:10F28000C601AA27BB270F940DF2BB27AD2D9C2DDD
:10F290008B2D0F940DF28A2D0F940DF20F94DCF14B
:10F2A000CC5DDE4FE881F981C452D140F99709F471
:10F2B0004DCBF4E0EF2EF12C012D112D6E0C7F1CA7
:10F2C000801E911EF2CD83E093EE62E00F94F5F183
:10F2D0008AE192EE60E00F94C2F18091C00087FF56
:10F2E000FCCF1091C6001F751093C6008091C0001E
:10F2F00086FFFCCF8091C00080648093C0000F9493
:10F30000DCF1812F81548A3108F036C1163409F4BA
:10F3100095C0173490F4133409F44EC0143430F40B
:10F320001134F1F0123409F01DC130C0143409F465
:10F3300059C0153409F016C16BC01A3409F4C4C0A1
:10F340001B3438F4173409F48FC0183409F00AC19B
:10F35000A1C01B3409F4D2C01C3409F003C1E8C0B9
:10F360008FEF81B90DC082B1809582B980E090E0C5
:10F37000E0EDF7E03197F1F70196883C9105C1F790
:10F380008091C00087FFEFCF12B8EFC08FEF84B934
:10F390000DC085B1809585B980E090E0E0EDF7E0A3
:10F3A0003197F1F70196883C9105C1F78091C00033
:10F3B00087FFEFCF15B8D9C08FEF87B90DC088B1DF
:10F3C000809588B980E090E0E0EDF7E03197F1F7C3
:10F3D0000196883C9105C1F78091C00087FFEFCF6F
:10F3E00018B8C3C08FEF8AB90DC08BB180958BB9A7
:10F3F00080E090E0E0EDF7E03197F1F70196883C8E
:10F400009105C1F78091C00087FFEFCF1BB8ADC059
:10F410008FEF8DB90DC08EB180958EB980E090E0F0
:10F42000E0EDF7E03197F1F70196883C9105C1F7DF
:10F430008091C00087FFEFCF1EB897C08FEF80BBD1
:10F440000DC081B3809581BB80E090E0E0EDF7E0F6
:10F450003197F1F70196883C9105C1F78091C00082
:10F4600087FFEFCF11BA81C08FEF83BB0DC084B38C
:10F47000809584BB80E090E0E0EDF7E03197F1F714
:10F480000196883C9105C1F78091C00087FFEFCFBE
:10F4900014BA6BC08FEF809301010FC080910201FD
:10F4A00080958093020180E090E0E0EDF7E03197F5
:10F4B000F1F70196883C9105C1F78091C00087FF64
:10F4C000EDCF1092020151C08FEF809304010FC065
:10F4D0008091050180958093050180E090E0E0ED4A
:10F4E000F7E03197F1F70196883C9105C1F78091DB
:10F4F000C00087FFEDCF1092050137C08FEF8093DA
:10F5000007010FC08091080180958093080180E079
:10F5100090E0E0EDF7E03197F1F70196883C910536
:10F52000C1F78091C00087FFEDCF109208011DC088
:10F530008FEF80930A010FC080910B01809580931B
:10F540000B0180E090E0E0EDF7E03197F1F70196F4
:10F55000883C9105C1F78091C00087FFEDCF1092E4
:10F560000B0103C085E292EEEEC98091C00087FFD7
:10F57000FCCF8091C600EAC988E392EEE4C98CE131
:10F5800091EEE1C988249924933011F1943028F444
:10F59000913089F09230B8F408C0953061F195301F
:10F5A000F0F0963009F048C043C02B3109F042C951
:10F5B00091E06BE13FC96227C15DDE4F2883CF52E6
:10F5C000D14092E037C9B22FA0E0622793E032C960
:10F5D000822F90E0A82BB92B622794E02BC92E3004
:10F5E00009F039C3622795E0C05DDE4F19821882A9
:10F5F000C053D1401FC9E1E0F0E0EC0FFD1FC05D3A
:10F60000DE4F08811981C053D140E00FF11F2083E4
:10F610000F5F1F4FC05DDE4F19830883C053D14079
:10F6200062270A171B0709F005C9D80196E002C92D
:10F63000261709F010C303C0973009F0FBC87724E0
:10F640009981933109F412C19431C8F4963009F4C8
:10F65000D8C0973050F4923009F406C1933009F4C1
:10F660006DC0913009F059C253C0913109F477C08F
:10F67000923108F0BBC0903109F04FC2F5C098310B
:10F6800009F487C0993150F4953109F4EFC09531F0
:10F6900008F4C6C1963109F040C2C2C19A3109F4DA
:10F6A0006CC09A3108F491C09B3109F45BC09D3164
:10F6B00009F033C29D81903359F48F81882311F46E
:10F6C0009EE11CC0813011F091E018C098E916C08D
:10F6D000892F807591F0903539F4E0E0F0E089E011
:10F6E0008093570094910AC0983539F4E3E0F0E034
:10F6F00089E080935700949101C090E01A821B82A8
:10F700008D818C831D829E831F8227E030E009C299
:10F710001A8288E08B8381E48C8386E58D8382E581
:10F720008E8389E48F8383E5888780E589878FE5E9
:10F730008A8782E38B872BE030E0F3C18A818139AD
:10F7400041F0823941F0803911F48FE005C080E04A
:10F7500003C082E001C08AE01A828B8344C0772410
:10F76000739482C08D81882311F48EE12CC0813086
:10F7700011F081E028C088E926C01A82E1E0F0E0BB
:10F7800089E08093570084918B831C8224E030E0D1
:10F79000C8C18B81803589F48C81883039F4E2E0EE
:10F7A000F0E089E08093570084910DC0E0E0F0E044
:10F7B00089E080935700849106C0E3E0F0E089E09F
:10F7C0008093570084911A82DFCF8D81836C99E0FA
:10F7D000E1E0F0E0082E90935700E89507B600FCB2
:10F7E000FDCF1A821B8223E030E09BC180EC8A832C
:10F7F000CE5CDE4F188219821A821B82C253D1401E
:10F800008EC18A8190E0A0E0B0E0582F44273327D2
:10F8100022278B8190E0A0E0B0E0DC0199278827C7
:10F82000282B392B4A2B5B2B8D8190E0A0E0B0E098
:10F83000282B392B4A2B5B2B8C8190E0A0E0B0E089
:10F84000BA2FA92F982F8827282B392B4A2B5B2BCF
:10F85000220F331F441F551FC05EDE4F288339839C
:10F860004A835B83C052D1401A8259C13A81C95C34
:10F87000DE4F3883C753D140CA5CDE4F1882C6536F
:10F88000D1408B81C82EDD24CA5CDE4F488159816E
:10F89000C653D140C42AD52A933109F082C0CE5C28
:10F8A000DE4F88819981AA81BB81C253D1408050AB
:10F8B000904CA340B04030F583E0CE5CDE4FE88052
:10F8C000F9800A811B81C253D140F70100935B008C
:10F8D00080935700E89507B600FCFDCFCE5CDE4F65
:10F8E000088119812A813B81C253D14000501F4FAA
:10F8F0002F4F3F4FCE5CDE4F088319832A833B8313
:10F90000C253D140C05EDE4F488159816A817B81FC
:10F91000C052D140DE011B9631E08C9111962C91A2
:10F9200011971296C75CDE4F2883C953D140C85C3B
:10F93000DE4F1882C853D14090E0C85CDE4FE881AA
:10F94000F981C853D1408E2B9F2B0C01FA01609393
:10F950005B0030935700E89511244E5F5F4F6F4F67
:10F960007F4F0EEFE02E0FEFF02ECE0CDF1CC114F8
:10F97000D10499F685E0C05EDE4F088119812A81A5
:10F980003B81C052D140F80120935B008093570027
:10F99000E89507B600FCFDCF81E180935700E8951C
:10F9A00035C0C05EDE4F88819981AA81BB81C0527B
:10F9B000D140B695A795979587957C018601ABE0D8
:10F9C000AA2EB12CAC0EBD1E0BC0D5016D915D01F0
:10F9D000C7010F947FFE0894E11CF11C01501040F8
:10F9E0000115110591F7A60160E070E0440F551F65
:10F9F000661F771FC05EDE4FE880F9800A811B8199
:10FA0000C052D1404E0D5F1D601F711F1A82C05E33
:10FA1000DE4F488359836A837B83C052D1407FC0C5
:10FA2000FA80C55CDE4FF882CB53D140C65CDE4F16
:10FA30001882CA53D1408B81C82EDD24C65CDE4FAC
:10FA400008811981CA53D140C02AD12A1A828981DA
:10FA5000BE016D5F7F4F843121F59601C05EDE4FA0
:10FA6000E880F9800A811B81C052D1400BBFF701A9
:10FA700087919691DB018C9311969C936E5F7F4FDB
:10FA8000D801C7010296A11DB11DC05EDE4F88835B
:10FA90009983AA83BB83C052D14022503040F1F6F3
:10FAA00036C0C05EDE4F288139814A815B81C052F9
:10FAB000D1400894C108D108760100E010E0089414
:10FAC000C11CD11C0894E11CF11C011D111DE20E8A
:10FAD000F31E041F151F21BDBB27A52F942F832FB5
:10FAE00082BD2F5F3F4F4F4F5F4FF89A80B5DB01CC
:10FAF0008D93BD012E153F054007510761F7C05E8C
:10FB0000DE4F288339834A835B83C052D1409601FC
:10FB10002D5F3F4FFB01108204C080EC8A8322E0FE
:10FB200030E08BE18093C6008091C00086FFFCCF5F
:10FB30008091C00080648093C000C15DDE4FF88179
:10FB4000CF52D140F093C6008091C00086FFFCCF19
:10FB50008091C00080648093C000432F3093C60022
:10FB60008091C00086FFFCCF8091C00080648093AC
:10FB7000C000922F2093C6008091C00086FFFCCF6A
:10FB80008091C00080648093C0008EE08093C600A6
:10FB90008091C00086FFFCCF8091C000806480937C
:10FBA000C00065E1C15DDE4FE880CF52D1406E25D7
:10FBB00069276427FE01319610C090819093C6009A
:10FBC0008091C00086FFFCCF31968091C000806498
:10FBD0008093C0006927215030402115310569F715
:10FBE0006093C6008091C00086FFFCCF8091C0006A
:10FBF00080648093C00085B1805885B9772081F4F6
:10FC0000C15DDE4F0881CF52D1400F5FC15DDE4F35
:10FC10000883CF52D14090E0A0E0B0E00D941AF4F8
:10FC200027982F9880E090E020ED37E0F901319798
:10FC3000F1F7019684369105C9F700008091C00064
:10FC40008D7F8093C00081E180935700E895EE2777
:10FC5000FF270994FFCF90E00D941AF497FB092E2B
:10FC600007260AD077FD04D02ED006D000201AF443
:10FC7000709561957F4F0895F6F7909581959F4F08
:10FC80000895A1E21A2EAA1BBB1BFD010DC0AA1FDD
:10FC9000BB1FEE1FFF1FA217B307E407F50720F0F5
:10FCA000A21BB30BE40BF50B661F771F881F991F70
:10FCB0001A9469F760957095809590959B01AC01B9
:10FCC000BD01CF010895AA1BBB1B51E107C0AA1FAC
:10FCD000BB1FA617B70710F0A61BB70B881F991FED
:10FCE0005A95A9F780959095BC01CD010895F99991
:10FCF000FECF92BD81BDF89A992780B50895262F31
:10FD0000F999FECF1FBA92BD81BD20BD0FB6F89400
:0EFD1000FA9AF99A0FBE01960895F894FFCF63
:00000001FF
