:100000000C9439010C946A010C946A010C946A01F5
:100010000C946A010C946A010C946A010C946A01B4
:100020000C946A010C946A010C946A010C946A01A4
:100030000C946A010C946A010C946A010C946A0194
:100040000C946A010C946A010C946A010C946A0184
:100050000C946A010C946A010C946A010C944C058E
:100060000C946A010C94C0050C9496050C946A01DA
:100070000C946A010C946A010C946A010C946A0154
:100080000C946A010C946A010C946A010C946A0144
:100090000C946A010C946A010C946A010C946A0134
:1000A0000C946A010C946A010C946A010C946A0124
:1000B0000C946A010C946A010C946A010C946A0114
:1000C0000C946A010C946A010C946A010C946A0104
:1000D0000C946A010C946A010C946A010C946A01F4
:1000E0000C946A010C94C1010C94D0020C94B303DB
:1000F0000C94B7010C948A010C949C010C94AF01F0
:100100000C9420030C9494010C94F6050C94FD02BD
:100110000C949F010C940C030C941F050C94C501C6
:100120000C94B3010C94CA010C9498020C946603CD
:100130000C942E030C94BD010C94A5010C94CB01DE
:100140000C94A9010C9498010C94CF010C9490018B
:10015000000020002300260029002C002F00320080
:100160000001000003010601090100002100240034
:1001700027002A002D003000330001010000040197
:1001800007010A0100002200250028002B002E0094
:100190003100340002010000050108010B010505D2
:1001A0000505070508080808020202020A0A0808ED
:1001B000040404040101010101010101030303031B
:1001C00003030303040707070C0C0C0C0C0C0C0CAA
:1001D0000202020206060606060606060B0B0B0BBB
:1001E0000B0B0B0B010210202008081020401020E0
:1001F00040800201020108040201010204081020EB
:1002000040808040201008040201800402018040E8
:100210002010080402010804020101020408102051
:100220004080010204081020408000000A0B0209EF
:100230000C0D0E0807030401000000000000000080
:1002400000000000000000000000000000000000AE
:10025000000000000000121110000000000000006B
:10026000000000000000000000000000000000008E
:10027000F60511241FBECFEFD1E2DEBFCDBF00E0F7
:100280000CBF23E0A0ECB2E001C01D92A53FB20775
:10029000E1F712E0A0E0B2E0E0EAF4E100E00BBF39
:1002A00002C007900D92A03CB107D9F711E0C9E355
:1002B000D1E000E006C021970109802FFE010E94D5
:1002C0001D0AC833D10780E00807A9F70E947F07FD
:1002D0000C944E0A0C9400008150823108F05AC0F0
:1002E000E82FF0E08827E858FE4F8F4F0C941D0A46
:1002F00098019C018A0190019401CA019F01A50106
:10030000A901AF01B301B701BD01C101CA01C50116
:10031000CB01CF01809180008F778093800008957A
:10032000809180008F7DF9CF80918000877FF5CF0D
:1003300084B58F7784BD089584B58F7DFBCF809180
:10034000B0008F778093B00008958091B0008F7DCA
:10035000F9CF809190008F778093900008958091DD
:1003600090008F7DF9CF80919000877FF5CF8091AD
:10037000A0008F778093A00008958091A0008F7DCA
:10038000F9CF8091A000877FF5CF809120018F77F2
:10039000809320010895809120018F7DF9CF809175
:1003A0002001877FF5CF1F93CF93DF93282F30E075
:1003B000F901E65DFD4F8491F901EC51FE4FD491B6
:1003C000F901E256FE4FC491CC23A9F0162F8111FA
:1003D0000E946C01EC2FF0E0EE0FFF1FEC57FE4F78
:1003E000A591B4918FB7F894EC91111108C0D095F4
:1003F000DE23DC938FBFDF91CF911F910895DE2B19
:10040000F8CFFF920F931F93CF93DF93082F162FF0
:10041000F42EC22FD8E06C2FF11015C06170802F20
:100420000E94D301C69561E0812F0E94D30160E054
:10043000812F0E94D301D15071F7DF91CF911F918D
:100440000F91FF900895661F6627661F802F0E94F8
:10045000D301CC0FE8CFCF93DF9390E0FC01EC51B8
:10046000FE4F249182569E4FFC0184918823C9F04F
:1004700090E0880F991FFC01E659FE4FA591B491B9
:10048000FC01EC57FE4FC591D49161110DC09FB78F
:10049000F8948C91209582238C938881282328833B
:1004A0009FBFDF91CF910895623051F49FB7F894C8
:1004B0003C91822F809583238C93E8812E2BEFCF64
:1004C0008FB7F894EC912E2B2C938FBFEACF3FB7C8
:1004D000F8948091D9029091DA02A091DB02B09158
:1004E000DC0226B5A89B05C02F3F19F00196A11D7F
:1004F000B11D3FBFBA2FA92F982F8827BC01CD016E
:10050000620F711D811D911D42E0660F771F881FCC
:10051000991F4A95D1F708952FB7F8946091D502A5
:100520007091D6028091D7029091D8022FBF089582
:10053000CF92DF92EF92FF920E948C026B017C01BE
:100540008091C5029091C602A091C702B091C802E5
:1005500088519C4FAF4FBF4F8C159D05AE05BF0511
:1005600058F48091C402811114C060E08CE00E94B4
:10057000D30181E08093C402C092C502D092C6022A
:10058000E092C702F092C802FF90EF90DF90CF9008
:10059000089561E08CE00E94D3011092C402ECCF78
:1005A000AF92BF92CF92DF92EF92FF920F931F9381
:1005B000CF93DF936C017B018B01040F151FEB01BF
:1005C0005E01AE18BF08C017D10759F06991D60176
:1005D000ED91FC910190F081E02DC6011995892BD8
:1005E00079F7C501DF91CF911F910F91FF90EF90A7
:1005F000DF90CF90BF90AF900895FC01538D448D54
:10060000252F30E0842F90E0821B930B541710F0BD
:10061000CF96089501970895FC01918D828D9817CA
:1006200061F0A28DAE0FBF2FB11D5D968C91928DA2
:100630009F5F9F73928F90E008958FEF9FEF0895D3
:10064000FC01918D828D981731F0828DE80FF11D9C
:10065000858D90E008958FEF9FEF0895FC01918DB7
:10066000228D892F90E0805C9F4F821B91098F73B0
:10067000992708958DED92E00E942E0321E0892BA9
:1006800009F420E0822F0895FC01A48DA80FB92F52
:10069000B11DA35ABF4F2C91848D90E001968F73AA
:1006A0009927848FA689B7892C93A089B1898C91C9
:1006B000837080648C93938D848D981306C0028818
:1006C000F389E02D80818F7D80830895EF92FF92E2
:1006D0000F931F93CF93DF93EC0181E0888F9B8D65
:1006E0008C8D98131AC0E889F989808185FF15C01F
:1006F0009FB7F894EE89FF896083E889F989808142
:100700008370806480839FBF81E090E0DF91CF9110
:100710001F910F91FF90EF900895F62E0B8D10E032
:100720000F5F1F4F0F731127E02E8C8D8E110CC0A1
:100730000FB607FCFACFE889F989808185FFF5CFEC
:10074000CE010E944403F1CFEB8DEC0FFD2FF11D84
:10075000E35AFF4FF0829FB7F8940B8FEA89FB8929
:1007600080818062CFCFCF93DF93EC01888D882387
:10077000B9F0AA89BB89E889F9898C9185FD03C004
:10078000808186FD0DC00FB607FCF7CF8C9185FFE9
:10079000F2CF808185FFEDCFCE010E944403E9CFE7
:1007A000DF91CF91089580E090E0892B29F00E949D
:1007B0003A0381110E94000080E090E0892B49F00B
:1007C00080E090E0892B29F00E94000081110E94B6
:1007D000000080E090E0892B49F080E090E0892BD8
:1007E00029F00E94000081110E94000080E090E04A
:1007F000892B49F080E090E0892B29F00E940000CD
:1008000081110C94000008950F931F93CF93DF93F1
:10081000EC012B8130E0F901E65DFD4F8491F90197
:10082000EC51FE4F0491F901E256FE4F1491112351
:10083000F1F081110E946C01E12FF0E0EE0FFF1F3B
:10084000E05BFE4FA591B491EC910E2331E020E0E6
:1008500009F430E0832F922F2A81223010F421E016
:1008600082278170DF91CF911F910F91089590E0C1
:1008700080E0F2CF0F931F93CF93DF93EC01888139
:1008800099818130910581F130F0029709F474C0AB
:100890001982188224C08C859D85892B89F00E943D
:1008A0008C020A891B892C893D89601B710B820B84
:1008B000930B683E73408105910510F01D861C86E0
:1008C000CE010E940404882351F00E948C026E879E
:1008D0007F87888B998B81E090E099838883DF9173
:1008E000CF911F910F9108950E948C020E851F8554
:1008F00028893989AB01BC01401B510B620B730B7A
:100900008E819F81B0E0A0E0481759076A077B07F6
:1009100030F3CE010E940404882309F4B9CF1B866A
:100920001A868E8D8E7F86608E8F8C859D85892B15
:1009300031F40E948C026A8B7B8B8C8B9D8B88851B
:1009400099850196998788878C859D8501969D87D5
:100950008C87EE89FF89309711F0CE0119958C852F
:100960009D85029730F0EC8DFD8D309711F0CE0112
:10097000199582E090E0B1CFCE010E940404882353
:10098000C9F10E948C020E851F8528893989AB0127
:10099000BC01401B510B620B730B8C819D81B0E03D
:1009A000A0E0481759076A077B0708F498CF0E9410
:1009B0008C020E851F8528893989DC01CB01801BBB
:1009C000910BA20BB30B2A853B85820F931F9B874C
:1009D0008A870E948C026E877F87888B998BE88D2F
:1009E000F98D309711F0CE0119958E8D8B7F816036
:1009F0008E8F75CFEA8DFB8D309709F449CFCE01EC
:100A0000199546CFCF93DF93FC0101900020E9F7C1
:100A10003197AF01481B590BBC018DED92E00E944C
:100A2000D002EC0142E050E06EE472E08DED92E025
:100A30000E94D0028C0F9D1FDF91CF910895CF921D
:100A4000DF92EF92FF920E948C026B017C018091F9
:100A5000C0029091C102A091C202B091C3028C5019
:100A60009E4FAF4FBF4F8C159D05AE05BF0588F457
:100A700081E592E00E940205C092C002D092C102BC
:100A8000E092C202F092C302FF90EF90DF90CF900D
:100A900008958EE792E0EECF1F920F920FB60F925D
:100AA00011242F933F938F939F93AF93BF93809184
:100AB000D5029091D602A091D702B091D802309180
:100AC000D40223E0230F2D3758F50196A11DB11D47
:100AD0002093D4028093D5029093D602A093D7029C
:100AE000B093D8028091D9029091DA02A091DB02F2
:100AF000B091DC020196A11DB11D8093D9029093A3
:100B0000DA02A093DB02B093DC02BF91AF919F9118
:100B10008F913F912F910F900FBE0F901F901895BE
:100B200026E8230F0296A11DB11DD2CF1F920F926E
:100B30000FB60F9211240BB60F922F933F934F9342
:100B40005F936F937F938F939F93AF93BF93EF9335
:100B5000FF938DED92E00E944403FF91EF91BF91CE
:100B6000AF919F918F917F916F915F914F913F9145
:100B70002F910F900BBE0F900FBE0F901F901895E6
:100B80001F920F920FB60F9211240BB60F922F9354
:100B90008F939F93EF93FF93E091ED02F091EE021C
:100BA0008081E091F302F091F40282FD1DC09081FA
:100BB0008091F6028F5F8F732091F702821741F0C8
:100BC000E091F602F0E0E352FD4F958F8093F6023C
:100BD000FF91EF919F918F912F910F900BBE0F90EE
:100BE0000FBE0F901F9018958081F2CFDF92EF9289
:100BF000FF920F931F93CF93DF9300D01F92CDB737
:100C0000DEB71092E0021092DF0288EE93E0A0E0DF
:100C1000B0E08093E1029093E202A093E302B093EC
:100C2000E40288E292E09093DE028093DD0285EC9C
:100C300090E09093EA028093E90284EC90E0909334
:100C4000EC028093EB0280EC90E09093EE028093B4
:100C5000ED0281EC90E09093F0028093EF0282EC41
:100C600090E09093F2028093F10286EC90E09093F2
:100C7000F4028093F3021092F6021092F70210929F
:100C8000F8021092F9021C821B8284E090E09A83A1
:100C900089839093B9038093B80387E090E09093A1
:100CA000BB038093BA0388E090E09093BD038093E8
:100CB000BC0361E084E00E942B0261E08091BA03F2
:100CC0000E942B0261E08091BC030E942B021092D3
:100CD000BE0381E08093BF038093C003EEE3F2E0A4
:100CE00025EE33E0819191918830910508F0F6C0AE
:100CF0008A5C9D4FDC018C91D9018D939D01B2E0FE
:100D0000EE34FB0779F71092C2031092C1031092E0
:100D1000C4031092C303DE011196E5ECF3E090E00A
:100D200080E030E020E08C014D915D9114161506B5
:100D30000CF0DCC0BA01620F731F019669307105B7
:100D40000CF4CEC03093C2032093C1030093C303BD
:100D50001093C40348E050E06FEF70E08DEE93E035
:100D60000E94470A60E08091B8030E94D30120E00E
:100D700041E06091BA038091BC030E94010220E02F
:100D800041E06091BA038091BC030E94010261E0DE
:100D90008091B8030E94D30110929A031092990394
:100DA00062E087E30E942B0210929A03109299034B
:100DB0001092A7031092A8031092A9031092AA03FD
:100DC0001092AB031092AC031092AD031092AE03DD
:100DD00087E380939C03DD24D394D0929B0388E81F
:100DE000E82E83E1F82EF0929E03E0929D0304E149
:100DF00010E01093A00300939F031092A20310929F
:100E0000A1031092A4031092A3031092A6031092C0
:100E1000A5031092B0031092AF031092B203109288
:100E2000B1031092B4031092B3031092B603109260
:100E3000B5031092B70310927B0310927A0362E01D
:100E400088E30E942B0210927B0310927A03109287
:100E500088031092890310928A0310928B031092D8
:100E60008C0310928D0310928E0310928F0388E3EF
:100E700080937D03D0927C03F0927F03E0927E0307
:100E800010938103009380031092830310928203D6
:100E900010928503109284031092870310928603A8
:100EA0001092910310929003109293031092920368
:100EB0001092950310929403109297031092960348
:100EC000109298030F900F900F900F90DF91CF9199
:100ED0001F910F91FF90EF90DF90089580E00CCF6D
:100EE000318B208B419351939B011DCF3093C203D3
:100EF0002093C1039093C4038093C3032BCFCF935C
:100F0000DF931F92CDB7DEB7789484B5826084BD3D
:100F100084B5816084BD85B5826085BD85B58160FD
:100F200085BD80916E00816080936E00109281007B
:100F30008091810082608093810080918100816036
:100F400080938100809180008160809380008091F7
:100F5000B10084608093B1008091B0008160809383
:100F6000B000809191008260809391008091910007
:100F700081608093910080919000816080939000C7
:100F80008091A10082608093A1008091A100816086
:100F90008093A1008091A00081608093A000809147
:100FA00021018260809321018091210181608093E1
:100FB00021018091200181608093200180917A003D
:100FC000846080937A0080917A00826080937A00B6
:100FD00080917A00816080937A0080917A008068A5
:100FE00080937A001092C10061E08DE00E942B0294
:100FF00061E08DE00E94D30161E08CE00E942B0251
:1010000061E08CE00E94D3018FE195E09093B00302
:101010008093AF0388E992E09093910380939003CB
:10102000E091ED02F091EE0282E08083E091E9022E
:10103000F091EA021082E091EB02F091EC028FEC69
:1010400080831092F502E091F102F091F20286E0C5
:101050008083E091EF02F091F002808180618083D3
:10106000E091EF02F091F002808188608083E0914E
:10107000EF02F091F002808180688083E091EF02BE
:10108000F091F00280818F7D80838AE0882E912C00
:10109000A12CB12C8091BF03882309F44AC008EB2E
:1010A00013E02091C1033091C203C801885B9340D3
:1010B000821793070CF05EC060E08091B8030E9435
:1010C000D3018091C003F801811128C025A540E01B
:1010D0006091BA038091BC030E940102F80125A926
:1010E00040E06091BA038091BC030E94010261E07C
:1010F0008091B8030E94D3010E9467026B017C01BA
:101100000E9467026C197D098E099F09683E734031
:1011100081059105A8F30F5F1F4FC3CF25A940E0BC
:101120006091BA038091BC030E940102F80125A5D9
:10113000D7CF60E08091B8030E94D3010091C10332
:101140001091C20308541C4F01501109C801885B5B
:10115000934097FD0AC0F80125A940E06091BA03C9
:101160008091BC030E940102EFCF61E08091B8033F
:101170000E94D30189E993E00E943A048AE793E050
:101180000E943A040E948C026B017C018091D00283
:101190009091D102A091D202B091D3028053984F86
:1011A000AF4FBF4F8C159D05AE05BF0560F484EAB7
:1011B00092E00E940205C092D002D092D102E09249
:1011C000D202F092D3028091CC029091CD02A091F4
:1011D000CE02B091CF0284529A4FAF4FBF4F8C15C1
:1011E0009D05AE05BF0590F48091CB02882379F16F
:1011F00061E08DE00E94D3011092CB02C092CC023C
:10120000D092CD02E092CE02F092CF022090C9029D
:101210003090CA02FFEF2F1A3F0A3092CA02209282
:10122000C9022101330C660877082DB63EB6A3012A
:10123000920110E000E00F5F1F4F57FF10C0509564
:101240004095309521953F4F4F4F5F4FF4CF60E071
:101250008DE00E94D30181E08093CB02CFCF2A3072
:101260003105410551053CF0CA01B901A5019401C0
:101270000E94FE09E0CF2DB73EB7201B310B0FB601
:10128000F8943EBF0FBE2DBF8DB79EB701967C016F
:1012900077FE42C07094609450944094411C511C5D
:1012A000611C711C91E099836701C00ED11EC301BE
:1012B000B201A50194010E94FE09605DF6016293EE
:1012C0006F0129013A01EE15FF0589F7F981FF2326
:1012D00019F02DE2F70120838091C5039091C60398
:1012E000FC0131972DB73EB7281B390B0FB6F89488
:1012F0003EBF0FBE2DBF4DB75EB74F5F5F4FBC0106
:10130000601B710BDA019D01241B350B2617370773
:101310002CF430E23D93F7CF1982C6CF9B01E21740
:10132000F3077CF037FD0AC0D901A61BB70BAE0D41
:10133000BF1D1C91DA01A20FB31F1C932F5F3F4FFB
:10134000EECFEDB7FEB7E81BF90B0FB6F894FEBF72
:101350000FBEEDBF2DB73EB72F5F3F4FBA01D9018A
:10136000FB01E41BF50BE817F9075CF5FB01119194
:10137000BF01F0EDF10FFA3048F4E12F110FFF0B30
:10138000E651FE4FE081EC931196EACFFFE9F10FB1
:10139000FA3130F4E12F110FFF0BE156FE4FF2CF7F
:1013A000FFEBF10FFA3130F4E12F110FFF0BE15495
:1013B000FE4FE8CF1D3219F4F2E0FC93E5CF1C920A
:1013C000E3CF6091BE03E091D503F091D603E351E2
:1013D000FC4FD901AD01421B530B4817590734F498
:1013E0004D91611101C040954193F4CF0FB6F8942F
:1013F0003EBE0FBE2DBE0E94D3034CCE052E97FBE2
:101400001EF400940E94150A57FD07D00E94250A79
:1014100007FC03D04EF40C94150A50954095309576
:1014200021953F4F4F4F5F4F089590958095709550
:1014300061957F4F8F4F9F4F0895EE0FFF1F881FBD
:101440008BBF0790F691E02D1994A1E21A2EAA1BEA
:10145000BB1BFD010DC0AA1FBB1FEE1FFF1FA21764
:10146000B307E407F50720F0A21BB30BE40BF50B61
:10147000661F771F881F991F1A9469F760957095EA
:10148000809590959B01AC01BD01CF010895DC01D1
:1014900001C06D9341505040E0F70895F894FFCF9C
:1014A000EE3E9C7A9E8EBC6E0C78AE1CEC2A3ACE38
:1014B000E68CB61E387C7E6C76DAFC60DAF266B6B4
:1014C000BEE0FEE6000000006603D002FD02B303AA
:1014D0002E030C03200380402010080402010000AA
:1014E00001000200030004000500060007000D0AC9
:1014F00000566F63652061706572746F75206F2090
:10150000626F74616F203120636F6D2063616C6D59
:10151000612C206D7569746F2062656D2E004361CA
:101520006C6D612C20636172612C2076616920648E
:10153000657661676172206E6573736520626F7492
:10154000616F2100506173736172616D2D7365204D
:101550006D616973203220736567756E646F730007
:00000001FF
