:100000000C943F010C9470010C9470010C947001DD
:100010000C9470010C9470010C9470010C9470019C
:100020000C9470010C9470010C9470010C9470018C
:100030000C9470010C9470010C9470010C9470017C
:100040000C9470010C9470010C9470010C9470016C
:100050000C9470010C9470010C9470010C94BB050D
:100060000C9470010C942F060C9405060C947001EE
:100070000C9470010C9470010C9470010C9470013C
:100080000C9470010C9470010C9470010C9470012C
:100090000C9470010C9470010C9470010C9470011C
:1000A0000C9470010C9470010C9470010C9470010C
:1000B0000C9470010C9470010C9470010C947001FC
:1000C0000C9470010C9470010C9470010C947001EC
:1000D0000C9470010C9470010C9470010C947001DC
:1000E0000C9470010C94D1010C94A2010C94FC02AC
:1000F0000C94EE020C94BD010C9465060C94A501C1
:100100000C94CB020C9481030C9496010C949001F6
:100110000C94DA020C94AF010C94F5040C949E023A
:100120000C94AB010C949A010C94D0010C94F10442
:100130000C94ED040C94B9010C94D5010C94AB050E
:100140000C94B3050C94C7010C94B5010C94C30135
:100150000C9434030C949E010C94CB0100002000FD
:100160002300260029002C002F003200000100008F
:1001700003010601090100002100240027002A00D4
:100180002D003000330001010000040107010A01C5
:1001900000002200250028002B002E003100340032
:1001A00002010000050108010B0105050505070511
:1001B00008080808020202020A0A080804040404E3
:1001C000010101010101010103030303030303030F
:1001D000040707070C0C0C0C0C0C0C0C020202029E
:1001E00006060606060606060B0B0B0B0B0B0B0B87
:1001F0000102102020080810204010204080020139
:10020000020108040201010204081020408080401D
:10021000201008040201800402018040201008041C
:1002200002010804020101020408102040800102BA
:1002300004081020408000000A0B02090C0D0E0873
:10024000070304010000000000000000000000009F
:10025000000000000000000000000000000000009E
:10026000000012111000000000000000000000005B
:1002700000000000000000000000000065061124DE
:100280001FBECFEFD1E2DEBFCDBF00E00CBF23E049
:10029000A4EAB2E001C01D92A63EB207E1F712E067
:1002A000A0E0B2E0E2E1F3E100E00BBF02C00790A2
:1002B0000D92A43AB107D9F711E0CFE3D1E000E005
:1002C00006C021970109802FFE010E947809CE33D4
:1002D000D10780E00807A9F70E9434080C94870929
:1002E0000C9400008150823108F05AC0E82FF0E0F1
:1002F0008827E258FE4F8F4F0C9478099E01A20187
:10030000900196019A01D001A501AB01AF01B501A1
:10031000B901BD01C301C701D001CB01D101D50194
:10032000809180008F778093800008958091800075
:100330008F7DF9CF80918000877FF5CF84B58F774F
:1003400084BD089584B58F7DFBCF8091B0008F77F9
:100350008093B00008958091B0008F7DF9CF809197
:1003600090008F77809390000895809190008F7D0A
:10037000F9CF80919000877FF5CF8091A0008F7793
:100380008093A00008958091A0008F7DF9CF809187
:10039000A000877FF5CF809120018F778093200187
:1003A0000895809120018F7DF9CF80912001877F72
:1003B000F5CF1F93CF93DF93282F30E0F901EA5C4C
:1003C000FD4F8491F901E051FE4FD491F901E655BA
:1003D000FE4FC491CC23A9F0162F81110E94720107
:1003E000EC2FF0E0EE0FFF1FE057FE4FA591B49108
:1003F0008FB7F894EC91111108C0D095DE23DC93EF
:100400008FBFDF91CF911F910895DE2BF8CFFF9220
:100410000F931F93CF93DF93082F162FF42EC22F25
:10042000D8E06C2FF11015C06170802F0E94D901A7
:10043000C69561E0812F0E94D90160E0812F0E9462
:10044000D901D15071F7DF91CF911F910F91FF909A
:100450000895661F6627661F802F0E94D901CC0F62
:10046000E8CFCF93DF9390E0FC01E051FE4F249161
:1004700086559E4FFC0184918823C9F090E0880F37
:10048000991FFC01EA58FE4FA591B491FC01E05779
:10049000FE4FC591D49161110DC09FB7F8948C9116
:1004A000209582238C938881282328839FBFDF9106
:1004B000CF910895623051F49FB7F8943C91822F08
:1004C000809583238C93E8812E2BEFCF8FB7F89400
:1004D000EC912E2B2C938FBFEACF3FB7F8948091ED
:1004E000AB029091AC02A091AD02B091AE0226B5E4
:1004F000A89B05C02F3F19F00196A11DB11D3FBF5C
:10050000BA2FA92F982F8827BC01CD01620F711D2A
:10051000811D911D42E0660F771F881F991F4A9524
:10052000D1F708952FB7F8946091A7027091A802AF
:100530008091A9029091AA022FBF0895AF92BF9215
:10054000CF92DF92EF92FF920F931F93CF93DF939F
:100550006C017B018B01040F151FEB015E01AE18CE
:10056000BF08C017D10759F06991D601ED91FC91F0
:100570000190F081E02DC6011995892B79F7C5010D
:10058000DF91CF911F910F91FF90EF90DF90CF906F
:10059000BF90AF900895FC01538D448D252F30E01E
:1005A000842F90E0821B930B541710F0CF96089580
:1005B00001970895FC01918D828D981761F0A28DAD
:1005C000AE0FBF2FB11D5D968C91928D9F5F9F7373
:1005D000928F90E008958FEF9FEF0895FC01918D29
:1005E000828D981731F0828DE80FF11D858D90E096
:1005F00008958FEF9FEF0895FC01918D228D892F33
:1006000090E0805C9F4F821B91098F73992708951A
:100610008FEA92E00E94FC0221E0892B09F420E09D
:10062000822F0895FC01A48DA80FB92FB11DA35AE4
:10063000BF4F2C91848D90E001968F739927848F02
:10064000A689B7892C93A089B1898C918370806425
:100650008C93938D848D981306C00288F389E02DC6
:1006600080818F7D80830895EF92FF920F931F9377
:10067000CF93DF93EC0181E0888F9B8D8C8D981355
:100680001AC0E889F989808185FF15C09FB7F89461
:10069000EE89FF896083E889F989808183708064AD
:1006A00080839FBF81E090E0DF91CF911F910F91F8
:1006B000FF90EF900895F62E0B8D10E00F5F1F4F07
:1006C0000F731127E02E8C8D8E110CC00FB607FC16
:1006D000FACFE889F989808185FFF5CFCE010E94A4
:1006E0001203F1CFEB8DEC0FFD2FF11DE35AFF4FFD
:1006F000F0829FB7F8940B8FEA89FB898081806232
:10070000CFCFCF93DF93EC01888D8823B9F0AA89EE
:10071000BB89E889F9898C9185FD03C0808186FDBC
:100720000DC00FB607FCF7CF8C9185FFF2CF80810B
:1007300085FFEDCFCE010E941203E9CFDF91CF916B
:10074000089580E090E0892B29F00E940803811130
:100750000E94000080E090E0892B49F080E090E06A
:10076000892B29F00E94000081110E94000080E086
:1007700090E0892B49F080E090E0892B29F00E94DD
:10078000000081110E94000080E090E0892B49F078
:1007900080E090E0892B29F00E94000081110C94E8
:1007A000000008950F931F93CF93DF93EC012B81EB
:1007B00030E0F901EA5CFD4F8491F901E051FE4F10
:1007C0000491F901E655FE4F14911123F1F08111C6
:1007D0000E947201E12FF0E0EE0FFF1FE45AFE4F7E
:1007E000A591B491EC910E2331E020E009F430E0C2
:1007F000832F922F2A81223010F421E082278170EA
:10080000DF91CF911F910F91089590E080E0F2CF9A
:100810000F931F93CF93DF93EC01888199818130EF
:10082000910581F130F0029709F474C019821882A1
:1008300024C08C859D85892B89F00E9492020A89AB
:100840001B892C893D89601B710B820B930B683EC1
:1008500073408105910510F01D861C86CE010E9413
:10086000D203882351F00E9492026E877F87888B83
:10087000998B81E090E099838883DF91CF911F91DC
:100880000F9108950E9492020E851F85288939894B
:10089000AB01BC01401B510B620B730B8E819F811E
:1008A000B0E0A0E0481759076A077B0730F3CE0194
:1008B0000E94D203882309F4B9CF1B861A868E8D35
:1008C0008E7F86608E8F8C859D85892B31F40E946A
:1008D00092026A8B7B8B8C8B9D8B88859985019688
:1008E000998788878C859D8501969D878C87EE8961
:1008F000FF89309711F0CE0119958C859D8502975F
:1009000030F0EC8DFD8D309711F0CE01199582E01D
:1009100090E0B1CFCE010E94D2038823C9F10E949A
:1009200092020E851F8528893989AB01BC01401BC5
:10093000510B620B730B8C819D81B0E0A0E04817D6
:1009400059076A077B0708F498CF0E9492020E8528
:100950001F8528893989DC01CB01801B910BA20BF3
:10096000B30B2A853B85820F931F9B878A870E9442
:1009700092026E877F87888B998BE88DF98D3097EF
:1009800011F0CE0119958E8D8B7F81608E8F75CF82
:10099000EA8DFB8D309709F449CFCE01199546CFEA
:1009A000CF93DF93FC0101900020E9F73197AF016D
:1009B000481B590BBC018FEA92E00E949E02EC0199
:1009C00042E050E06EE472E08FEA92E00E949E0204
:1009D0008C0F9D1FDF91CF91089581E592E00C94DB
:1009E000D00486E692E00C94D00485E792E00E9461
:1009F000D0048091A4029091A50201969093A50243
:100A00008093A40260E08330910519F0069721F4E9
:100A100061E08DE00C94D9010895EF92FF920F935D
:100A20001F93CF93DF93CDB7DEB70DB71EB7FC0191
:100A300001900020E9F73197E81BF90B2091590349
:100A400030915A034DB75EB7421B530B0FB6F89463
:100A50005EBF0FBE4DBF4F5F5F4F70E060E06E172F
:100A60007F075CF0E40FF51F80E2BF01641B750B8C
:100A70006217730784F48193F8CF6217730744F405
:100A8000DC01A60FB71FFC90DA01A60FB71FFC927E
:100A90006F5F7F4FE4CF8DB79EB7821B930B0FB66E
:100AA000F8949EBF0FBE8DBF0196BA01DC01E2E053
:100AB000FE2EFB01E41BF50BE217F3075CF5FB01CF
:100AC000E190BF01F0EDFE0DFA3048F4EE2DEE0C92
:100AD000FF0BE651FE4FE081EC931196EACFFFE960
:100AE000FE0DFA3130F4EE2DEE0CFF0BE156FE4F09
:100AF000F2CFFFEBFE0DFA3130F4EE2DEE0CFF0BD2
:100B0000E154FE4FE8CFFDE2EF1202C0FC92E5CFC8
:100B10001C92E3CF50915203E0916903F0916A0374
:100B2000EF57FC4FDC01BD01681B790B621773079F
:100B300034F44D91511101C040954193F4CF0FB65B
:100B4000F8941EBF0FBE0DBFDF91CF911F910F9183
:100B5000FF90EF90089586E692E00E94D00480E531
:100B600092E00C940D058AE892E00E94D0048FE98F
:100B700092E00C940D051F920F920FB60F92112464
:100B80002F933F938F939F93AF93BF938091A7022F
:100B90009091A802A091A902B091AA023091A60258
:100BA00023E0230F2D3758F50196A11DB11D209389
:100BB000A6028093A7029093A802A093A902B093E3
:100BC000AA028091AB029091AC02A091AD02B091CB
:100BD000AE020196A11DB11D8093AB029093AC02B1
:100BE000A093AD02B093AE02BF91AF919F918F9150
:100BF0003F912F910F900FBE0F901F90189526E8F0
:100C0000230F0296A11DB11DD2CF1F920F920FB6D6
:100C10000F9211240BB60F922F933F934F935F9334
:100C20006F937F938F939F93AF93BF93EF93FF93B4
:100C30008FEA92E00E941203FF91EF91BF91AF9172
:100C40009F918F917F916F915F914F913F912F91E4
:100C50000F900BBE0F900FBE0F901F9018951F9214
:100C60000F920FB60F9211240BB60F922F938F9302
:100C70009F93EF93FF93E091BF02F091C0028081B8
:100C8000E091C502F091C60282FD1DC09081809165
:100C9000C8028F5F8F732091C902821741F0E091E3
:100CA000C802F0E0E155FD4F958F8093C802FF9197
:100CB000EF919F918F912F910F900BBE0F900FBED0
:100CC0000F901F9018958081F2CFCF92DF92EF9214
:100CD000FF921F93CF93DF9300D01F92CDB7DEB763
:100CE0001092B2021092B10288EE93E0A0E0B0E060
:100CF0008093B3029093B402A093B502B093B6026E
:100D000088E292E09093B0028093AF0285EC90E08D
:100D10009093BC028093BB0284EC90E09093BE025F
:100D20008093BD0280EC90E09093C0028093BF025C
:100D300081EC90E09093C2028093C10282EC90E03B
:100D40009093C4028093C30286EC90E09093C60215
:100D50008093C5021092C8021092C9021092CA0272
:100D60001092CB021092C8031092C70362E087E38F
:100D70000E9431021092C8031092C7031092D5034B
:100D80001092D6031092D7031092D8031092D90371
:100D90001092DA031092DB031092DC0387E3809356
:100DA000CA0311E01093C90388E8C82E83E1D82E46
:100DB000D092CC03C092CB0394E1E92EF12CF092B7
:100DC000CE03E092CD031092D0031092CF03109285
:100DD000D2031092D1031092D4031092D303109235
:100DE000DE031092DD031092E0031092DF031092F5
:100DF000E2031092E1031092E4031092E3031092D5
:100E0000E5031092A9031092A80362E088E30E9410
:100E100031021092A9031092A8031092B603109207
:100E2000B7031092B8031092B9031092BA0310924C
:100E3000BB031092BC031092BD0388E38093AB0305
:100E40001093AA03D092AD03C092AC03F092AF030B
:100E5000E092AE031092B1031092B0031092B3036C
:100E60001092B2031092B5031092B4031092BF0314
:100E70001092BE031092C1031092C0031092C303DC
:100E80001092C2031092C5031092C4031092C603BD
:100E900010928A031092890362E089E30E94310272
:100EA00010928A031092890310929703109298036C
:100EB0001092990310929A0310929B0310929C0334
:100EC00010929D0310929E0389E380938C031093EC
:100ED0008B03D0928E03C0928D03F0929003E09228
:100EE0008F03109292031092910310929403109228
:100EF000930310929603109295031092A003109200
:100F00009F031092A2031092A1031092A4031092C7
:100F1000A3031092A6031092A5031092A7031C82AC
:100F20001B8284E090E09A83898390934D038093A1
:100F30004C0387E090E090934F0380934E0388E04A
:100F400090E0909351038093500361E084E00E940D
:100F5000310261E080914E030E94310261E0809194
:100F600050030E94310210925203109353031093C6
:100F70005403EEE3F2E029E733E081919191883068
:100F8000910508F060C08A5C9D4FDC018C91D9010D
:100F90008D939D01B2E0EE34FB0779F71092560372
:100FA000109255031092580310925703DE011196C8
:100FB000E9E5F3E090E080E030E020E0F82E192F42
:100FC0004D915D91141615060CF045C0BA01620FE3
:100FD000731F019669307105C4F130935603209355
:100FE0005503F09257031093580348E050E06FEF19
:100FF00070E081E893E00E94800960E080914C03FA
:101000000E94D90120E041E060914E03809150039D
:101010000E94070220E041E060914E03809150035E
:101020000E94070261E080914C030E94D9010F9059
:101030000F900F900F90DF91CF911F91FF90EF9045
:10104000DF90CF90089580E0A2CF318B208B419329
:1010500051939B01B3CF3093560320935503909344
:10106000580380935703C1CF789484B5826084BDC0
:1010700084B5816084BD85B5826085BD85B581609C
:1010800085BD80916E00816080936E00109281001A
:1010900080918100826080938100809181008160D5
:1010A0008093810080918000816080938000809196
:1010B000B10084608093B1008091B0008160809322
:1010C000B0008091910082608093910080919100A6
:1010D0008160809391008091900081608093900066
:1010E0008091A10082608093A1008091A100816025
:1010F0008093A1008091A00081608093A0008091E6
:10110000210182608093210180912101816080937F
:1011100021018091200181608093200180917A00DB
:10112000846080937A0080917A00826080937A0054
:1011300080917A00816080937A0080917A00806843
:1011400080937A001092C100E091BF02F091C0023A
:1011500082E08083E091BB02F091BC021082E091BA
:10116000BD02F091BE028FEC80831092C702E09125
:10117000C302F091C40286E08083E091C102F09145
:10118000C202808180618083E091C102F091C2023D
:10119000808188608083E091C102F091C2028081E9
:1011A00080688083E091C102F091C20280818F7DCE
:1011B000808361E08DE00E94310261E08DE00E9459
:1011C000D9018DEE94E09093DE038093DD0381EFEF
:1011D00094E09093E2038093E10383EB95E0909396
:1011E000BF038093BE038BEA95E09093C303809383
:1011F000C20385EF94E09093A00380939F0387EC54
:1012000093E00E94080488EA93E00E94080489E8B9
:1012100093E00E94080480915303882309F446C098
:10122000CCE4D3E02091550330915603CE018C5489
:101230009340821793070CF058C060E080914C03F4
:101240000E94D90180915403811126C02DA540E050
:1012500060914E03809150030E9407022DA940E047
:1012600060914E03809150030E94070261E08091DB
:101270004C030E94D9010E946D026B017C010E9407
:101280006D026C197D098E099F09683E73408105C6
:101290009105A8F32196C6CF2DA940E060914E0399
:1012A000809150030E9407022DA5D9CF60E0809164
:1012B0004C030E94D901C0915503D0915603C45BE1
:1012C000DC4F2197CE018C54934097FD09C02DA986
:1012D00040E060914E03809150030E940702F1CFDD
:1012E00061E080914C030E94D9010E94A10387CF45
:1012F000EE0FFF1F881F8BBF0790F691E02D19940A
:10130000DC0101C06D9341505040E0F70895F8941E
:02131000FFCF0D
:10131200EE3E9C7A9E8EBC6E0C78AE1CEC2A3ACEC7
:10132200E68CB61E387C7E6C76DAFC60DAF266B643
:10133200BEE0FEE60000000034039E02CB02810301
:10134200FC02DA02EE0280402010080402010000D2
:1013520001000200030004000500060007000D0A58
:1013620000426F74616F2031207072657373696F10
:101372006E61646F2100426F74616F203120736F60
:101382006C746F2100426F74616F2033207072653C
:101392007373696F6E61646F2100426F74616F20B5
:1013A20032207072657373696F6E61646F21004DD4
:0413B2004D440000A6
:00000001FF
