:100000000C943B010C946C010C946C010C946C01ED
:100010000C946C010C946C010C946C010C946C01AC
:100020000C946C010C946C010C946C010C946C019C
:100030000C946C010C946C010C946C010C946C018C
:100040000C946C010C946C010C946C010C946C017C
:100050000C946C010C946C010C946C010C940F06C4
:100060000C946C010C9483060C9459060C946C014E
:100070000C946C010C946C010C946C010C946C014C
:100080000C946C010C946C010C946C010C946C013C
:100090000C946C010C946C010C946C010C946C012C
:1000A0000C946C010C946C010C946C010C946C011C
:1000B0000C946C010C946C010C946C010C946C010C
:1000C0000C946C010C946C010C946C010C946C01FC
:1000D0000C946C010C946C010C946C010C946C01EC
:1000E0000C946C010C9462030C941C030C94AF03ED
:1000F0000C94CD010C94A1010C94D1010C94CC0171
:100100000C949A010C94AB010C9496010C94C502CA
:100110000C9408030C94C7010C94B9060C949E012E
:100120000C94A7010C94B9010C94B5010C94F9023C
:100130000C94BE020C9492010C948C010C94BF019F
:100140000C94B1010C94CC020C94C3010C942A03BE
:100150000C94B702000020002300260029002C0088
:100160002F00320000010000030106010901000018
:100170002100240027002A002D0030003300010157
:100180000000040107010A010000220025002800E8
:100190002B002E003100340002010000050108018F
:1001A0000B010505050507050808080802020202FB
:1001B0000A0A080804040404010101010101010103
:1001C0000303030303030303040707070C0C0C0CCE
:1001D0000C0C0C0C020202020606060606060606B7
:1001E0000B0B0B0B0B0B0B0B010210202008081044
:1001F0002040102040800201020108040201010297
:10020000040810204080804020100804020180046F
:1002100002018040201008040201080402010102CA
:1002200004081020408001020408102040800000D3
:100230000A0B02090C0D0E08070304010000000060
:1002400000000000000000000000000000000000AE
:10025000000000000000000000001211100000006B
:10026000000000000000000000000000000000008E
:1002700000000000B90611241FBECFEFD1E2DEBF9F
:10028000CDBF00E00CBF12E0A0E0B2E0E2ECF5E18F
:1002900000E00BBF02C007900D92A835B107D9F757
:1002A00023E0A8E5B2E001C01D92A839B207E1F74A
:1002B00011E0CBE3D1E000E006C021970109802FD7
:1002C000FE010E94C90ACA33D10780E00807A9F7D6
:1002D0000E9489080C94DF0A0C940000815082313E
:1002E00008F05AC0E82FF0E08827E658FE4F8F4FFD
:1002F0000C94C90A9A019E018C0192019601CC01CD
:10030000A101A701AB01B101B501B901BF01C30151
:10031000CC01C701CD01D101809180008F778093FE
:1003200080000895809180008F7DF9CF80918000BA
:10033000877FF5CF84B58F7784BD089584B58F7D91
:10034000FBCF8091B0008F778093B00008958091AB
:10035000B0008F7DF9CF809190008F7780939000CF
:100360000895809190008F7DF9CF80919000877FD4
:10037000F5CF8091A0008F778093A00008958091A1
:10038000A0008F7DF9CF8091A000877FF5CF80916D
:1003900020018F77809320010895809120018F7D27
:1003A000F9CF80912001877FF5CF1F93CF93DF9303
:1003B000282F30E0F901E25DFD4F8491F901E85109
:1003C000FE4FD491F901EE55FE4FC491CC23A9F014
:1003D000162F81110E946E01EC2FF0E0EE0FFF1F2F
:1003E000E857FE4FA591B4918FB7F894EC91111195
:1003F00008C0D095DE23DC938FBFDF91CF911F9192
:100400000895DE2BF8CFFF920F931F93CF93DF93C6
:10041000082F162FF42EC22FD8E06C2FF11015C024
:100420006170802F0E94D501C69561E0812F0E94E6
:10043000D50160E0812F0E94D501D15071F7DF9185
:10044000CF911F910F91FF900895661F6627661F39
:10045000802F0E94D501CC0FE8CFCF93DF9390E09F
:10046000FC01E851FE4F24918E559E4FFC01849172
:100470008823C9F090E0880F991FFC01E259FE4FD4
:10048000A591B491FC01E857FE4FC591D49161113B
:100490000DC09FB7F8948C91209582238C9388810E
:1004A000282328839FBFDF91CF910895623051F4B4
:1004B0009FB7F8943C91822F809583238C93E88199
:1004C0002E2BEFCF8FB7F894EC912E2B2C938FBF60
:1004D000EACF863308F0865320917B00982F9870DE
:1004E000277F922B90937B008770806480937C00A1
:1004F00080917A00806480937A0080917A0086FDF2
:10050000FCCF809178009091790008953FB7F894DE
:1005100080915D0290915E02A0915F02B0916002B5
:1005200026B5A89B05C02F3F19F00196A11DB11D4E
:100530003FBFBA2FA92F982F8827BC01CD01620F8A
:10054000711D811D911D42E0660F771F881F991F45
:100550004A95D1F708952FB7F89460915902709198
:100560005A0280915B0290915C022FBF089581E056
:1005700090E09093010280930002089582E090E061
:100580009093010280930002089583E090E090939D
:100590000102809300020895AF92BF92CF92DF9242
:1005A000EF92FF920F931F93CF93DF936C017B0128
:1005B0008B01040F151FEB015E01AE18BF08C017B9
:1005C000D10759F06991D601ED91FC910190F0812C
:1005D000E02DC6011995892B79F7C501DF91CF91DF
:1005E0001F910F91FF90EF90DF90CF90BF90AF9051
:1005F0000895FC01538D448D252F30E0842F90E029
:10060000821B930B541710F0CF960895019708950D
:10061000FC01918D828D981761F0A28DAE0FBF2FD6
:10062000B11D5D968C91928D9F5F9F73928F90E02C
:1006300008958FEF9FEF0895FC01918D828D98179B
:1006400031F0828DE80FF11D858D90E008958FEFD8
:100650009FEF0895FC01918D228D892F90E0805CA1
:100660009F4F821B91098F739927089581E692E02D
:100670000E942A0321E0892B09F420E0822F0895AB
:10068000FC01A48DA80FB92FB11DA35ABF4F2C9107
:10069000848D90E001968F739927848FA689B789FE
:1006A0002C93A089B1898C91837080648C93938DF5
:1006B000848D981306C00288F389E02D80818F7D98
:1006C00080830895EF92FF920F931F93CF93DF9350
:1006D000EC0181E0888F9B8D8C8D98131AC0E8897E
:1006E000F989808185FF15C09FB7F894EE89FF894D
:1006F0006083E889F98980818370806480839FBFEB
:1007000081E090E0DF91CF911F910F91FF90EF90EA
:100710000895F62E0B8D10E00F5F1F4F0F731127FA
:10072000E02E8C8D8E110CC00FB607FCFACFE88935
:10073000F989808185FFF5CFCE010E944003F1CF7A
:10074000EB8DEC0FFD2FF11DE35AFF4FF0829FB7A9
:10075000F8940B8FEA89FB8980818062CFCFCF9399
:10076000DF93EC01888D8823B9F0AA89BB89E889D9
:10077000F9898C9185FD03C0808186FD0DC00FB67F
:1007800007FCF7CF8C9185FFF2CF808185FFEDCFFD
:10079000CE010E944003E9CFDF91CF91089580E020
:1007A00090E0892B29F00E94360381110E940000FD
:1007B00080E090E0892B49F080E090E0892B29F0DF
:1007C0000E94000081110E94000080E090E0892BCF
:1007D00049F080E090E0892B29F00E94000081110F
:1007E0000E94000080E090E0892B49F080E090E0DA
:1007F000892B29F00E94000081110C9400000895BB
:100800000F931F93CF93DF93EC012B8130E0F9011D
:10081000E25DFD4F8491F901E851FE4F0491F90129
:10082000EE55FE4F14911123F1F081110E946E01DB
:10083000E12FF0E0EE0FFF1FEC5AFE4FA591B491AF
:10084000EC910E2331E020E009F430E0832F922F69
:100850002A81223010F421E082278170DF91CF912C
:100860001F910F91089590E080E0F2CF0F931F93B6
:10087000CF93DF93EC01888199818130910581F1DB
:1008800030F0029709F474C01982188224C08C8554
:100890009D85892B89F00E94AB020A891B892C89CE
:1008A0003D89601B710B820B930B683E7340810581
:1008B000910510F01D861C86CE010E94000488233D
:1008C00051F00E94AB026E877F87888B998B81E005
:1008D00090E099838883DF91CF911F910F910895C4
:1008E0000E94AB020E851F8528893989AB01BC01A6
:1008F000401B510B620B730B8E819F81B0E0A0E017
:10090000481759076A077B0730F3CE010E9400049D
:10091000882309F4B9CF1B861A868E8D8E7F866058
:100920008E8F8C859D85892B31F40E94AB026A8B5A
:100930007B8B8C8B9D8B8885998501969987888781
:100940008C859D8501969D878C87EE89FF893097E0
:1009500011F0CE0119958C859D85029730F0EC8DB4
:10096000FD8D309711F0CE01199582E090E0B1CF66
:10097000CE010E9400048823C9F10E94AB020E85BB
:100980001F8528893989AB01BC01401B510B620BC3
:10099000730B8C819D81B0E0A0E0481759076A076E
:1009A0007B0708F498CF0E94AB020E851F8528892B
:1009B0003989DC01CB01801B910BA20BB30B2A857B
:1009C0003B85820F931F9B878A870E94AB026E87AD
:1009D0007F87888B998BE88DF98D309711F0CE0148
:1009E00019958E8D8B7F81608E8F75CFEA8DFB8DF3
:1009F000309709F449CFCE01199546CF3F924F92D7
:100A00005F926F927F928F929F92AF92BF92CF929E
:100A1000DF92EF92FF920F931F93CF93DF931F927A
:100A20001F92CDB7DEB72B013C012DB73EB73A83FD
:100A30002983AC019B0110E000E09AE0C92ED12C83
:100A4000E12CF12C0F5F1F4F57FF08C050954095C8
:100A5000309521953F4F4F4F5F4FF4CF2A303105EE
:100A6000410551053CF0CA01B901A70196010E9458
:100A7000790AE8CF4DB75EB7401B510B0FB6F8941B
:100A80005EBF0FBE4DBF8DB79EB701967C01312C66
:100A900077FE0AC07094609450944094411C511C9D
:100AA000611C711C332433946701C00ED11E8AE08F
:100AB000882E912CA12CB12CC301B201A501940167
:100AC0000E94790A605DF60162936F0129013A0183
:100AD000EE15FF0589F7332019F08DE2F7018083C9
:100AE0008091680390916903DC0111972DB73EB79F
:100AF000281B390B0FB6F8943EBF0FBE2DBF2F5FDA
:100B00003F4FBC01601B710BF90140E28F01021BDA
:100B1000130B0617170714F44193F8CFAB01A41772
:100B2000B5077CF057FD0AC0FA01E61BF70BEE0D86
:100B3000FF1D1081F901E40FF51F10834F5F5F4F18
:100B4000EECF4DB75EB7481B590B0FB6F8945EBF9A
:100B50000FBE4DBF4F5F5F4FB901DA0112E0FB01DD
:100B6000E21BF30BE817F90754F5FB010191BF01F4
:100B7000F0EDF00FFA3048F4E02F000FFF0BEC50CF
:100B8000FE4FE081EC931196EACFFFE9F00FFA31C6
:100B900030F4E02F000FFF0BE755FE4FF2CFFFEBD5
:100BA000F00FFA3130F4E02F000FFF0BE753FE4F48
:100BB000E8CF0D3211F41C93E6CF1C92E4CF3091B4
:100BC0006103E0917803F0917903E057FC4FDA017B
:100BD000BD01641B750B6817790734F42D91311131
:100BE00001C020952193F4CF29813A810FB6F89462
:100BF0003EBF0FBE2DBF0F900F90DF91CF911F9181
:100C00000F91FF90EF90DF90CF90BF90AF909F90AB
:100C10008F907F906F905F904F903F9008951F92BC
:100C20000F920FB60F9211242F933F938F939F93A0
:100C3000AF93BF938091590290915A02A0915B02A9
:100C4000B0915C023091580223E0230F2D3758F504
:100C50000196A11DB11D20935802809359029093D3
:100C60005A02A0935B02B0935C0280915D02909166
:100C70005E02A0915F02B09160020196A11DB11DBC
:100C800080935D0290935E02A0935F02B093600236
:100C9000BF91AF919F918F913F912F910F900FBE78
:100CA0000F901F90189526E8230F0296A11DB11DE5
:100CB000D2CF1F920F920FB60F9211240BB60F9244
:100CC0002F933F934F935F936F937F938F939F9354
:100CD000AF93BF93EF93FF9381E692E00E944003AE
:100CE000FF91EF91BF91AF919F918F917F916F9104
:100CF0005F914F913F912F910F900BBE0F900FBEC0
:100D00000F901F9018951F920F920FB60F921124FB
:100D10000BB60F922F938F939F93EF93FF93E091D6
:100D20007102F09172028081E0917702F091780275
:100D300082FD1DC0908180917A028F5F8F73209118
:100D40007B02821741F0E0917A02F0E0EF59FD4F0B
:100D5000958F80937A02FF91EF919F918F912F91C0
:100D60000F900BBE0F900FBE0F901F9018958081B3
:100D7000F2CFDF92EF92FF920F931F93CF93DF9307
:100D800000D01F92CDB7DEB71092640210926302BA
:100D900088EE93E0A0E0B0E0809365029093660255
:100DA000A0936702B093680282E392E0909362029C
:100DB0008093610285EC90E090936E0280936D02C7
:100DC00084EC90E09093700280936F0280EC90E04E
:100DD000909372028093710281EC90E09093740280
:100DE0008093730282EC90E0909376028093750278
:100DF00086EC90E0909378028093770210927A02CA
:100E000010927B0210927C0210927D021C821B8247
:100E100084E090E09A83898390935C0380935B03E2
:100E200087E090E090935E0380935D0388E090E01C
:100E30009093600380935F0361E084E00E942D0241
:100E400061E080915D030E942D0261E080915F036B
:100E50000E942D021092610381E0809362038093CF
:100E60006303E8E4F2E028E833E08191919188306F
:100E7000910508F03DC1805C9D4FDC018C91D9014A
:100E80008D939D01B2E0E835FB0779F71092650379
:100E9000109264031092670310926603DE011196AC
:100EA000E8E6F3E090E080E030E020E08C014D9156
:100EB0005D91141615060CF023C1BA01620F731F61
:100EC0000196693071050CF415C1309365032093C8
:100ED0006403009366031093670348E050E06FEFEC
:100EE00070E080E993E00E94D80A60E080915B03A3
:100EF0000E94D50120E041E060915D0380915F0395
:100F00000E94030220E041E060915D0380915F0355
:100F10000E94030261E080915B030E94D501109260
:100F20003D0310923C0362E087E30E942D02109281
:100F30003D0310923C0310924A0310924B0310920F
:100F40004C0310924D0310924E0310924F031092D7
:100F500050031092510387E380933F03DD24D39421
:100F6000D0923E0388E8E82E83E1F82EF092410308
:100F7000E092400304E110E0109343030093420326
:100F800010924503109244031092470310924603B7
:100F90001092490310924803109253031092520387
:100FA0001092550310925403109257031092560357
:100FB000109259031092580310925A0310921E0374
:100FC00010921D0362E088E30E942D0210921E031E
:100FD00010921D0310922B0310922C0310922D03DC
:100FE00010922E0310922F031092300310923103AF
:100FF0001092320388E380932003D0921F03F09273
:101000002203E09221031093240300932303109200
:1010100026031092250310922803109227031092A2
:101020002A03109229031092340310923303109272
:101030003603109235031092380310923703109242
:101040003A031092390310923B031092FF02109260
:10105000FE0262E089E30E942D021092FF021092CC
:10106000FE0210920C0310920D0310920E031092C8
:101070000F0310921003109211031092120310929A
:10108000130389E380930103D0920003F0920303DA
:10109000E0920203109305030093040310920703E8
:1010A00010920603109209031092080310920B038A
:1010B00010920A0310921503109214031092170352
:1010C00010921603109219031092180310921B032A
:1010D00010921A0310921C030F900F900F900F9014
:1010E000DF91CF911F910F91FF90EF90DF900895C6
:1010F00080E0C5CE318B208B419351939B01D6CE9E
:101100003093650320936403909367038093660391
:10111000E4CE789484B5826084BD84B5816084BD5A
:1011200085B5826085BD85B5816085BD80916E0085
:10113000816080936E0010928100809181008260B6
:1011400080938100809181008160809381008091F3
:1011500080008160809380008091B10084608093E2
:10116000B1008091B00081608093B00080919100C7
:1011700082608093910080919100816080939100C2
:10118000809190008160809390008091A1008260A6
:101190008093A1008091A10081608093A100809143
:1011A000A00081608093A0008091210182608093E3
:1011B0002101809121018160809321018091200192
:1011C00081608093200180917A00846080937A000E
:1011D00080917A00826080937A0080917A008160A9
:1011E00080937A0080917A00806880937A001092D0
:1011F000C100E0917102F091720282E08083E0917F
:101200006D02F0916E021082E0916F02F091700217
:101210008FEC808310927902E0917502F091760252
:1012200086E08083E0917302F09174028081806196
:101230008083E0917302F0917402808188608083E2
:10124000E0917302F0917402808180688083E09164
:101250007302F091740280818F7D8083C2E0D2E0BE
:101260002AE0E22E22E0F22E1881229661E0812F00
:101270000E942D0261E0812F0E94D501EC16FD062F
:1012800099F787EB92E090935303809352038EEB90
:1012900092E0909334038093330385EC92E0909333
:1012A00015038093140387EE882E87E0982EA12CD7
:1012B000B12C44244A9493E0592E612C712C8CE378
:1012C00093E00E9436048DE193E00E9436048EEF95
:1012D00092E00E94360480910002909101028130D8
:1012E000910509F04AC08EE30E946902BC01990F82
:1012F000880B990B0E94FE0480916203882309F4F5
:10130000D6C0CBE5D3E02091640330916503CE01D4
:101310008B559340821793070CF0E8C060E08091F2
:101320005B030E94D501809163038111B6C02DA596
:1013300040E060915D0380915F030E9403022DA94C
:1013400040E060915D0380915F030E94030261E0D1
:1013500080915B030E94D5010E9486026B017C0193
:101360000E9486026C197D098E099F09683E7340B0
:1013700081059105A8F32196C6CF8230910599F495
:101380008FE30E94690224E630E0DC010E94D10A6A
:10139000A30192010E94790ACA01B9016C597F4FD9
:1013A0008F4F9F4FA7CF039709F0A6CF80E40E94ED
:1013B000690228EC30E0DC010E94D10AA501940109
:1013C0000E94790A69017A0184E6C81AD108E10805
:1013D000F108C701B6010E94FE0481E40E9469027F
:1013E00028EC30E0DC010E94D10AA50194010E94A2
:1013F000790ACA01B9016456710981099109EB01A1
:101400000E94FE04C701B6010E94FE042EECC21623
:101410002FEFD206F4F4CF3C8FEFD80754F060E002
:101420008DE00E94D50161E08CE00E94D50161E071
:101430000BC0E29659F161E08CE00E94D50161E0B9
:101440008DE00E94D50160E08BE00E94D50161E053
:1014500016C08EECC8168FEFD806C1F0CE3C2FEF29
:10146000D2078CF461E08CE00E94D50161E08DE050
:101470000E94D50161E08BE00E94D50160E08AE026
:101480000E94D50139CF60E0E29609F461E08CE07A
:101490000E94D50161E08DE0C8CF2DA940E06091A8
:1014A0005D0380915F030E9403022DA549CF60E098
:1014B00080915B030E94D501C0916403D0916503C4
:1014C000C55ADC4F2197CE018B55934097FD09C03B
:1014D0002DA940E060915D0380915F030E940302AB
:1014E000F1CF61E080915B030E94D5010E94CF03A0
:1014F000E6CE052E97FB1EF400940E94900A57FD3D
:1015000007D00E94980A07FC03D04EF40C94900A6E
:1015100050954095309521953F4F4F4F5F4F08951F
:1015200090958095709561957F4F8F4F9F4F08954F
:10153000A1E21A2EAA1BBB1BFD010DC0AA1FBB1FD7
:10154000EE1FFF1FA217B307E407F50720F0A21B49
:10155000B30BE40BF50B661F771F881F991F1A94B6
:1015600069F760957095809590959B01AC01BD01E0
:10157000CF010895A29FB001B39FC001A39F700D3A
:10158000811D1124911DB29F700D811D1124911D8B
:101590000895EE0FFF1F881F8BBF0790F691E02D77
:1015A00019940E94BA0AB7FF0895821B930B0895FD
:1015B000DC0101C06D9341505040E0F70895F8946C
:0215C000FFCF5B
:1015C20001000D000C000B000A00EE3E9C7A9E8E7C
:1015D200BC6E0C78AE1CEC2A3ACEE68CB61E387C79
:1015E2007E6C76DAFC60DAF266B6BEE0FEE60000F9
:1015F20000006203CC02F902AF032A0308031C03B2
:1016020080402010080402010000010002000300D3
:081612000400050006000700BA
:00000001FF
