:100000000C94A5010C94D6010C94D6010C94D60145
:100010000C94D6010C94D6010C94D6010C94D60104
:100020000C94D6010C94D6010C94D6010C94D601F4
:100030000C94D6010C94D6010C94D6010C94D601E4
:100040000C94D6010C94D6010C94D6010C94D601D4
:100050000C94D6010C94D6010C94D6010C94B005E6
:100060000C94D6010C9424060C94FA050C94D60139
:100070000C94D6010C94D6010C94D6010C94D601A4
:100080000C94D6010C94D6010C94D6010C94D60194
:100090000C94D6010C94D6010C94D6010C94D60184
:1000A0000C94D6010C94D6010C94D6010C94D60174
:1000B0000C94D6010C94D6010C94D6010C94D60164
:1000C0000C94D6010C94D6010C94D6010C94D60154
:1000D0000C94D6010C94D6010C94D6010C94D60144
:1000E0000C94D6010C9446020C944C020C945A02C7
:1000F0000C9427020C9464020C9491020C94F40268
:100100000C9402030C9487030C943E020C942B0273
:100110000C942E020C9442020C9450020C943A035C
:100120000C9408020C940D020C945A060C945E0276
:100130000C9438020C9434020C94A0020C94230208
:100140000C9454020C941F0200407A10F35A00A041
:10015000724E18090010A5D4E80000E87648170090
:1001600000E40B54020000CA9A3B000000E1F505D0
:10017000000080969800000040420F000000A0861A
:1001800001000000102700000000E803000000004C
:100190006400000000000A000000000001000000F0
:1001A00000002C76D888DC674F0823DFC1DFAE590A
:1001B000E1B1B796E5E3E453C63AE651997696E89D
:1001C000E6C28426EB898C9B62ED407C6FFCEFBC21
:1001D0009C9F40F2BAA56FA5F490055A2AF75C934C
:1001E0006B6CF9676DC11BFCE0E40D47FEF520E682
:1001F000B500D0ED902E0300943577050080841E65
:10020000080000204E0A000000C80C333333330FBF
:10021000986E12831141EF8D2114893BE65516CF5C
:10022000FEE6DB18D1844B381BF77C1D901DA4BB68
:10023000E424203284725E228100C9F124ECA1E51D
:100240003D2700002100240027002A002D00300057
:10025000330001010000040107010A01000022002F
:10026000250028002B002E00310034000201000080
:10027000050108010B010505050507050808080823
:10028000020202020A0A080804040404010101012E
:100290000101010103030303030303030407070729
:1002A0000C0C0C0C0C0C0C0C0202020206060606CE
:1002B000060606060B0B0B0B0B0B0B0B010210209B
:1002C000200808102040102040800201020108048C
:1002D0000201010204081020408080402010080420
:1002E0000201800402018040201008040201080479
:1002F00002010102040810204080010204081020BD
:10030000408000000A0B02090C0D0E0807030401CF
:1003100000000000000000000000000000000000DD
:1003200000000000000000000000000000001211AA
:1003300010000000000000000000000000000000AD
:1003400000000000000000005A0611241FBECFEF7D
:10035000D1E2DEBFCDBF00E00CBF23E0A6E3B3E0F7
:1003600001C01D92A83EB207E1F713E0A0E0B2E0A1
:10037000EEE4F4E200E00BBF02C007900D92A6335A
:10038000B107D9F711E0C5EAD1E000E006C0219736
:100390000109802FFE010E94060DC43AD10780E0BA
:1003A0000807A9F70E9499060C9425120C940000E6
:1003B000282F30E0F901EE5FFC4F9491F901E454ED
:1003C000FD4F44912A583D4FF9012491222309F40D
:1003D00035C0992311F191509231F8F4E92FF0E0F2
:1003E0008827EA50FE4F8F4F0C94060D27022B02F0
:1003F00008021F0223020D022E02340238023E02BE
:10040000420246024C0250020D0254025A025E029F
:10041000809180008F7780938000E22FF0E0EE0FD4
:10042000FF1FE45AFD4FA591B4918FB7F894EC915A
:10043000611148C040954E234C938FBF0895809121
:1004400080008F7DE8CF80918000877FE4CF84B5E6
:100450008F7784BDE2CF84B58F7DFBCF8091B000D4
:100460008F778093B000D9CF8091B0008F7DF9CF86
:10047000809190008F7780939000CFCF80919000F3
:100480008F7DF9CF80919000877FF5CF8091A0007C
:100490008F778093A000C1CF8091A0008F7DF9CF8E
:1004A0008091A000877FF5CF809120018F77809386
:1004B0002001B3CF809120018F7DF9CF8091200161
:1004C000877FF5CF4E2BB8CFAF92BF92CF92DF92FE
:1004D000EF92FF920F931F93CF93DF936C017B01F9
:1004E0008B01040F151FEB015E01AE18BF08C0178A
:1004F000D10759F06991D601ED91FC910190F081FD
:10050000E02DC6011995892B79F7C501DF91CF91AF
:100510001F910F91FF90EF90DF90CF90BF90AF9021
:100520000895FC01538D448D252F30E0842F90E0F9
:10053000821B930B541710F0CF96089501970895DE
:10054000FC01918D828D981761F0A28DAE0FBF2FA7
:10055000B11D5D968C91928D9F5F9F73928F90E0FD
:1005600008958FEF9FEF08952FB7F89480913B0384
:1005700090913C03A0913D03B0913E032FBF809327
:10058000470390934803A0934903B0934A038FE332
:1005900093E00E94A00297FF26C02FB7F8948091A5
:1005A0003B0390913C03A0913D03B0913E032FBFCC
:1005B00040914703509148036091490370914A0369
:1005C000841B950BA60BB70B40914303509144033A
:1005D000609145037091460384179507A607B707F6
:1005E000B0F28FEF9FEF0895FC01918D828D9817E7
:1005F00031F0828DE80FF11D858D90E008958FEF29
:100600009FEF0895FC01918D228D892F90E0805CF1
:100610009F4F821B91098F73992708958FE393E071
:100620000E94020321E0892B09F420E0822F089523
:10063000FC01A48DA80FB92FB11DA35ABF4F2C9157
:10064000848D90E001968F739927848FA689B7894E
:100650002C93A089B1898C91837080648C93938D45
:10066000848D981306C00288F389E02D80818F7DE8
:1006700080830895EF92FF920F931F93CF93DF93A0
:10068000EC0181E0888F9B8D8C8D98131AC0E889CE
:10069000F989808185FF15C09FB7F894EE89FF899D
:1006A0006083E889F98980818370806480839FBF3B
:1006B00081E090E0DF91CF911F910F91FF90EF903B
:1006C0000895F62E0B8D10E00F5F1F4F0F7311274B
:1006D000E02E8C8D8E110CC00FB607FCFACFE88986
:1006E000F989808185FFF5CFCE010E941803F1CFF3
:1006F000EB8DEC0FFD2FF11DE35AFF4FF0829FB7FA
:10070000F8940B8FEA89FB8980818062CFCFCF93E9
:10071000DF93EC01888D8823B9F0AA89BB89E88929
:10072000F9898C9185FD03C0808186FD0DC00FB6CF
:1007300007FCF7CF8C9185FFF2CF808185FFEDCF4D
:10074000CE010E941803E9CFDF91CF91089580E098
:1007500090E0892B29F00E940E0381110E94000075
:1007600080E090E0892B49F080E090E0892B29F02F
:100770000E94000081110E94000080E090E0892B1F
:1007800049F080E090E0892B29F00E94000081115F
:100790000E94000080E090E0892B49F080E090E02A
:1007A000892B29F00E94000081110C94000008950B
:1007B000FC0101900020E9F73197AF01481B590B6C
:1007C000BC018FE393E00C946402CF93DF93FC01B0
:1007D00044815581608171818FE393E00E946402BE
:1007E000EC0188E192E00E94D8038C0F9D1FDF91FD
:1007F000CF910895FB0144815581FC01248135810D
:100800002417350778F080819181009759F0FB011A
:10081000608171816115710529F00E94410F21E00D
:10082000892B09F020E0822F08950F931F93CF9317
:10083000DF93EC0188819981009759F02A813B81EF
:100840002617370730F081E0DF91CF911F910F918C
:1008500008958B016F5F7F4F0E94470E009759F0FC
:10086000998388831B830A832C813D81232B59F72D
:10087000FC011082E8CF80E0E7CFEF92FF920F9368
:100880001F93CF93DF936115710541F480E0DF91F1
:10089000CF911F910F91FF90EF9008954115510551
:1008A000B1F07B01EC010C811D81040F151FB80113
:1008B0000E941504882351F3288139818C819D8100
:1008C000B701820F931F0E943A0F1D830C8381E0B2
:1008D000DECFCF93DF93EC0188819981009711F0EF
:1008E0000E94BE0D198218821D821C821B821A82F0
:1008F000DF91CF910895CF93DF93EC01FB0101903D
:100900000020E9F73197AF01461B570B0E943D04C9
:10091000811103C0CE010E946904CE01DF91CF9105
:100920000895CF93DF93EC01FB01448155816081F1
:1009300071810E943D04811103C0CE010E946904AF
:10094000CE01DF91CF910895EF92FF920F931F9305
:10095000CF93DF93EC017B018A01BA010E94150459
:1009600081110BC0CE010E946904CE01DF91CF91AD
:100970001F910F91FF90EF9008951D830C83B70195
:10098000888199810E943A0FF0CFFB0101900020ED
:10099000E9F73197AF01461B570B0C94A4040F9352
:1009A0001F93CF93DF93CDB7DEB762970FB6F8945E
:1009B000DEBF0FBECDBF8C01CB01F80111821082CA
:1009C00013821282158214824AE0BE016F5F7F4F4C
:1009D0000E944B0ABE016F5F7F4FC8010E94C50491
:1009E00062960FB6F894DEBF0FBECDBFDF91CF91F8
:1009F0001F910F910895FB01DC0111961C921E922C
:100A000013961C921E92129715961C921E92149782
:100A10008617970749F0608171816115710521F092
:100A2000448155810C94A4040895FC011182108224
:100A30001382128215821482FB0101900020E9F7D3
:100A40003197AF01461B570B0C94A404AF92BF9291
:100A5000CF92DF92EF92FF920F931F93CF93DF938A
:100A60006C015B017A0189012417350720F48F2D71
:100A70007901042F182F6AE172E0C6010E94150562
:100A8000D5011496CD91DC91EC16FD06E0F40C171F
:100A90001D0708F4E801D501ED91FC911197EC0FC9
:100AA000FD1F108110826D917C916E0D7F1DC6011E
:100AB00061157105A1F00E94C504F5018081918145
:100AC000C80FD91F1883C601DF91CF911F910F91D5
:100AD000FF90EF90DF90CF90BF90AF9008950E946D
:100AE0006904EBCFFC0180819181009711F00C9497
:100AF000BE0D0895EF92FF920F931F93CF93DF9354
:100B0000CDB7DEB7A1970FB6F894DEBF0FBECDBF4D
:100B10007C01CB01BA01F70111821082138212828B
:100B20001582148242E0420F8E010F5F1F4F0E9418
:100B3000060A009789F0BC01C7010E94C504A1966E
:100B40000FB6F894DEBF0FBECDBFDF91CF911F91DE
:100B50000F91FF90EF900895C7010E946904EFCFB5
:100B60001F920F920FB60F9211242F933F938F93E2
:100B70009F93AF93BF9380913B0390913C03A091CF
:100B80003D03B0913E0330913A0323E0230F2D370C
:100B900058F50196A11DB11D20933A0380933B03A4
:100BA00090933C03A0933D03B0933E0380913603A2
:100BB00090913703A0913803B09139030196A11D9C
:100BC000B11D8093360390933703A0933803B093FD
:100BD0003903BF91AF919F918F913F912F910F90CA
:100BE0000FBE0F901F90189526E8230F0296A11DA7
:100BF000B11DD2CF1F920F920FB60F9211240BB6D8
:100C00000F922F933F934F935F936F937F938F93A5
:100C10009F93AF93BF93EF93FF938FE393E00E9473
:100C20001803FF91EF91BF91AF919F918F917F91A9
:100C30006F915F914F913F912F910F900BBE0F904D
:100C40000FBE0F901F9018951F920F920FB60F9224
:100C500011240BB60F922F938F939F93EF93FF93D3
:100C6000E0914F03F09150038081E0915503F091A2
:100C7000560382FD1DC09081809158038F5F8F7352
:100C800020915903821741F0E0915803F0E0E15CB4
:100C9000FC4F958F80935803FF91EF919F918F9117
:100CA0002F910F900BBE0F900FBE0F901F901895B5
:100CB0008081F2CFEFE3F3E01382128288EE93E0BB
:100CC000A0E0B0E084839583A683B7838AE092E0B6
:100CD0009183808385EC90E09587848784EC90E015
:100CE0009787868780EC90E0918B808B81EC90E0F9
:100CF000938B828B82EC90E0958B848B86EC90E0DA
:100D0000978B868B118E128E138E148EECEDF3E082
:100D10008DE090E0918380838CE090E093838283E8
:100D20008BE090E0958384838AE090E097838683CC
:100D30000895CF93DF93CDB7DEB7CE58D1090FB664
:100D4000F894DEBF0FBECDBF789484B5826084BDB9
:100D500084B5816084BD85B5826085BD85B58160BF
:100D600085BD80916E00816080936E00109281003D
:100D700080918100826080938100809181008160F8
:100D800080938100809180008160809380008091B9
:100D9000B10084608093B1008091B0008160809345
:100DA000B0008091910082608093910080919100C9
:100DB0008160809391008091900081608093900089
:100DC0008091A10082608093A1008091A100816048
:100DD0008093A1008091A00081608093A000809109
:100DE00021018260809321018091210181608093A3
:100DF00021018091200181608093200180917A00FF
:100E0000846080937A0080917A00826080937A0077
:100E100080917A00816080937A0080917A00806866
:100E200080937A001092C1000CED13E044EEE42EA2
:100E300043E0F42EF801819191918F019927FC01F3
:100E4000E454FD4F24918A589D4FFC0184918823DE
:100E500099F090E0880F991FFC01EE5BFD4FA59182
:100E6000B491FC01E45AFD4F859194918FB7F894A9
:100E7000EC91E22BEC938FBF61E0F8013297808117
:100E80000E94D801E016F106A9F6E0914F03F09117
:100E9000500382E08083E0914B03F0914C03108279
:100EA000E0914D03F0914E038FEC80831092570335
:100EB000E0915303F091540386E08083E091510365
:100EC000F0915203808180618083E0915103F09121
:100ED0005203808188608083E0915103F091520336
:100EE000808180688083E0915103F091520380817A
:100EF0008F7D80838BE192E00E94D80388E192E0AD
:100F00000E94D80380E292E00E94D80319A282E3F3
:100F100088A384E38F8FCE014F960E94D80388E187
:100F200092E00E94D8031F928AE28F938AE392E0B4
:100F30009F938F938E010F5F1F4F1F930F930E94FC
:100F40004F0FC8010E94D80388E192E00E94D803A5
:100F500067E572E0CE0187579F4F0E9415056AE250
:100F600070E0CE018D579F4F0E94CF04BE0167579E
:100F70007F4FCE018B599F4F0E94FB04BE016D57DE
:100F80007F4FCE018B599F4F0E949104BC01CE012F
:100F900083589F4F0E94FB04CE018B599F4F0E94A4
:100FA0007205CE0183589F4F0E94E50323E044E180
:100FB0005EEA69E272E4CE018B599F4F0E947A0586
:100FC00061E772E0CE0185599F4F0E941505BE0171
:100FD0006B597F4FCE0185599F4F0E949104BC01F0
:100FE000CE0189589F4F0E94FB04CE0185599F4F27
:100FF0000E947205CE018B599F4F0E947205CE014F
:1010000089589F4F0E94E50325E047E850E56DEBC6
:1010100070E4CE018B599F4F0E947A0568E972E017
:10102000CE0185599F4F0E941505BE016B597F4F18
:10103000CE0185599F4F0E9491046FEA72E00E9491
:101040007B04BC01CE018F589F4F0E94FB04CE0150
:1010500085599F4F0E947205CE018B599F4F0E9468
:101060007205CE018F589F4F0E94E5038AE090E001
:10107000A0E0B0E08093430390934403A093450322
:10108000B0934603CE018F589F4F0E947205CE0148
:1010900089589F4F0E947205CE0183589F4F0E942E
:1010A0007205CE018D579F4F0E947205CE01875762
:1010B0009F4F0E9472050F900F900F900F900F900E
:1010C0000F909AE0692E712C8FE393E00E94020347
:1010D000181619060CF04FC16AE172E0CE018F5864
:1010E0009F4F0E9415050E94B40297FD0EC08A30E2
:1010F000910559F089831A8241E050E0B801CE0190
:101100008F589F4F0E943D04EECFE396AEACBFAC2C
:10111000E397A114B10449F0E796EEACFFACE79772
:101120006501E114F10409F02AC1E7968EAD9FAD87
:10113000E797892BB9F0E396EEACFFACE39763EC4D
:1011400072E0C7010E94310F60E0892B41F06BEC27
:1011500072E0C7010E94310F892B21F461E08DE01C
:101160000E94D80162ED72E0C8010E941505B80125
:10117000CE018F589F4F0E94FA03F82EC8010E949B
:101180007205FF2039F1E7962EAD3FADE7974CE0B1
:1011900050E0BE016F587F4FCE018B599F4F0E9488
:1011A00026056FED72E0C8010E941505BE016B595E
:1011B0007F4FC8010E94910464EE72E00E947B049C
:1011C0000E94E503C8010E947205CE018B599F4F12
:1011D0000E94720568EF72E0CE018B599F4F0E940A
:1011E0001505BE016B597F4FCE018F589F4F0E944E
:1011F000FA03F12C882339F162E073E0C8010E9400
:101200001505E7962EAD3FADE7974D815E8124171A
:101210003507A8F0E3968EAD9FADE397009779F080
:1012200069817A816115710551F0241B350B820F9C
:10123000931F0E94310FFF24F394892B09F0F12CA6
:10124000C8010E947205CE018B599F4F0E94720502
:10125000FF2009F440C0E7962EAD3FADE79725503B
:10126000310949E050E0BE016F587F4FCE018559EA
:101270009F4F0E942605AD968EAD9FADAD9700970E
:1012800009F4BCC00E94240ACB01B3010E94F20CF5
:10129000CE018B599F4F0E94CF0468E073E0C801D4
:1012A0000E941505BE016B597F4FC8010E94910431
:1012B00068E173E00E947B040E94E503C8010E947C
:1012C0007205CE018B599F4F0E947205CE01855940
:1012D0009F4F0E94720562E273E0C8010E941505EB
:1012E000B801CE018F589F4F0E94FA03F82EC80113
:1012F0000E947205FF20D1F1E7962EAD3FADE79732
:10130000A90141505109BE016F587F4FCE018B5941
:101310009F4F0E9426056FE273E0C8010E941505E9
:10132000BE016B597F4FC8010E9491040E94E503E2
:10133000C8010E947205A7968EAD9FADA797009732
:1013400009F460C00E94240A615071098109910961
:10135000660F771FFB01E452FC4F60E080810E9422
:10136000D801CE018B599F4F0E947205CE018F5834
:101370009F4F0E9472050E94A703A6CE64014601FA
:10138000FFEF8F1A9F0AF6018081082E000C990B3F
:101390000E94D60C892B91F7F1E0EF1AF108EA0CC4
:1013A000FB1CF7018081082E000C990B0E94D60CC3
:1013B000892B39F0EC14FD0420F0F1E0EF1AF1086C
:1013C000F0CF8FEFE81AF80AA7014C195D09E796EC
:1013D0005FAF4EAFE797AC14BD0420F4B601C50172
:1013E0000E94280FE396EEADFFADE397E7968EAD32
:1013F0009FADE797E80FF91F108297CE60E070E08D
:10140000CB0142CF60E070E0CB019ECFEF920F9313
:101410001F93CF93DF93E80134E047FD34E1042EBE
:10142000000C550B57FF03C0519541955109E32E10
:10143000022F242FAE010E94850ACE01DF91CF91A9
:101440001F910F91EF9008951F93FC019927882712
:10145000BC01E89411911032E9F3193010F01E30FC
:10146000C8F31B3251F01D3249F4689406C00E9443
:10147000560A610F711D811D911D119110531A3073
:10148000B0F33EF490958095709561957F4F8F4FA6
:101490009F4F1F910895BB274A3031F4992322F4BE
:1014A000BDE2909581959F4F0C946C0A592F482F5F
:1014B000372F262F660F771F881F991F660F771FFC
:1014C000881F991F620F731F841F951F660F771F58
:1014D000881F991F0895BB27FB015527AA27880F4E
:1014E000991FAA1FA41710F0A41B83955051B9F798
:1014F000A05DAA3308F0A95DA193009779F7B11117
:10150000B1931192CB010C94DF0C8F929F92AF920A
:10151000BF92CF92DF92EF92FF920F931F93CF93E0
:10152000DF9300D000D000D0CDB7DEB76A01F22E35
:10153000B02E102FFBE3AF2EA01608F41BE31F5FA5
:10154000012F27E0AE014F5F5F4F0E94FE0BBC01F1
:101550008981982F9970913009F44EC09BE2E1FC8B
:1015600004C09E2D9170E0FC49C05E2D5071E82FA3
:10157000E87083FF55C084E0911101C083E0EF2D36
:10158000E81B8F1508F0E0E0D6018E2F20E25523EE
:10159000C9F1992329F0D6019C93C60101966C01EB
:1015A00096012D5F3F4FE2FE33C08EE4D6018C934F
:1015B00091E411969C93119712968C93D9018E2FDA
:1015C00090E281112AC0E20FF32FF11D10828EEFFD
:1015D0009FEF29960FB6F894DEBF0FBECDBFDF9107
:1015E000CF911F910F91FF90EF90DF90CF90BF9020
:1015F000AF909F908F9008959DE2B7CF90E2B5CFC6
:101600002D9381508111FCCFCE0ED11CE0E0C1CFD3
:101610008EE6D6018C9391E6CCCF9D938150D1CFAD
:10162000482F447082FF3DC084E0911101C083E0E7
:101630008F1510F4EF2DE81BD6018E2F20E25523D5
:1016400009F1992329F0D6019C93C60101966C01FA
:1016500096012D5F3F4FE2FE1BC089E4D6018C93BB
:101660008EE411968C93119786E412968C93D9018F
:101670008E2F90E2882309F4A6CF9D938150FACF54
:101680002D9381508111FCCFCE0ED11CE0E0D9CF3B
:1016900089E6D6018C938EE611968C93119786E697
:1016A000E4CF9B0177FF02C030E020E0A1E0B0E092
:1016B000911102C0B0E0A0E0F9013196AE0FBF1F5A
:1016C0008B2C912CBB2009F461C05401EFEFAE1AB2
:1016D000BE0AAA0DBB1DFA161B0619F014F04F2DF9
:1016E0004A1B511188C0E3FC59C07601A42FB0E217
:1016F000A1114FC0C40ED11C992309F45BC040E076
:10170000D6011196F60190836D01552309F448C066
:10171000012F060F9A81582F507184FF03C0913317
:1017200009F4015010160CF047C0093008F008E029
:10173000EEE2FE2E5B01A01AB1088501919481941E
:1017400091082F3F320729F4D601FC92F601319619
:101750006F016217730794F1021713077CF5DB0121
:10176000A21BB30BAA24A394B12CAC0EBD1EAA0DD0
:10177000BB1D11968C9121503109D6011196281567
:101780003905F4F0F60180836D01DBCFB12CA12C7B
:10179000A0CFF701B1937F01A150AACF9111B0CF93
:1017A000D601942F50E302C05D9391509111FCCF6C
:1017B000C40ED11C40E0ACCF01E0BACF80E3DBCF58
:1017C0006217730731F4963388F4953311F4552377
:1017D00069F0F6018083FD01842F90E2811108C039
:1017E000A40FB11D1C9290E080E0F3CE81E3F1CF15
:1017F00091938150F3CF911183CF8ACF283008F095
:1018000027E03327DA01990F311D87FD916000969B
:101810006105710539F432602E5F3D9330E32A95FE
:10182000E1F708959F3F30F080387105610509F0B8
:101830003C5F3C5F3D93913008F08068911DDF93E1
:10184000CF931F930F93FF92EF92192F987F969546
:10185000E92F96959695E90FFF27EE55FE4F9927AC
:101860003327EE24FF24A701E7010590089407948D
:1018700028F4360FE71EF81E491F511D660F771F0B
:10188000881F991F0694A1F70590079428F4E70E86
:10189000F81E491F561FC11D770F881F991F661F0D
:1018A0000694A1F70590079428F4F80E491F561FD7
:1018B000C71FD11D880F991F661F771F0694A1F7B8
:1018C0000590079420F4490F561FC71FD81F990F82
:1018D000661F771F881F0694A9F7849110951770CB
:1018E00041F0D695C79557954795F794E7941A9583
:1018F000C1F7E8E4F1E06894159015913591659190
:10190000959105907FE27395E118F10A430B560B10
:10191000C90BD009C0F7E10CF11E431F561FC91FA8
:10192000D01D7EF4703311F48A95E6CFE89401500F
:1019300030F0080F0AF40027021708F4202F23952F
:10194000022F7A3328F079E37D932A95E9F710C0C6
:101950007D932A9589F606949795679537951795FF
:101960001794E118F10A430B560BC90BD00998F0F4
:1019700023957E9173957A3308F070E37C9320135E
:10198000B8F77E9170617D9330F0839571E37D931C
:1019900070E32A95E1F71124EF90FF900F911F91CA
:1019A000CF91DF91992787FD9095089591110C941F
:1019B000EF0C803219F089508550C8F70895DC018A
:1019C000FC01672F71917723E1F7329704C07C9176
:1019D0006D9370836291AE17BF07C8F3089599277E
:1019E0008827089597FB072E16F4009407D077FDFB
:1019F00009D00E940E0D07FC05D03EF4909581950C
:101A00009F4F0895709561957F4F0895EE0FFF1FCA
:101A1000881F8BBF0790F691E02D1994AA1BBB1B62
:101A200051E107C0AA1FBB1FA617B70710F0A61BDE
:101A3000B70B881F991F5A95A9F780959095BC01FF
:101A4000CD0108950F931F93CF93DF9382309105BB
:101A500010F482E090E0E091E603F091E70330E0DB
:101A600020E0B0E0A0E0309799F42115310509F4A9
:101A70004AC0281B390B24303105D8F58A819B8157
:101A80006115710589F1FB0193838283FE0111C009
:101A9000408151810281138148175907E0F04817AE
:101AA000590799F4109761F012960C9312971396B8
:101AB0001C933296CF01DF91CF911F910F91089522
:101AC0000093E6031093E703F4CF2115310551F09D
:101AD0004217530738F0A901DB019A01BD01DF016C
:101AE000F801C1CFEF01F9CF9093E7038093E603AC
:101AF000CDCFFE01E20FF31F819391932250310964
:101B000039832883D7CF2091E4033091E503232B39
:101B100041F420910202309103023093E5032093B7
:101B2000E40320910002309101022115310541F4B6
:101B30002DB73EB74091040250910502241B350B8E
:101B4000E091E403F091E503E217F307A0F42E1B04
:101B50003F0B2817390778F0AC014E5F5F4F241711
:101B6000350748F04E0F5F1F5093E5034093E403A1
:101B7000819391939FCFF0E0E0E09CCFCF93DF93F0
:101B80000097E9F0FC01329713821282A091E603DC
:101B9000B091E703ED0130E020E01097A1F420813F
:101BA0003181820F931F2091E4033091E5032817C0
:101BB000390709F061C0F093E503E093E403DF9196
:101BC000CF910895EA01CE17DF07E8F54A815B81DE
:101BD0009E0141155105B1F7E901FB83EA83499163
:101BE0005991C40FD51FEC17FD0761F480819181D5
:101BF0000296840F951FE9019983888382819381DE
:101C00009B838A83F0E0E0E012968D919C9113977C
:101C10000097B9F52D913C911197CD010296820F55
:101C2000931F2091E4033091E5032817390739F613
:101C3000309751F51092E7031092E603B093E50355
:101C4000A093E403BCCFD383C28340815181840F2E
:101C5000951FC817D90761F44E5F5F4F888199813E
:101C6000480F591F518340838A819B8193838283CC
:101C70002115310509F0B0CFF093E703E093E603B7
:101C80009ECFFD01DC01C0CF13821282D7CF4F92CD
:101C90005F926F927F928F929F92AF92BF92CF92FC
:101CA000DF92EF92FF920F931F93CF93DF938C01FC
:101CB000009799F4CB01DF91CF911F910F91FF9085
:101CC000EF90DF90CF90BF90AF909F908F907F90DC
:101CD0006F905F904F900C94220DFC01E60FF71F60
:101CE0009C0122503109E217F30708F4AEC0D90174
:101CF000CD91DC911197C617D70720F1C530D105DA
:101D000078F0CE0104978617970750F0C61BD70BC3
:101D10002297C193D1936D937C93CF010E94BE0D06
:101D2000C801DF91CF911F910F91FF90EF90DF904D
:101D3000CF90BF90AF909F908F907F906F905F906B
:101D40004F9008955B01AC1ABD0A4C018C0E9D1E8C
:101D5000A091E603B091E703512C412CF12CE12C2A
:101D6000109731F58091E4039091E503881599056A
:101D700009F05CC04616570608F058C08091000272
:101D800090910102009741F48DB79EB740910402F3
:101D900050910502841B950BE817F90708F055C010
:101DA000F093E503E093E403F90171836083B8CF16
:101DB0008D919C91119712966C90129713967C902E
:101DC0001397A815B90559F56C0142E0C40ED11C52
:101DD000CA14DB0420F1AC014A195B09DA0112963E
:101DE000159780F06282738251834083D9016D938D
:101DF0007C93E114F10471F0D7011396FC93EE93F8
:101E000012978ECF22968C0F9D1FF90191838083AC
:101E1000F301EFCFF093E703E093E60381CF481699
:101E2000590608F42C017D01D3019ACFCB010E9401
:101E3000220D7C01009749F0AE01B8010E94280FE5
:101E4000C8010E94BE0D87016BCF10E000E068CF93
:101E5000FB01DC0102C001900D9241505040D8F7C7
:101E60000895FB01DC018D91019080190110D9F3D7
:101E7000990B0895FB01DC0101900D920020E1F720
:101E80000895FB01DC014150504030F08D910190EC
:101E9000801919F40020B9F7881B990B08950F9346
:101EA0001F93CF93DF93CDB7DEB72E970FB6F8947D
:101EB000DEBF0FBECDBF0E891F8986E08C831A83DB
:101EC00009838FEF9FE79E838D83AE01465E5F4F50
:101ED000688D798DCE0101960E947F0F2F81388504
:101EE000020F131FF80110822E960FB6F894DEBF72
:101EF0000FBECDBFDF91CF911F910F9108952F920B
:101F00003F924F925F926F927F928F929F92AF9289
:101F1000BF92CF92DF92EF92FF920F931F93CF93D6
:101F2000DF9300D000D000D01F921F92CDB7DEB754
:101F30007C013B018A01FC0117821682838181FFAB
:101F4000DDC1CE0101965C01F7019381F30193FDA0
:101F5000859193FF81913F01882309F453C1853214
:101F600039F493FD859193FF81913F01853229F4E6
:101F7000B70190E00E949711E7CF912C212C312CD2
:101F8000FFE1F31538F08B3211F190F4803209F152
:101F9000833229F137FC3CC020ED280F2A3050F560
:101FA00036FE20C08AE0989E200D1124922E06C095
:101FB0008D3291F0803371F7689430F8F30193FD1E
:101FC000859193FF81913F018111DACF21C06894FF
:101FD00031F8689432F8F2CF689433F8EFCF689410
:101FE00034F8ECCFEAE02E9E200D1124222E6894C6
:101FF00035F8E4CF8E3229F436FC04C1689436F803
:10200000DDCF8C3619F4689437F8D8CF8836B1F222
:10201000982F9F7D95549330E0F08336A1F183375C
:10202000C1F1833509F063C02801F2E04F0E511C65
:10203000F801C080D180692D70E036FC02C06FEFDE
:102040007FEFC6010E9481114C01689437F882012C
:102050000AC00C5F1F4FFFE3F98388248394912CFF
:102060006501E89437F833FE2DC0522C8114910499
:1020700071F5552009F468CFB70180E290E00E9425
:1020800097115A94F6CFF801808189830E5F1F4F14
:10209000E4CF2801F2E04F0E511CF801C080D1803E
:1020A000692D70E036FC02C06FEF7FEFC6010E9421
:1020B0008C114C018201D5CFB70180E290E00E94E3
:1020C00097112A942814190409F0B0F7CECFF6011D
:1020D00037FC859137FE81916F01B70190E00E9436
:1020E000971151105A94F1E08F1A9108BFCF84369E
:1020F00019F0893609F077C0F80137FE6BC06081AE
:102100007181828193810C5F1F4FF32DFF763F2EEB
:1021100097FF09C090958095709561957F4F8F4F7F
:102120009F4F689437F82AE030E0A5010E94C7115C
:10213000C82ECA188C2C432C36FE0CC0E89440F8EC
:10214000C91440F434FE05C032FC03C0F32DFE7EFA
:102150004F2E892C44FEAAC0FE01EC0DF11D80819A
:10216000803309F09CC0242D297E422E842D887056
:10217000582E43FCAAC040FEA4C09C2C821418F424
:102180002C0C922C981844FEA6C0B70180E390E076
:102190000E94971142FE09C088E790E041FE02C00C
:1021A00088E590E0B7010E949711C91408F49FC018
:1021B000CA94D12C9FEFC91AD90ACA0CDB1CF601AC
:1021C00082916F01B70190E00E949711AC14BD0499
:1021D000B1F74FCF60817181072E000C880B990BEE
:1021E0000E5F1F4F92CFD32CE894D4F82AE030E052
:1021F0008537E1F1232D297FD22E8F36A9F1F0F416
:10220000883551F1F701868197812B960FB6F894A6
:10221000DEBF0FBECDBFDF91CF911F910F91FF9019
:10222000EF90DF90CF90BF90AF909F908F907F9076
:102230006F905F904F903F902F900895803749F0B6
:10224000883701F7D4FE02C06894D2F820E130E06C
:102250000DC06894D4F8F6CF34FE03C0822F866098
:10226000D82E20E132E002C028E030E0F801D7FEAD
:102270000FC060817181828193810C5F1F4FA50126
:102280000E94C711C82ECA183D2CE89437F852CFC7
:102290006081718190E080E00E5F1F4FF0CF42FCC3
:1022A00002C0839463CF8394839460CF842D867817
:1022B00009F45CCFF6CFB70180E290E00E9497115D
:1022C00083948214C0F3512C5ECF522C5818821480
:1022D00008F459CFF8CF842D867809F466CF8BE2C5
:1022E00041FE80E247FC8DE2B70190E05CCFB70190
:1022F00080E390E00E9497119A9457CF8FEF9FEF61
:1023000084CFFC010590615070400110D8F7809592
:1023100090958E0F9F1F0895FC01615070400190B1
:102320000110D8F7809590958E0F9F1F08950F93F9
:102330001F93CF93DF93182F092FEB018B8181FD22
:1023400009C01FEF0FEF812F902FDF91CF911F91C9
:102350000F91089582FF14C02E813F818C819D8151
:10236000281739073CF4E881F981CF010196998358
:10237000888310838E819F8101969F838E83E3CF14
:10238000E885F985812F1995892BA1F3DACFFA0118
:10239000AA27283051F1203181F1E8946F936E7FA4
:1023A0006E5F7F4F8F4F9F4FAF4FB1E03ED0B4E095
:1023B0003CD0670F781F891F9A1FA11D680F791FD6
:1023C0008A1F911DA11D6A0F711D811D911DA11DE7
:1023D00020D009F468943F912AE0269F11243019F7
:1023E000305D3193DEF6CF010895462F4770405D92
:1023F0004193B3E00FD0C9F7F6CF462F4F70405D41
:102400004A3318F0495D31FD4052419302D0A9F79B
:10241000EACFB4E0A6959795879577956795BA9595
:10242000C9F700976105710508959B01AC010A2E5B
:1024300006945795479537952795BA95C9F7620F32
:0E244000731F841F951FA01D0895F894FFCFF1
:10244E000000E8038000000000003A0364029102DD
:10245E0087030203A002F4020D0A002D2D2D2D007C
:10246E004120726573706F737461202876696120E4
:10247E0073657269616C293A200041207265737030
:10248E006F737461202876696120737072696E743F
:10249E0066293A202564004120726573706F73744B
:1024AE0061202876696120537472696E67293A201B
:1024BE00004120726573706F7374612028636F6DB5
:1024CE00206D616973206361736173206465636954
:1024DE006D616973293A20005261697A20717561C4
:1024EE006472616461206465203335203D200020D4
:1024FE00286170726F78696D6164616D656E746567
:10250E00292E006163656E6465720061706167619A
:10251E0072006575206D65206368616D6F20004FD8
:10252E00692C200021205475646F2062656D206334
:10253E006F6E7469676F3F0065752074656E686FA6
:10254E00200020616E6F7300566F636520636F6DA0
:10255E00706C65746F7520002064656361646173CF
:10256E002E006163656E646572206C656420006C7C
:06257E0065643A20000034
:00000001FF
