:020000040000FA
:100000000C9419040C944A040C944A040C944A0469
:100010000C944A040C944A040C944A040C944A0428
:100020000C944A040C944A040C944A040C944A0418
:100030000C944A040C944A040C944A040C944A0408
:100040000C944A040C944A040C944A040C944A04F8
:100050000C944A040C944A040C944A040C94F61729
:100060000C944A040C946A180C9440180C944A049A
:100070000C944A040C944A040C944A040C944A04C8
:100080000C944A040C944A040C944A040C944A04B8
:100090000C944A040C944A040C944A040C94A0183E
:1000A0000C944A040C944A040C944A040C944A0498
:1000B0000C944A040C944A040C944A040C944A0488
:1000C0000C944A040C944A040C944A040C944A0478
:1000D0000C944A040C944A040C944A040C944A0468
:1000E0000C944A040C9446140C949F0A0C94050F2B
:1000F0000C942C0C0C9493040C942E0A0C94AA04CB
:100100000C9470040C949A130C9419080C94B8076E
:100110000C9478040C946A040C947C040C943406BB
:100120000C94BB0B0C94DA050C9448160C94CB057C
:100130000C94EE050C94360C0C9489040C949E05DA
:100140000C947F040C94BF0C0C94AB040C945616C6
:100150000C9485040C94BD090C94E00A0C94A5043D
:100160000C9497040C94890B0C94D70F0C94AC0945
:100170000C94AF040C9474040C94FC050C94A1042E
:100180000C948F040C9497120C9447140C948106D1
:100190000C94C0190C949D040C941F120C94200B09
:1001A00000000000003E5B4F5B3E3E6B4F6B3E1C11
:1001B0003E7C3E1C183C7E3C181C577D571C1C5E28
:1001C0007F5E1C00183C1800FFE7C3E7FF001824FF
:1001D0001800FFE7DBE7FF30483A060E26297929A9
:1001E00026407F050507407F05253F5A3CE73C5ADE
:1001F0007F3E1C1C08081C1C3E7F14227F22145FBB
:100200005F005F5F06097F017F006689956A606015
:1002100060606094A2FFA29408047E040810207E0F
:10022000201008082A1C08081C2A08081E10101094
:10023000100C1E0C1E0C30383E3830060E3E0E06DA
:10024000000000000000005F00000007000700142D
:100250007F147F14242A7F2A1223130864623649EC
:100260005620500008070300001C224100004122D4
:100270001C002A1C7F1C2A08083E080800807030D9
:100280000008080808080000606000201008040248
:100290003E5149453E00427F40007249494946214E
:1002A00041494D331814127F1027454545393C4AC2
:1002B00049493141211109073649494936464949D9
:1002C000291E000014000000403400000008142221
:1002D000411414141414004122140802015909068F
:1002E0003E415D594E7C1211127C7F494949363E90
:1002F000414141227F4141413E7F494949417F0976
:100300000909013E414151737F0808087F00417F80
:1003100041002040413F017F081422417F4040407E
:10032000407F021C027F7F0408107F3E4141413E16
:100330007F090909063E4151215E7F091929462698
:100340004949493203017F01033F4040403F1F209C
:1003500040201F3F4038403F631408146303047873
:1003600004036159494D43007F4141410204081093
:1003700020004141417F04020102044040404040CE
:10038000000307080020545478407F28444438383C
:1003900044444428384444287F38545454180008AE
:1003A0007E090218A4A49C787F0804047800447D88
:1003B00040002040403D007F1028440000417F4025
:1003C000007C047804787C08040478384444443879
:1003D000FC1824241818242418FC7C080404084859
:1003E0005454542404043F44243C4040207C1C20AA
:1003F00040201C3C4030403C44281028444C909005
:10040000907C4464544C440008364100000077005E
:1004100000004136080002010204023C2623263C6B
:100420001EA1A161123A4040207A385454555921F6
:1004300055557941225454784221555478402054DE
:100440005579400C1E52721239555555593954542C
:10045000545939555454580000457C410002457D9B
:10046000420001457C407D1211127DF0282528F0C4
:100470007C545545002054547C547C0A097F4932F1
:10048000494949323A4444443A324A4848303A4168
:1004900041217A3A42402078009DA0A07D3D424211
:1004A000423D3D4040403D3C24FF2424487E49439A
:1004B000662B2FFC2F2BFF0929F620C0887E09030D
:1004C00020545479410000447D413048484A323834
:1004D0004040227A007A0A0A727D0D19317D262960
:1004E000292F28262929292630484D402038080858
:1004F000080808080808382F10C8ACBA2F1028348C
:10050000FA00007B000008142A142222142A14087E
:100510005500550055AA55AA55AAFF55FF55FF008D
:100520000000FF00101010FF00141414FF00101042
:10053000FF00FF1010F010F0141414FC001414F756
:1005400000FF0000FF00FF1414F404FC1414171043
:100550001F10101F101F1414141F00101010F00093
:100560000000001F101010101F10101010F01000CD
:100570000000FF101010101010101010FF100000DD
:1005800000FF140000FF00FF00001F10170000FC18
:1005900004F414141710171414F404F40000FF00EA
:1005A000F714141414141414F700F7141414171473
:1005B00010101F101F141414F4141010F010F00079
:1005C000001F101F0000001F14000000FC1400009A
:1005D000F010F01010FF10FF141414FF141010107E
:1005E0001F00000000F010FFFFFFFFFFF0F0F0F031
:1005F000F0FFFFFF0000000000FFFF0F0F0F0F0FC5
:100600003844443844FC4A4A4A347E020206060210
:100610007E027E0263554941633844443C04407E77
:10062000201E2006027E020299A5E7A5991C2A49F0
:100630002A1C4C7201724C304A4D4D30304878487B
:1006400030BC625A463D3E494949007E0101017E67
:100650002A2A2A2A2A44445F444440514A444040BA
:10066000444A51400000FF0103E080FF00000808F9
:100670006B6B083612362436060F090F0600001879
:10068000180000001010003040FF0101001F0101A0
:100690001E00191D1712003C3C3C3C0000000000ED
:1006A000EF03038002CF0300C130ED046403128125
:1006B000E803850078CB05392C003402F70120EAE5
:1006C000020000C00123C10110C5023E28C70186F7
:1006D0003601483701003A0155B1020018B6030847
:1006E0008227F20100260101E00F0F312B0C0E08CA
:1006F0004EF1370710030E0900E10F000E1403112D
:100700000731C148080F0C31360F118029800000D5
:10071000002100240027002A002D003000330001B2
:10072000010000040107010A010000200023002647
:100730000029002C002F00320000010000030106F8
:1007400001090100000A0B02090C0D0E0807030441
:100750000100000000000000000000000000000098
:100760000000000000000000000000000000001277
:100770001110000000000000000000000000000058
:100780000000000000000000000102102020080806
:1007900010204010204080020102010804020101E3
:1007A00002040810204080804020100804020180CC
:1007B0000402018040201008040201080402010123
:1007C000020408102040800102040810204080002C
:1007D000002200250028002B002E003100340002EA
:1007E000010000050108010B0105050505070508C5
:1007F000080808020202020A0A08080404040401A4
:1008000001010101010101030303030303030304C5
:100810000707070C0C0C0C0C0C0C0C020202020655
:10082000060606060606060B0B0B0B0B0B0B0B0046
:10083000C01911241FBECFEFD1E2DEBFCDBF00E053
:100840000CBF12E0A0E0B2E0E4EDFCE300E00BBF7F
:1008500002C007900D92A438B107D9F724E0A4E8AC
:10086000B2E001C01D92AD32B207E1F714E0C9E178
:10087000D4E000E006C021970109802FFE010E940C
:100880000C1EC831D10780E00807A9F70E94C61ADC
:100890000C94681E0C9400008150823108F05AC0FC
:1008A000E82FF0E08827E85AFB4F8F4F0C940C1E7E
:1008B00078047C046A0470047404AA047F04850428
:1008C00089048F04930497049D04A104AA04A50439
:1008D000AB04AF04809180008F77809380000895EF
:1008E000809180008F7DF9CF80918000877FF5CF48
:1008F00084B58F7784BD089584B58F7DFBCF8091BB
:10090000B0008F778093B00008958091B0008F7D04
:10091000F9CF809190008F77809390000895809117
:1009200090008F7DF9CF80919000877FF5CF8091E7
:10093000A0008F778093A00008958091A0008F7D04
:10094000F9CF8091A000877FF5CF809120018F772C
:10095000809320010895809120018F7DF9CF8091AF
:100960002001877FF5CFCF93DF93282F30E0F90167
:10097000ED5BF84F8491F901E757F84FD491F901F5
:10098000E751F84FC491CC23A1F081110E944C048F
:10099000EC2FF0E0EE0FFF1FE75DF84FA591B4914B
:1009A000EC91ED2381E090E009F480E0DF91CF91BC
:1009B000089580E090E0FACF1F93CF93DF93282F24
:1009C00030E0F901ED5BF84F8491F901E757F84FFA
:1009D000D491F901E751F84FC491CC23A9F0162F17
:1009E00081110E944C04EC2FF0E0EE0FFF1FE15349
:1009F000F84FA591B4918FB7F894EC91111108C0FC
:100A0000D095DE23DC938FBFDF91CF911F910895A6
:100A1000DE2BF8CFCF93DF9390E0FC01E757F84F40
:100A200024918751984FFC0184918823D1F090E064
:100A3000880F991FFC01E15FF84FA591B491FC016B
:100A4000E153F84FC591D49161110EC09FB7F8944E
:100A50008C91E22FE0958E238C932881E223E8830A
:100A60009FBFDF91CF9108958FB7F894EC91E22B5F
:100A7000EC938FBFF6CF3FB7F8948091FD02909131
:100A8000FE02A091FF02B091000326B5A89B05C00D
:100A90002F3F19F00196A11DB11D3FBFBA2FA92FFD
:100AA000982F8827BC01CD01620F711D811D911DFA
:100AB00042E0660F771F881F991F4A95D1F7089566
:100AC0008F929F92AF92BF92CF92DF92EF92FF925E
:100AD0004B015C010E943B056B017C010E943B05C0
:100AE0006C197D098E099F09683E73408105910547
:100AF000A8F321E0821A9108A108B10888EEC80E77
:100B000083E0D81EE11CF11C81149104A104B104FE
:100B100029F7FF90EF90DF90CF90BF90AF909F901C
:100B20008F9008952FB7F8946091F9027091FA02AE
:100B30008091FB029091FC022FBF0895AF92BF926B
:100B4000CF92DF92EF92FF920F931F93CF93DF9399
:100B50006C017B018B01040F151FEB015E01AE18C8
:100B6000BF08C017D10759F06991D601ED91FC91EA
:100B70000190F081E02DC6011995892B79F7C50107
:100B8000DF91CF911F910F91FF90EF90DF90CF9069
:100B9000BF90AF900895FC01538D448D252F30E018
:100BA000842F90E0821B930B541710F0CF9608957A
:100BB00001970895FC01918D828D981761F0A28DA7
:100BC000AE0FBF2FB11D5D968C91928D9F5F9F736D
:100BD000928F90E008958FEF9FEF0895FC01918D23
:100BE000828D981731F0828DE80FF11D858D90E090
:100BF00008958FEF9FEF0895FC01918D228D892F2D
:100C000090E0805C9F4F821B91098F739927089514
:100C100081E093E00E94FC0521E0892B09F420E0AB
:100C2000822F0895FC01A48DA80FB92FB11DA35ADE
:100C3000BF4F2C91848D90E001968F739927848FFC
:100C4000A689B7892C93A089B1898C91837080641F
:100C50008C93938D848D981306C00288F389E02DC0
:100C600080818F7D80830895EF92FF920F931F9371
:100C7000CF93DF93EC0181E0888F9B8D8C8D98134F
:100C80001AC0E889F989808185FF15C09FB7F8945B
:100C9000EE89FF896083E889F989808183708064A7
:100CA00080839FBF81E090E0DF91CF911F910F91F2
:100CB000FF90EF900895F62E0B8D10E00F5F1F4F01
:100CC0000F731127E02E8C8D8E110CC00FB607FC10
:100CD000FACFE889F989808185FFF5CFCE010E949E
:100CE0001206F1CFEB8DEC0FFD2FF11DE35AFF4FF4
:100CF000F0829FB7F8940B8FEA89FB89808180622C
:100D0000CFCFCF93DF93EC01888D8823B9F0AA89E8
:100D1000BB89E889F9898C9185FD03C0808186FDB6
:100D20000DC00FB607FCF7CF8C9185FFF2CF808105
:100D300085FFEDCFCE010E941206E9CFDF91CF9162
:100D4000089580E090E0892B29F00E940806811127
:100D50000E94000080E090E0892B49F080E090E064
:100D6000892B29F00E94000081110E94000080E080
:100D700090E0892B49F080E090E0892B29F00E94D7
:100D8000000081110E94000080E090E0892B49F072
:100D900080E090E0892B29F00E94000081110C94E2
:100DA000000008952091AB02260F3327331F213214
:100DB0003105ECF42091CF02FC0190E080E024307A
:100DC00069F082E00895A091AB022191AC014557F2
:100DD0005D4FA40FB52FB11D2C930196861798F384
:100DE0008091AB02680F6093AB0280E0089581E0D0
:100DF000089508958FEF9FEF08958FEF9FEF089567
:100E00008091840290E09195819591090895CF9306
:100E1000DF93CB01EA01642F0E94D206CE01DF915D
:100E2000CF910895CF93DF931F92CDB7DEB769833B
:100E300061E0CE0101960E94D20681E090E00F9021
:100E4000DF91CF910895FC01A5A1B6A18C9192A547
:100E500089238C93A5A1B6A18C9191A5892B8C9304
:100E600008950F931F93CF93DF93EC018B018DA90E
:100E700081110DC01EBD0DB407FEFDCF0EBD0DB41A
:100E800007FEFDCFDF91CF911F910F910895813023
:100E9000E9F480E1E9A1FAA1908117FF14C02DA126
:100EA000922B9083EBA1FCA190812FA1922B908398
:100EB000EBA1FCA1908128A592239083000F111F24
:100EC000815041F7DFCF2EA19223EBCFEF8DF8A118
:100ED0001083CE010E942307EF8DF8A10083CE017D
:100EE000DF91CF911F910F910C942307FC0185A9ED
:100EF000811105C06EBD0DB407FEFDCF0895813090
:100F0000E1F488E0A1A1B2A19C9167FF13C025A1E3
:100F1000922B9C93A3A1B4A19C9127A1922B9C936B
:100F2000660FA3A1B4A19C9120A592239C9381500C
:100F300049F7089526A19223ECCFA78DB0A16C9319
:100F4000CF010C942307CF93DF93EC01ED8DFE8D41
:100F500080819CA989238083CE010E947607ED8D34
:100F6000FE8D80819BA9892B8083DF91CF9108958D
:100F7000AF92BF92CF92DF92EF92FF920F931F93A7
:100F8000CF93DF93EC015B016A01215031097901B4
:100F9000E60EF71E01501109040F151F6AE20E94A8
:100FA000A307B501CE010E943107B701CE010E940F
:100FB00031076BE2CE010E94A307B601CE010E9469
:100FC0003107B801CE010E9431076CE2CE01DF91FA
:100FD000CF911F910F91FF90EF90DF90CF90BF9036
:100FE000AF900C94A307FC0185A9811104C091A1C5
:100FF00082A19CBD8DBD08951F93CF93DF93EC011B
:10100000162FE881F9810284F385E02D19951123CB
:1010100071F06DADCE010E94A307E881F9810688C9
:10102000F789E02DCE01DF91CF911F9119946EAD1C
:10103000F1CFAF92BF92CF92DF92EF92FF920F93D8
:101040001F93CF93DF93EC0177FD38C08885998596
:10105000681779079CF557FD31C08A859B8548172D
:10106000590764F569017A015B01E881F98102841D
:10107000F385E02DCE011995E881F98102A4F3A54D
:10108000E02D01E010E021E030E0A701B501CE0144
:101090001995B601CE010E943107E881F9810688D1
:1010A000F789E02DCE01DF91CF911F910F91FF9035
:1010B000EF90DF90CF90BF90AF901994DF91CF91D8
:1010C0001F910F91FF90EF90DF90CF90BF90AF9066
:1010D00008958F929F92AF92BF92CF92DF92EF923C
:1010E000FF920F931F93CF93DF93EC0149015701B8
:1010F000E881F98102A4F3A5E02D19959401D801A6
:101100000E94141E6B017C01C114D104E104F1049E
:1011100009F490C08DA9811115C081E0C81AD108C9
:10112000E108F1088FEFC816D806E806F80609F4BA
:1011300081C0BEBC0DB407FEFDCFAEBC0DB407FE32
:10114000FDCFEBCF813009F045C081E0C81AD1084E
:10115000E108F1088FEFC816D806E806F80609F48A
:1011600069C09B2D88E0E9A1FAA1208197FF2CC0DE
:101170003DA1232B2083EBA1FCA120813FA1232BA8
:101180002083EBA1FCA1208138A523232083990F84
:10119000815049F79A2D88E0E9A1FAA1208197FFB3
:1011A00016C03DA1232B2083EBA1FCA120813FA1F0
:1011B000232B2083EBA1FCA1208138A523232083AE
:1011C000990F815049F7C1CF3EA12323D3CF3EA130
:1011D0002323E9CFBA1016C0CC0CDD1CEE1CFF1C7B
:1011E000EF8DF8A1B08281E0C81AD108E108F108BA
:1011F0008FEFC816D806E806F806E1F0CE010E9487
:101200002307F1CF81E0C81AD108E108F1088FEF78
:10121000C816D806E806F80669F0EF8DF8A1B08286
:10122000CE010E942307EF8DF8A1A082CE010E947B
:101230002307E8CFDF91CF911F910F91FF90EF909F
:10124000DF90CF90BF90AF909F908F9008958F9236
:101250009F92AF92BF92CF92DF92EF92FF920F9345
:101260001F93CF93DF934C01EB016A01590137FFC4
:1012700007C0C9010196C80FD91FB194A194B10844
:10128000F401A085B185CA17DB070CF058C017FF21
:1012900007C0C8010196C80ED91E11950195110904
:1012A000F40182859385C816D9060CF048C0FE016A
:1012B000EA0DFB1DAF014150510957FD40C0B60179
:1012C000600F711F9B012150310937FD38C0D7FFD6
:1012D00003C05F01D0E0C0E0D7FE03C08B01D12C7A
:1012E000C12C4A175B071CF05D01AC1ABD0A281718
:1012F00039071CF08C010C191D09D401ED91FC91EA
:101300000284F385E02DC40119959501A601BE0163
:10131000C4010E946908D401ED91FC910688F78907
:10132000E02DC401DF91CF911F910F91FF90EF90BD
:10133000DF90CF90BF90AF909F908F901994DF91E6
:10134000CF911F910F91FF90EF90DF90CF90BF90C2
:10135000AF909F908F900895EF92FF920F931F93FD
:101360002115310529F00115110511F00E942709F9
:101370001F910F91FF90EF9008958F929F92AF92DF
:10138000BF92CF92DF92EF92FF920F931F93CF9372
:10139000DF935C014B016A01E90177FD52C0DC017A
:1013A00018968D919C91681779070CF04AC0209788
:1013B00009F447C037FF07C0C9010196C80ED91EFE
:1013C000D195C195D109F50182859385C816D906B5
:1013D000C4F5A6014C0F5D1F9A012150310937FD5C
:1013E00030C0D7FE03C0EA01D12CC12C2817390721
:1013F0001CF0EC01CC19DD09D501ED91FC910284C2
:10140000F385E02DC501199578018E0121E030E0CA
:10141000A601B401C5010E946908D501ED91FC91B6
:101420000688F789E02DC501DF91CF911F910F91BB
:10143000FF90EF90DF90CF90BF90AF909F908F90F4
:101440001994DF91CF911F910F91FF90EF90DF9052
:10145000CF90BF90AF909F908F9008958F929F9262
:10146000AF92BF92CF92DF92EF92FF920F931F93B2
:10147000CF93DF935C016B014A01E90157FD52C034
:10148000DC011A968D919C91481759070CF04AC0BF
:10149000209709F447C037FF07C0C9010196C80E5D
:1014A000D91ED195C195D109F50180859185C816C0
:1014B000D906C4F5A6014C0F5D1F9A0121503109D0
:1014C00037FD30C0D7FE03C0EA01D12CC12C28174C
:1014D00039071CF0EC01CC19DD09D501ED91FC9127
:1014E0000284F385E02DC5011995780101E010E033
:1014F0009E01A401B601C5010E946908D501ED91C4
:10150000FC910688F789E02DC501DF91CF911F91ED
:101510000F91FF90EF90DF90CF90BF90AF909F9092
:101520008F901994DF91CF911F910F91FF90EF90C1
:10153000DF90CF90BF90AF909F908F900895EF92E3
:10154000FF920F931F93CF93DF9377FD32C0DC019F
:101550001896ED91FC916E177F075CF5211531050A
:1015600041F137FF07C0F90131964E0F5F1F3195EA
:1015700021953109DC011A96ED91FC914E175F0718
:10158000C4F4EA01C20FD31FDE011197B7FD11C0E9
:1015900057FF03C09E0150E040E0AE17BF071CF0AC
:1015A0009F01241B350B7801890121E030E00E9466
:1015B0006908DF91CF911F910F91FF90EF900895EF
:1015C000EF92FF920F931F93CF93DF9357FD31C09C
:1015D000DC011A96ED91FC914E175F0754F5211529
:1015E000310539F137FF07C0F90131966E0F7F1FC2
:1015F000319521953109DC011896ED91FC916E171A
:101600007F07BCF4EB01C20FD31FDE011197B7FDBA
:1016100010C077FF03C09E0170E060E0AE17BF0707
:101620001CF09F01261B370B780101E010E00E949F
:101630006908DF91CF911F910F91FF90EF9008956E
:101640008F929F92AF92BF92CF92DF92EF92FF92D2
:101650000F931F93CF93DF9347012115310509F4B1
:101660004BC00115110509F447C037FF07C0F90148
:1016700031966E0F7F1F319521953109DC01189647
:10168000AD90BC906A157B05BCF517FF07C0F8014B
:1016900031964E0F5F1F119501951109DC011A96C5
:1016A000ED91FC914E175F073CF56B01C20ED31E06
:1016B000E6012197D7FD20C07A01E00EF11ED70187
:1016C0001197B7FD19C077FF03C0960170E060E085
:1016D00057FF03C0870150E040E0CA15DB051CF04E
:1016E0009501261B370BAE17BF071CF08F01041B9B
:1016F000150B74010E946908DF91CF911F910F9122
:10170000FF90EF90DF90CF90BF90AF909F908F9021
:101710000895EF92FF920F931F93CF93DF93EC0105
:1017200077FD22C08885998568177907ECF457FD05
:101730001BC08A859B8548175907B4F47901E88155
:10174000F98102A4F3A5E02D01E010E021E030E0F2
:10175000CE011995B701CE01DF91CF911F910F9165
:10176000FF90EF900C943107DF91CF911F910F9173
:10177000FF90EF900895CF93DF93EC010E94F30761
:101780008FA987FD06C0EB8DFC8D80819AA98923E6
:101790008083DF91CF9108950895AF92BF92CF9249
:1017A000DF92EF92FF920F931F93CF93DF93EC01A1
:1017B000E62E8A01A22E0E94F3078FA987FD06C09C
:1017C000EB8DFC8D80819AA989238083ED8DFE8D20
:1017D00080819CA9892380836E2DCE010E9476078B
:1017E000ED8DFE8D80819BA9892B8083D12CC12C0E
:1017F000B12CCA14DB04E4F48DA97801823079F4A9
:1018000088A9882361F0F801619171917F01CE016F
:101810000E943107FFEFCF1ADF0A8701EACFFFEFFF
:10182000EF1AFF0AF8016491CE010E947607F2CF09
:101830008FA987FD06C0EB8DFC8D808199A9892B2E
:101840008083DF91CF911F910F91FF90EF90DF90F8
:10185000CF90BF90AF900895611106C060E220E084
:1018600050E040E00C94CD0B61E2F9CF0F931F9351
:10187000CF93DF931F92CDB7DEB78C016370DC018D
:1018800056966C935697623009F468C0633009F439
:101890006AC0613009F456C088E4898380EF90E023
:1018A00019969C938E93189780E491E01B969C93D5
:1018B0008E931A97C8010E94F307D801D7968C918E
:1018C000D79787FD09C05B96ED91FC915C9780816D
:1018D000D2969C9189238083D8015D96ED91FC91ED
:1018E0005E978081D4969C918923808366E3C801AA
:1018F0000E947607D8015D96ED91FC915E978081FC
:10190000D3969C91D397892B8083D5968C918230E6
:1019100061F16981C8010E947607D801D7968C9140
:10192000D79787FD09C05B96ED91FC915C9780810C
:10193000D1969C91892B80830F90DF91CF911F913D
:101940000F91089588E2898380E491E0F8019187FE
:10195000808780EF90E093878287ACCF88E8898387
:1019600080EF90E09DCF88EEEECFF80180A988232C
:1019700081F269817A81C8010E943107CECFFC01D2
:1019800087A987FD06C0A38DB48D9C9181A9892B61
:101990008C9308950895FC016370668B8481958112
:1019A00026813781613039F0633029F09187808753
:1019B0003387228708953187208793878287089508
:1019C0002F923F924F925F926F927F928F929F924F
:1019D000AF92BF92CF92DF92EF92FF920F931F933D
:1019E000CF93DF93CDB7DEB76A970FB6F894DEBF1B
:1019F0000FBECDBF9A8F898F7A8369834A01D22E19
:101A000018870F833701BC2CDC0159962D913C912E
:101A10005A972115310509F015C118968D919C91A1
:101A20001997681779070CF0D7C11A968D919C9178
:101A3000481759070CF0D0C14C2C512CB6E0CB9E66
:101A4000600D711D11247C876B87161617060CF02C
:101A5000C3C1EA2DF0E0FA87E98793E0EE0FFF1F9C
:101A60009A95E1F7F88BEF87CF01840F951F181631
:101A700019060CF0B1C1A98DBA8D58968C918111BF
:101A800004C0BFEABD1508F4D394A98DBA8DED91B9
:101A9000FC9111970284F385E02DCD011995B5E0F5
:101AA000DB9EC0011124E981FA81FC83EB83312C98
:101AB000212C9C0120563E4F388F2F8B4A2D50E011
:101AC0005E8B4D8BEF89F88DE20DF31D44919E8264
:101AD0008D82D12CC12C69817A81620D731D7A8B24
:101AE000698B842F90E09C8B8B8BE98DFA8DA08184
:101AF000B18140FF82C0F1E0BF126FC0AF126DC074
:101B00001C96ED91FC912F813885A4014C0D5D1D33
:101B100069897A89898D9A8D1995EB89FC89F59562
:101B2000E7954E2F5FEFC51AD50A6D817E818D89AD
:101B30009E89680F791F7E836D8398E0C916D10452
:101B400081F6AFEF2A1A3A0AEB81FC81E40DF51D0C
:101B5000FC83EB83F5E02F16310409F0B3CF2F811E
:101B6000388526153705B9F0A98DBA8DED91FC9110
:101B7000B1E0BB1257C0AB1255C069817A816B5F6F
:101B80007F4F0088F189E02D830128E030E0A40137
:101B9000898D9A8D1995A98DBA8DED91FC9111972A
:101BA0000688F789E02DCD016A960FB6F894DEBF5E
:101BB0000FBECDBFDF91CF911F910F91FF90EF909E
:101BC000DF90CF90BF90AF909F908F907F906F905D
:101BD0005F904F903F902F9019941E96ED91FC913D
:101BE000EF80F88409851A8592014D815E816B81B1
:101BF0007C81898D9A8D199590CF2F8138852615F6
:101C0000370509F48ACF31E0B31207C0A31205C02B
:101C10001C96ED91FC91930178CF1E96ED91FC916D
:101C20007301E0CF6B857C85641975090684F7859F
:101C3000E02D73010F8518899201A401898D9A8D79
:101C40001995A9CFF9013496949132974591549101
:101C5000D91AB7E0DB9E400D511D1124F9012591E1
:101C600034913C8B2B8BFA0125903490FA013296FB
:101C7000749031963491398B3296649031964490B9
:101C800041E04C1518F04A1508F07FC0662D062C6F
:101C9000000C770B7C836B83842D042C000C990B38
:101CA0009E838D83A98DBA8DED91FC91119702844D
:101CB000F385E02DCD011995512CD12CC12CEA2DA5
:101CC000F0E0FA87E9872B2D30E03C872B87A401D1
:101CD000440D511D47FC5A95588F4F8B69817A816D
:101CE000660D711D67FC7A957E876D877989C716A9
:101CF00008F051CF2C2D30E04D815E81420F531FF3
:101D0000A985BA854A9FC0014B9F900D5A9F900D9F
:101D10001124FC01E80DF91DF88BEF87852D612C4E
:101D20004F89588D420F531F5E8B4D8B671408F0FF
:101D300050C044244394480E877041F4C101019679
:101D4000EB89FC89E20DF31DD4901C01D7FE19C06C
:101D5000A98DBA8DED91FC91662D70E0B1E0BB12BA
:101D600019C0AB1217C02D853E85620F731F048406
:101D7000F585E02D2F8138854D895E89898D9A8D75
:101D80001995DD0C6394842DD1CF1E821D821C8297
:101D90001B8288CF4B815C81640F751FAB85BC852E
:101DA0006A9FC0016B9F900D7A9F900D11246981ED
:101DB0007A81680F791F0684F785E02DEF80F8841B
:101DC00009851A859D014F855889898D9A8D1995A8
:101DD000D8CF570CC3948ACF6A960FB6F894DEBF5B
:101DE0000FBECDBFDF91CF911F910F91FF90EF906C
:101DF000DF90CF90BF90AF909F908F907F906F902B
:101E00005F904F903F902F9008958F929F92AF9246
:101E1000CF92EF92FF920F931F93CF93DF93EC013A
:101E2000262F898D9A8D009709F051C06A30D1F420
:101E30001D861C868D8948E0849F900111248E8523
:101E40009F85820F931F9F878E8781E090E0DF91AF
:101E5000CF911F910F91FF90EF90CF90AF909F90F7
:101E60008F9008956D3089F3CC88AD888F89882351
:101E7000C1F08C859D8536E0C39E800D911D112497
:101E8000488559854817590764F44E855F851D8636
:101E90001C8638E0A39EC0011124840F951F9F87E4
:101EA0008E87EA88FB88088919894E855F856C854D
:101EB0007D85CE010E94E00C2C898C859D8546E0B5
:101EC000249F800D911D11249D878C87BECF6A3081
:101ED00069F41D861C86FC013896E4912D898E8557
:101EE0009F85E29F800D911D1124ADCF6D3009F4C7
:101EF000ACCFFC0134963491631708F4A6CF329628
:101F0000E491E61708F4A1CFFC01329685909490F5
:101F1000462F431B342F47E0349F800C911C112423
:101F2000F401329634913196E4913323A9F1EE23F2
:101F300099F1CC88F4013596E491AD884F8944231A
:101F400001F10E2E000CFF0BE30FF11DCE9EA00140
:101F5000CF9E500D11246C857D85460F571F6885D7
:101F60007985641775076CF44E855F851D861C8620
:101F7000FC013896E491AE9E400D511D11245F87FF
:101F80004E87EA88FB88088919894E855F856C85AC
:101F90007D85CE010E94E00CF4013496E4912C89F9
:101FA0008C859D85E29F800D911D11248DCF6F92B0
:101FB0007F928F929F92AF92BF92CF92DF92EF92D9
:101FC000FF920F931F93CF93DF93EC016B015A01A4
:101FD00039014801E881F9810284F385E02D1995E2
:101FE000E881F9810288F389E02D87019301A50139
:101FF000B601CE011995A501480D591D4150510951
:10200000E881F9810288F389E02D9301B601CE01C0
:102010001995E881F9810088F189E02D9401A501E5
:10202000B601CE011995C60CD71CB60161507109D5
:10203000E881F9810088F189E02D9401A501CE01A4
:102040001995E881F9810688F789E02DCE01DF91A5
:10205000CF911F910F91FF90EF90DF90CF90BF90A5
:10206000AF909F908F907F906F9019942F923F9296
:102070004F925F926F927F928F929F92AF92BF9298
:10208000CF92DF92EF92FF920F931F93CF93DF9344
:10209000CDB7DEB72E970FB6F894DEBF0FBECDBF1B
:1020A0005C012B015C834B833E872D87FE82ED8292
:1020B000160181E090E04C01821A930AC9019195C2
:1020C000819591099C01220F331F3A832983C7010F
:1020D000019698878F83F12CE12C66246394712CF0
:1020E000902F9170998702700A87DA011196BC8748
:1020F000AB872D853E85E216F3060CF08DC0CD84AE
:10210000DE8497FC0BC0690131E0C31AD1088981D4
:102110009A8102969A838983880E991E9FEFE91A05
:10212000F90AA2E06A0E711C860C971CCE14DF041B
:10213000A4F1B985BB23B9F09601220F331F8F811B
:102140009885280F391FD501ED91FC910088F18900
:10215000E02D81014B815C814C195D09B701640D53
:10216000751DC5011995BA85BB23B9F09601220FDB
:10217000331F8F819885280F391FD501ED91FC9170
:102180000088F189E02D81014B815C814C195D094A
:10219000B2016E197F09C50119952D853E852C1553
:1021A0003D05B9F139853323C1F09301225031093E
:1021B0008D819E81280F391FD501ED91FC910088FA
:1021C000F189E02D81014B855C854E195F096D8594
:1021D0007E85640D751DC5011995BA85BB23C9F0AF
:1021E0009301225031098D819E81280F391FB20140
:1021F000AD85BE856A1B7B0BD501ED91FC910088F6
:10220000F189E02D81014B855C854E195F09C5017F
:102210001995DE86CD866DCF2E960FB6F894DEBF6B
:102220000FBECDBFDF91CF911F910F91FF90EF9027
:10223000DF90CF90BF90AF909F908F907F906F90E6
:102240005F904F903F902F9008952F923F924F9222
:102250005F926F927F928F929F92AF92BF92CF9236
:10226000DF92EF92FF920F931F93CF93DF9300D0F3
:1022700000D0CDB7DEB79E838D834B013A01690153
:10228000802F21E030E029014C185D0822243324FE
:102290002C183D08220C331CB12CA12C01E010E0BD
:1022A000982F94709983A82FA270AA83B82FB87022
:1022B000BB8381708C83AC14BD040CF0A7C057FCA9
:1022C00008C081E0C81AD10892E0290E311C420CE6
:1022D000531CAFEFAA1ABA0A0E5F1F4F400E511ED1
:1022E000B981BB2311F1AD81BE81ED91FC911197B4
:1022F0000484F585E02D9701A601460D571DB40114
:102300006A0D7B1DCD011995AD81BE81ED91FC91CA
:1023100011970484F585E02D9701A3014A0D5B1DFB
:10232000B601680D791DCD011995BA81BB2311F154
:10233000AD81BE81ED91FC9111970484F585E02D6E
:102340009701A3014C195D09B4016A0D7B1DCD01F4
:102350001995AD81BE81ED91FC9111970484F585AD
:10236000E02D9701A3014A195B09B601680D791D9B
:10237000CD011995BB81BB2311F1AD81BE81ED91DA
:10238000FC9111970484F585E02D9701A3014A0D76
:102390005B1DB4016C197D09CD011995AD81BE811C
:1023A000ED91FC9111970484F585E02D9701A6012C
:1023B000460D571DB4016A197B09CD011995BC81E1
:1023C000BB2309F478CFAD81BE81ED91FC911197CB
:1023D0000484F585E02D9701A3014A195B09B40136
:1023E0006C197D09CD011995AD81BE81ED91FC91EE
:1023F00011970484F585E02D9701A3014C195D091F
:10240000B4016A197B09CD01199555CF26960FB6EF
:10241000F894DEBF0FBECDBFDF91CF911F910F911A
:10242000FF90EF90DF90CF90BF90AF909F908F90F4
:102430007F906F905F904F903F902F9008956F9294
:102440007F928F929F92AF92BF92CF92DF92EF9244
:10245000FF920F931F93CF93DF935C01EB016A010F
:10246000490138018701DC01ED91FC916217730786
:1024700019F5641675062CF0962D872D3A01C92E94
:10248000D82E9601261937092F5F3F4F048CF58D02
:10249000E02DA301BE01C5011995DF91CF911F91D8
:1024A0000F91FF90EF90DF90CF90BF90AF909F90F3
:1024B0008F907F906F9008954615570591F42617D9
:1024C000370724F0892D4B01C22FD82F9E012819E0
:1024D00039092F5F3F4F068CF78DE02DA601B4011F
:1024E000DACF0284F385E02D1995D501ED91FC91A9
:1024F0000488F589E02D83019401A601BE01C50180
:102500001995D501ED91FC910688F789E02DC5015B
:10251000DF91CF911F910F91FF90EF90DF90CF90BF
:10252000BF90AF909F908F907F906F901994EF9293
:10253000FF920F931F93DC011A960D911C911B972C
:1025400018962D913C911997ED91FC9100A0F1A165
:10255000E02D7B0150E040E070E060E019951F91B4
:102560000F91FF90EF9008954F925F926F927F923C
:102570008F929F92AF92BF92CF92DF92EF92FF9293
:102580000F931F93CF93DF936C012B015A013901F5
:102590004801DC01ED91FC910284F385E02D199551
:1025A000E201640C751CD601ED91FC91C615D705AE
:1025B0005CF40088F189E02D87019401A501BE013A
:1025C000C60119952196EFCF0688F789E02DC6013F
:1025D000DF91CF911F910F91FF90EF90DF90CF90FF
:1025E000BF90AF909F908F907F906F905F904F9033
:1025F00019948F929F92AF92BF92CF92DF92EF92F7
:10260000FF920F931F93CF93DF93EC015B014A017D
:102610006901E881F9810284F385E02D199595011E
:102620002C0D3D1D21503109E881F9810488F5897F
:10263000E02D78018401A401B501CE011995E8814E
:10264000F9810688F789E02DCE01DF91CF911F91A6
:102650000F91FF90EF90DF90CF90BF90AF909F9041
:102660008F9019948F929F92AF92BF92CF92DF92E8
:10267000EF92FF920F931F93CF93DF93EC015B01D7
:102680004A0169017801E881F9810284F385E02D2E
:102690001995C80CD91C860101501109E881F981EE
:1026A0000488F589E02D9501A401B501CE011995A5
:1026B000E881F9810688F789E02DCE01DF91CF917D
:1026C0001F910F91FF90EF90DF90CF90BF90AF9050
:1026D0009F908F901994EF92FF920F931F93DC01BC
:1026E000ED91FC9100A0F1A1E02D19951F910F91A2
:1026F000FF90EF9008950F931F93DC01ED91FC91F3
:10270000068CF78DE02D19951F910F9108950F9369
:102710001F93DC01ED91FC91048CF58DE02D199552
:102720001F910F910895DC01ED91FC910084F185DA
:10273000E02D19942F923F924F925F926F927F9269
:102740008F929F92AF92BF92CF92DF92EF92FF92C1
:102750000F931F93CF93DF9300D000D0CDB7DEB798
:102760003C016A013E832D83FC82EB825801A41A4E
:10277000B50AB7FE03C0B194A194B1088D809E80C4
:10278000861A970A97FE03C09194819491088A143F
:102790009B045CF0902F812F0D811E819D838E8381
:1027A0009C2D8D2D6B01692F782F0C151D055CF06C
:1027B0009D818E817E836D83692F782F902F812F4D
:1027C0008601C92ED82E1601201A310A2B012D811F
:1027D0003E81421A530A57FE03C051944194510856
:1027E000710137FE03C03FEFE31AF30AF594E79453
:1027F0008D819E81861797075CF5A1E0B0E0BA83D2
:10280000A983C016D1064CF1D301ED91FC9104844B
:10281000F585E02D2B813C81A8016D817E818A1494
:102820009B041CF04D815E81B801C3011995E41829
:10283000F508F7FE0AC02D813E8189819A81280F13
:10284000391F3E832D83E20CF31C0F5F1F4FD9CF3E
:102850002FEF3FEF3A832983D4CF26960FB6F89413
:10286000DEBF0FBECDBFDF91CF911F910F91FF90C3
:10287000EF90DF90CF90BF90AF909F908F907F9020
:102880006F905F904F903F902F900895089590E043
:1028900080E00895FB0101900020E9F73197AF0136
:1028A000461B570BDC01ED91FC910280F381E02D7A
:1028B00019942F923F924F925F926F927F928F92D4
:1028C0009F92AF92BF92CF92DF92EF92FF920F93BF
:1028D0001F93CF93DF93CDB7DEB72C970FB6F89445
:1028E000DEBF0FBECDBF2091B9032F833091BA0355
:1028F0003887A091B503B091B603BA83A9836090DD
:10290000B7037090B803882329F0962D872D3901DD
:102910009F8388872091AF033091B0033C872B873A
:10292000C090B103D090B203C9012C153D0508F049
:10293000C60196958795969587958090A903909066
:10294000AA03A82FB0E0BC83AB834090AD035090A6
:10295000AE032091AB033091AC033E832D838B8576
:102960009C858C159D050CF074C097FD019695957E
:1029700087952B803C80821593050CF41C01D401B3
:10298000ED91FC910284F385E02DC401199551016C
:10299000AA0CBB1C2D813E81220D331D3A8729874D
:1029A0002B853C852A193B09D401ED91FC910684C5
:1029B000F785E02D73018601A20169857A85C4013E
:1029C0001995CA18DB085601B1E0AB1AB108420CE0
:1029D000531C6D817E812B853C85620F731F6219AC
:1029E0007309615071096301750101E09101A20150
:1029F000C4010E94361002E09101A20169857A8526
:102A0000C4010E943610D401ED91FC910688F7892B
:102A1000E02DC40119952091A9033091AA033A87AA
:102A20002987A090B103B090B2032090AF033090FB
:102A3000B0034090AD035090AE03E090AB03F09034
:102A4000AC032A143B0454F4C10137FE0AC00196BA
:102A500008C0C601D7FE8BCF019689CFC501B7FC50
:102A6000F6CF95958795CB80DC808C159D050CF471
:102A70006C01A985BA85ED91FC9111970284F385CB
:102A8000E02DCD0119959601220F331F3C832B8336
:102A90004101821A930A37016C0C7D1CA985BA8505
:102AA000ED91FC9111970288F389E02D09811A813B
:102AB0009401A201B301CD0119959501240D351D95
:102AC0003E832D83A90141505109A985BA85ED9115
:102AD000FC9111970288F389E02D09811A819401F4
:102AE000B301CD0119952B813C81A21AB30A4C0C7C
:102AF0005D1CA985BA85ED91FC9111970088F1893B
:102B0000E02D09811A819501A201B701CD01199526
:102B100041018E0C9F1CB40161507109A985BA85D1
:102B2000ED91FC9111970088F189E02D09811A81BE
:102B30009501A201CD011995E980FA8001E0960185
:102B4000A201B30189859A850E9425118C189D08E0
:102B5000B1E08B1A9108E980FA8002E09601A201A7
:102B6000B40189859A850E942511AD80BE80AC187C
:102B7000BD0821E0A21AB108E980FA8004E09601BC
:102B8000A501B40189859A850E942511E980FA8002
:102B900008E09601A501B30189859A850E94251157
:102BA000A985BA85ED91FC9111970688F789E02DEA
:102BB000CD011995E091A903F091AA038091B10389
:102BC0009091B203969587952091AD033091AE0315
:102BD000820F931F2091B403B4E02B9F80199109B9
:102BE00011244BEB53E0DA010D900020E9F7AD0121
:102BF0004C5B53402091AF033091B003369527953D
:102C00006091AB037091AC03260F371F6091B30343
:102C1000B3E06B9FB0011124649FD001659FB00D9C
:102C2000749FB00D11242A1B3B0B3587248797878F
:102C300086872F81228B3885338B208B318B809137
:102C4000B4039091B303911101C091E0948B811171
:102C500001C081E0858B6BEB73E0CF012C960FB642
:102C6000F894DEBF0FBECDBFDF91CF911F910F91C2
:102C7000FF90EF90DF90CF90BF90AF909F908F909C
:102C80007F906F905F904F903F902F900C944A14DC
:102C900066E572E081E093E00E944A1469E772E021
:102CA00081E093E00C944A140E94541ECF92DF926C
:102CB000EF92FF920F931F93CF93DF93EC016A0182
:102CC0007B01C114D104E104F10431F4C12C42E1CF
:102CD000D42E4AE7E42EF12C8FA987FD07C061E0CE
:102CE0000E940A0561E08FA90E94DC0461E088ADC2
:102CF0000E940A0561E088AD0E94DC048DA9811163
:102D0000A3C040E052E16AE770E0C416D506E606CB
:102D1000F70640F476956795579547958F5F86300F
:102D2000A1F787E0982F906A969599A38095817076
:102D30008AA31BA21CA21DA21EA21FB7F8948091F9
:102D4000F502811127C0EEE1F8E08491EEEBF7E0A7
:102D50009491E82FF0E0EE0FFF1FE15FF84FA5918F
:102D6000B491EC91E92321F461E085E30E94DC0455
:102D700061E085E30E940A058CB580618CBD8CB54D
:102D800080648CBD61E084E30E940A0561E083E316
:102D90000E940A058091F5028F5F8093F5021FBFA4
:102DA0008EA987FD21C061E00E940A0561E08EA91D
:102DB0000E94DC0464E670E080E090E00E94600520
:102DC00060E08EA90E94DC0464E670E080E090E0A0
:102DD0000E94600561E08EA90E94DC0468EC70E04E
:102DE00080E090E00E9460058EA987FF0DC020E082
:102DF00050E040E061E0CE010E94CD0B66E970E05A
:102E000080E090E00E94600500EA16E0C8010196AB
:102E1000F8016491662309F463C00E5F1F4FFC0143
:102E2000F490EF2CE894E7F82E2DA801CE010E9433
:102E3000CD0B0E0D111DF7FEE9CF66E970E080E0C5
:102E400090E00E946005E2CF09EE17E0F12C81309E
:102E5000B9F461E08AA50E940A0560E08AA50E9493
:102E6000DC0461E08CA50E940A0560E08CA50E944C
:102E7000DC048BA587FD94CF60E00E940A0590CF0B
:102E8000F8018491E82FF0E0EE0FFF1FE153F84FB7
:102E9000859194912F8D38A12817390741F461E06D
:102EA0008F2D0E940A0560E08F2D0E94DC04F394B0
:102EB0000F5F1F4FF6E4FF12E3CF61E08EA50E9483
:102EC0000A0561E08EA50E94DC048FA587FD68CF0E
:102ED00061E00E940A0561E08FA50E94DC0460CFDA
:102EE00080EF90E09987888780E491E09B878A87CC
:102EF000DF91CF911F910F91FF90EF90DF90CF90D6
:102F000008951F93CF93DF9385ED8093BC0080914C
:102F1000870290918802A0918902B0918A02079657
:102F2000A11DB11D23E0B695A795979587952A9584
:102F3000D1F72091BC0024FD03C01092CF0252C0F3
:102F400040918702509188026091890270918A02B3
:102F5000452B462B472B69F30097A105B10541F09E
:102F60002AE22A95F1F700C00197A109B109E1CF42
:102F700080918602C1E0C0938502882399F1D091A7
:102F8000B8001091BA008091BC008A7B8093BC008D
:102F900060E084E10E94DC0460E085E10E94DC04E2
:102FA0001092CF02C093D1021092D00261E084E16E
:102FB0000E94DC0461E085E10E94DC048091B9009C
:102FC0008E7F8093B9008091B9008D7F8093B90086
:102FD00088E48093B80085E48093BC001093BA0025
:102FE000D093B800DF91CF911F9108951F920F9257
:102FF0000FB60F9211242F933F938F939F93AF930C
:10300000BF938091F9029091FA02A091FB02B091D6
:10301000FC023091F80223E0230F2D3758F501967A
:10302000A11DB11D2093F8028093F9029093FA023A
:10303000A093FB02B093FC028091FD029091FE02EE
:10304000A091FF02B09100030196A11DB11D8093D4
:10305000FD029093FE02A093FF02B0930003BF9184
:10306000AF919F918F913F912F910F900FBE0F9035
:103070001F90189526E8230F0296A11DB11DD2CFEF
:103080001F920F920FB60F9211240BB60F922F932F
:103090003F934F935F936F937F938F939F93AF93E0
:1030A000BF93EF93FF9381E093E00E941206FF919C
:1030B000EF91BF91AF919F918F917F916F915F91B0
:1030C0004F913F912F910F900BBE0F900FBE0F901D
:1030D0001F9018951F920F920FB60F9211240BB6E6
:1030E0000F922F938F939F93EF93FF93E091110390
:1030F000F09112038081E0911703F091180382FD93
:103100001DC0908180911A038F5F8F7320911B03E4
:10311000821741F0E0911A03F0E0EF5FFC4F958FCA
:1031200080931A03FF91EF919F918F912F910F90B0
:103130000BBE0F900FBE0F901F9018958081F2CF9D
:103140001F920F920FB60F9211240BB60F922F936E
:103150003F934F935F936F937F938F939F93AF931F
:10316000BF93EF93FF938091B900887F803609F475
:103170004DC008F040C0883209F4A7C028F580315E
:1031800009F49BC0C8F4882309F4F7C0883009F417
:1031900094C0FF91EF91BF91AF919F918F917F91DB
:1031A0006F915F914F913F912F910F900BBE0F90B8
:1031B0000FBE0F901F901895883109F486C0803299
:1031C00041F78093CE0214C0803409F49BC040F4D0
:1031D0008033B9F38833E9F68093CE0285ECAEC034
:1031E000803509F483C0883509F494C0883489F6A1
:1031F0000E948117CECF883909F48AC038F5883704
:1032000029F050F4883611F0803719F683E0809366
:10321000CF021092CD0255C0883809F479C08039A8
:1032200019F0803809F0B5CF8091CD02803208F0D6
:103230006FC0E091CD0281E08E0F8093CD0280912E
:10324000BB00F0E0E355FD4F80833BC0803B39F08D
:10325000D0F4803A09F477C0883A09F09ACF84E034
:103260008093CF021092AC021092AB02F0E0E0E04B
:1032700019958091AB0281110FC081E08093AB0260
:1032800010928B0209C0803C09F4A8CF883C09F455
:10329000A5CF883B09F07DCFE091AC0281E08E0F95
:1032A0008093AC02F0E0E557FD4F80818093BB0036
:1032B0009091AC028091AB0229C08091F40280937E
:1032C000BB0085EC8093BC0064CF9091F3028091A9
:1032D000F202981758F5E091F30281E08E0F809387
:1032E000F302F0E0EE52FD4F8081E9CFE091F3026E
:1032F00081E08E0F8093F3028091BB00F0E0EE52EC
:10330000FD4F80839091F3028091F2029817C8F2EA
:1033100085E8D8CFE091F30281E08E0F8093F3022D
:103320008091BB00F0E0EE52FD4F80838091D1028E
:1033300081115ECF81E08093D00284EA8093BC004B
:103340001092CF0226CF85EC8093BC001092CF0262
:103350008091CD02803230F4E091CD02F0E0E3556F
:10336000FD4F10826091CD0270E08DEA92E0F0E0B6
:10337000E0E019951092CD020CCF1092CE0238CF1A
:10338000E1E0F3E01382128288EE93E0A0E0B0E087
:1033900084839583A683B78388E192E091838083B9
:1033A00085EC90E09587848784EC90E0978786870A
:1033B00080EC90E0918B808B81EC90E0938B828B02
:1033C00082EC90E0958B848B86EC90E0978B868BDB
:1033D000118E128E138E148EAAEEB3E013961C92E9
:1033E0001E92129720EF30E015963C932E9314977F
:1033F00080E491E017969C938E93169719963C93D0
:103400002E9318971B969C938E931A9756961C9200
:1034100056971D961C921E921C971F961C921E92E8
:103420001E9781E055968C93559754968C9354979C
:103430002FEF3FEF53963C932E93529751963C9328
:103440002E93509757968C93579758961C9258974F
:103450005A961C921E925997D5961C92D59789E040
:10346000D6968C93D69798E0D7969C93D7979AE068
:10347000D8969C93D897DA961C921E92D997DC9690
:103480001C921E92DB97DD961C92DD97DE961C92B5
:10349000DE971092290410922A0410922B041092A5
:1034A0002C042EE933E090963C932E935F97E3EF44
:1034B000F7E0E491F0E0EE0FFF1FE153F84F2591A4
:1034C00034915E963C932E935D97E3E9F7E09491F7
:1034D000D3969C93D397E1EFF7E0E491F0E0EE0F01
:1034E000FF1FE153F84F259134915C963C932E9346
:1034F0005B97E1E9F7E0E491D196EC93D197E09501
:10350000D296EC93D297E92FE095D496EC93D4978A
:103510002AE232E02D933C93E7EAF3E01182108235
:103520001382128212AA13AA14AA15AA16AA17AAFB
:1035300010AE11AE28E833E131A720A728EC30E027
:1035400033A722A715A614A617A616A611AA10AA75
:1035500013AE12AE15AE14AE17AE16AE1092E8034F
:103560001092E7031092E903EFE9F3E09AE1928306
:103570009BE19483838389E185838CE291E0978347
:1035800086838AE090E0918380830895789484B55F
:10359000826084BD84B5816084BD85B5826085BD4F
:1035A00085B5816085BD80916E00816080936E00DD
:1035B00010928100809181008260809381008091CF
:1035C0008100816080938100809180008160809380
:1035D00080008091B10084608093B1008091B00040
:1035E00081608093B000809191008260809391000F
:1035F0008091910081608093910080919000816022
:10360000809390008091A10082608093A1008091BE
:10361000A10081608093A1008091A00081608093CF
:10362000A00080912101826080932101809121017D
:10363000816080932101809120018160809320012D
:1036400080917A00846080937A0080917A00826011
:1036500080937A0080917A00816080937A008091D3
:103660007A00806880937A001092C100E091110383
:10367000F091120382E08083E0910D03F0910E033C
:103680001082E0910F03F09110038FEC8083109271
:103690001903E0911503F091160386E08083E09111
:1036A0001303F0911403808180618083E091130300
:1036B000F0911403808188608083E0911303F0917E
:1036C0001403808180688083E0911303F0911403D8
:1036D00080818F7D808340E050E0BA018AEE93E0E4
:1036E0000E94561670E060E08AEE93E00E94971206
:1036F000E8E1EE2EECEFFE2E08E210E02CED30E0DB
:1037000044E150E06AEA70E08AEE93E00E941F1202
:10371000F8E1EF2EF6ECFF2E02E310E028EC30E0AB
:1037200042E350E062E870E08AEE93E00E941F12EC
:103730008AEE93E00E94BB0B0FE018E729E230E02D
:1037400040E550E068E770E08AEE93E00E949F0A4F
:10375000AFE0CA2EA8E7DA2EF12CE12C03E024E139
:1037600030E044E650E068E770E08AEE93E00E94C3
:1037700036108AEE93E00E94BF0C8AEE93E00E941E
:10378000BB0B2FEF3FEF48E750E068E770E08AEEB1
:1037900093E00E94890B2FEF3FEF40E550E068E790
:1037A00070E08AEE93E00E94890B2FEF3FEF44E632
:1037B00050E06CE870E08AEE93E00E94890B2FEFF6
:1037C0003FEF44E650E064E670E08AEE93E00E944A
:1037D000890B44244394512C10E000E0C4E1D0E074
:1037E00088ED682E77247A949DEEE92EFF24FA94D2
:1037F00028E7222E312C0F5F1F4F82E0480E511C0C
:10380000E40CF51C480128E7820E911C2FEF3FEFD6
:103810006E0184E6C80ED11CA601B4018AEE93E0C5
:103820000E94890B5101A01AB10A2FEF3FEFA601A8
:10383000B5018AEE93E00E94890B2FEF3FEF64E61B
:10384000C62ED12CCC1ADD0AA601B4018AEE93E073
:103850000E94890B2FEF3FEFA601B5018AEE93E09E
:103860000E94890B680124E6C20ED11C2FEF3FEFA6
:10387000A6015E0188E7A80EB11CB5018AEE93E0AF
:103880000E94890B2FEF3FEFA6016101CC1ADD0AE0
:10389000B6018AEE93E00E94890B74E6872E912C84
:1038A000801A910A2FEF3FEFA401B5018AEE93E051
:1038B0000E94890B2FEF3FEFA401B6018AEE93E03F
:1038C0000E94890B0C171D070CF4CAC08AEE93E006
:1038D0000E94BF0CE12C38EFF32E0AE510E022E342
:1038E00030E04EE650E06EE170E08AEE93E00E9438
:1038F000270940EEE42E47E0F42E22E330E04EE6C6
:1039000050E06EE170E08AEE93E00E94D70F8AEEFD
:1039100093E00E94BB0BC12CD12C7601C4E6D0E011
:1039200058E2852E912CA12CB12CC701B601A5011E
:1039300094010E94ED1D8EE1C80ED11CE11CF11C0A
:103940002F5F3F4F00EE1FEFAE016EEB70E08AEE8F
:1039500093E00E94E00A2196CD38D10531F78AEE36
:1039600093E00E94BF0C8091CB039091CC03892BF4
:10397000A1F48091F6029091F702FC01EE0FFF1F77
:10398000E050FE4F208131813093CC032093CB0354
:1039900001969093F7028093F6028AEE93E090935B
:1039A000CA038093C9032FE933E03093C8032093FF
:1039B000C7032BE930E03093AC032093AB032EEB2D
:1039C00030E03093AE032093AD0326E430E0309333
:1039D000B0032093AF0324E130E03093B20320938F
:1039E000B1032FEF3FEF3093B6032093B5034FE1C0
:1039F00050E05093B8034093B7033093BA03209339
:103A0000B90321E02093B3032093B4039093AA0356
:103A10008093A90349E050E06CE772E08BEB93E000
:103A20000E94591E1092C40380E00E94591488E439
:103A300096E19093E2038093E103C2E0D0E08091AD
:103A4000A7039091A8038130910509F48BC088F0F9
:103A5000029709F48AC01092A8031092A70382C0AB
:103A6000F7FCC9CE219722E0620E711CE60CF71C10
:103A7000C2CE8091D7039091D803892BB9F00E94D0
:103A800092050091DD031091DE032091DF03309158
:103A9000E003601B710B820B930B683E7340810542
:103AA000910520F01092D8031092D7038091CB0398
:103AB0000E94B304892B09F055C081E00E9459147B
:103AC0000E9492056093D9037093DA038093DB031D
:103AD0009093DC031092D6031092D5038091E903F2
:103AE0008E7F86608093E9038091D7039091D803FD
:103AF000892B51F40E9492056093DD037093DE03DD
:103B00008093DF039093E0038091D3039091D403DB
:103B100001969093D4038093D3038091D70390911F
:103B2000D80301969093D8038093D703E091E103E3
:103B3000F091E203309719F087EA93E019958091AC
:103B4000D7039091D803029748F0E091E703F091F2
:103B5000E803309719F087EA93E01995D093A8030A
:103B6000C093A7030E94A1066ACF8091CB030E9455
:103B7000B304892B51F40E9492056093D90370938A
:103B8000DA038093DB039093DC030E94920500919B
:103B9000D9031091DA032091DB033091DC03AB01F0
:103BA000BC01401B510B620B730B8091D1039091B0
:103BB000D203B0E0A0E0481759076A077B0790F2EC
:103BC000E091E503F091E603309719F087EA93E07E
:103BD000199580E00E9459143ECF052E97FB1EF4E4
:103BE00000940E94041E57FD07D00E94321E07FC5D
:103BF00003D04EF40C94041E5095409530952195B9
:103C00003F4F4F4F5F4F0895909580957095619508
:103C10007F4F8F4F9F4F0895EE0FFF1F881F8BBF61
:103C20000790F691E02D19940E941C1E332312F484
:103C30008A1B9B0B0C942D1EA29FB001B39FC00149
:103C4000A39F700D811D1124911DB29F700D811DC8
:103C50001124911D08950E941C1EB7FF0895821B18
:103C6000930B0895A1E21A2EAA1BBB1BFD010DC0E8
:103C7000AA1FBB1FEE1FFF1FA217B307E407F5071C
:103C800020F0A21BB30BE40BF50B661F771F881FF8
:103C9000991F1A9469F760957095809590959B018E
:103CA000AC01BD01CF01089581E090E0F8940C943F
:103CB000681EFB01DC014150504048F001900D921C
:103CC0000020C9F701C01D9241505040E0F708950F
:103CD000F894FFCF3700380039003A003B003C0031
:103CE0003D003E003F0040000000000034069E05FD
:103CF000CB058106FC05DA05EE0500000000050F86
:103D00009E05471446141908BB0B890B200B9F0A0C
:103D1000E00A9A13BF0C360C2C0CBD092E0AAC0914
:103D200097121F12D70F5616B807436C69636F7549
:103D3000206E6F20626F74616F20646573656E68BA
:103D400061646F206E612074656C612E000D0A0045
:083D500053657269616C00000B
:020000040003F7
:10E000000D9489F10D94B2F10D94B2F10D94B2F129
:10E010000D94B2F10D94B2F10D94B2F10D94B2F1F0
:10E020000D94B2F10D94B2F10D94B2F10D94B2F1E0
:10E030000D94B2F10D94B2F10D94B2F10D94B2F1D0
:10E040000D94B2F10D94B2F10D94B2F10D94B2F1C0
:10E050000D94B2F10D94B2F10D94B2F10D94B2F1B0
:10E060000D94B2F10D94B2F10D94B2F10D94B2F1A0
:10E070000D94B2F10D94B2F10D94B2F10D94B2F190
:10E080000D94B2F10D94B2F10D94B2F10D94B2F180
:10E090000D94B2F10D94B2F10D94B2F10D94B2F170
:10E0A0000D94B2F10D94B2F10D94B2F10D94B2F160
:10E0B0000D94B2F10D94B2F10D94B2F10D94B2F150
:10E0C0000D94B2F10D94B2F10D94B2F10D94B2F140
:10E0D0000D94B2F10D94B2F10D94B2F10D94B2F130
:10E0E0000D94B2F141546D656761323536300041AF
:10E0F000726475696E6F206578706C6F72657220DE
:10E1000073746B3530305632206279204D4C530099
:10E11000426F6F746C6F616465723E004875683F52
:10E1200000436F6D70696C6564206F6E203D200048
:10E130004350552054797065202020203D20005FF9
:10E140005F4156525F415243485F5F3D2000415658
:10E1500052204C696243205665723D20004743437C
:10E160002056657273696F6E203D20004350552024
:10E1700049442020202020203D20004C6F7720663D
:10E18000757365202020203D20004869676820665F
:10E190007573652020203D200045787420667573D6
:10E1A00065202020203D20004C6F636B2066757336
:10E1B000652020203D20004D617220203720323024
:10E1C000313300312E362E3800342E332E350056A2
:10E1D00023202020414444522020206F7020636F70
:10E1E00064652020202020696E73747275637469E1
:10E1F0006F6E2061646472202020496E74657272B3
:10E20000757074006E6F20766563746F7200726A49
:10E210006D702020006A6D70200057686174207056
:10E220006F72743A00506F7274206E6F7420737541
:10E2300070706F72746564004D7573742062652030
:10E2400061206C6574746572002000577269747483
:10E25000696E672045450052656164696E672045B7
:10E26000450045452065727220636E743D00504F35
:10E27000525400303D5A65726F2061646472003FF1
:10E280003D43505520737461747300403D454550C3
:10E29000524F4D207465737400423D426C696E6B41
:10E2A000204C454400453D44756D70204545505215
:10E2B0004F4D00463D44756D7020464C415348001B
:10E2C000483D48656C70004C3D4C69737420492F83
:10E2D0004F20506F72747300513D51756974005234
:10E2E0003D44756D702052414D00563D73686F7707
:10E2F00020696E7465727275707420566563746FF0
:10E30000727300593D506F727420626C696E6B00BD
:10E310002A0011241FBECFEFD1E2DEBFCDBF01E046
:10E320000CBF12E0A0E0B2E0EEE1FDEF03E00BBFB6
:10E3300002C007900D92A030B107D9F712E0A0E01B
:10E34000B2E001C01D92AE30B107E1F70F9460F367
:10E350000D948DFE01E20EBF0FEF0DBF11241FBE05
:10E360000D9460F30D9400F020E030E040ED57E0B4
:10E3700005C0FA013197F1F72F5F3F4F2817390792
:10E38000C0F308959C01260F311DC901A0E0B0E043
:10E390002F5F3F4FABBFFC018791882361F08093D3
:10E3A000C6008091C00086FFFCCF8091C0008064D1
:10E3B0008093C000EACF08958DE08093C6008091DD
:10E3C000C00086FFFCCF8091C00080648093C000B5
:10E3D0008AE08093C6008091C00086FFFCCF8091C8
:10E3E000C00080648093C00008950F94C2F10F9420
:10E3F000DCF10895FC019081992359F09093C600B7
:10E400008091C00086FFFCCF8091C0008064809323
:10E41000C0003196992379F70895282F982F929567
:10E420009F70892F805D8A3308F0895F8093C600D2
:10E430008091C00086FFFCCF8091C00080648093F3
:10E44000C000822F8F70982F905D9A3308F0995FEB
:10E450009093C6008091C00086FFFCCF8091C000E1
:10E4600080648093C00008959C01FB01853691056E
:10E470001CF46330710594F0C90164E670E00F94F8
:10E480002EFE605D7F4F6093C6008091C00086FFC6
:10E49000FCCF8091C00080648093C0002B30310598
:10E4A00014F43297B4F0C90164E670E00F942EFEC4
:10E4B0006AE070E00F942EFE605D7F4F6093C600AF
:10E4C0008091C00086FFFCCF8091C0008064809363
:10E4D000C000C9016AE070E00F942EFEC0968093E0
:10E4E000C6008091C00086FFFCCF8091C000806490
:10E4F0008093C00008951F93182F8EE692EE60E07F
:10E500000F94C2F11093C6008091C00086FFFCCF2B
:10E510008091C00080648093C0000F94DCF11F9153
:10E5200008952F923F924F925F926F927F928F92B7
:10E530009F92AF92BF92CF92DF92EF92FF920F9392
:10E540001F93DF93CF93CDB7DEB762970FB6F894E2
:10E55000DEBF0FBECDBF382E622ECA01DB015C01CB
:10E560006D01772420E2222E2E010894411C511CBB
:10E570008BC081E0A81680E0B80681E0C80680E084
:10E58000D80628F0C601AA27BB270F940DF2BB2797
:10E59000AD2D9C2D8B2D0F940DF28A2D0F940DF225
:10E5A0002092C6008091C00086FFFCCF8091C00001
:10E5B00080648093C0009DE29093C6008091C0006B
:10E5C00086FFFCCF8091C00080648093C0002092C1
:10E5D000C6008091C00086FFFCCF8091C00080649F
:10E5E0008093C00019828601750188249924A1E0D6
:10E5F0003A1651F03A1620F0B2E03B1661F409C029
:10E600000BBFF701779007C0C7010F9477FE782EF4
:10E6100002C0F7017080872D0F940DF22092C60082
:10E620008091C00086FFFCCF8091C0008064809301
:10E63000C000872D8052F401EF70F0708F3520F408
:10E64000E40DF51D708204C0E40DF51D8EE280839B
:10E650000894E11CF11C011D111D0894811C911CE2
:10E6600090E18916910409F0C2CF80E190E0A0E02A
:10E67000B0E0A80EB91ECA1EDB1E198AC2010F9493
:10E68000FAF10F94DCF16A94662009F072CF629679
:10E690000FB6F894DEBF0FBECDBFCF91DF911F91B3
:10E6A0000F91FF90EF90DF90CF90BF90AF909F9031
:10E6B0008F907F906F905F904F903F902F90089534
:10E6C0002F923F924F925F926F927F928F929F9282
:10E6D000AF92BF92CF92DF92EF92FF920F931F9370
:10E6E000DF93CF93CDB7DEB7CD53D1400FB6F894BB
:10E6F000DEBF0FBECDBF01E20EBF0FEF0DBF94B75F
:10E70000F894A89514BE80916000886180936000A1
:10E7100010926000789493FF05C0E0910002F091A0
:10E7200001021995279A2F9A8091C00082608093E8
:10E73000C00080E18093C40088E18093C1000000A4
:10E74000EE24FF24870144E0A42EB12CCC24DD2448
:10E7500024C0C5010197F1F70894E11CF11C011DCB
:10E76000111D21E2E2162EE4F20620E0020720E06D
:10E77000120718F031E0C32ED12CC801B70127ECE5
:10E780003BE140E050E00F9441FE611571058105C9
:10E79000910519F485B1805885B98091C00087FD35
:10E7A00003C0C114D104A9F2A6014F5F5F4FC25E3E
:10E7B000DE4F59834883CE51D140C25EDE4F8881FF
:10E7C0009981CE51D140019711F00D9410FEC05D9A
:10E7D000DE4F19821882C053D14060E0C15DDE4F28
:10E7E0001882CF52D14088249924C35DDE4F19820C
:10E7F0001882CD52D140C05EDE4F188219821A8233
:10E800001B82C052D140CE5CDE4F188219821A8220
:10E810001B82C253D140EE24FF2487010BBFF701B6
:10E8200007911691C45CDE4F19830883CC53D14005
:10E830000D940BFEC25EDE4F28813981CE51D1404E
:10E840002130310509F52091C600C25EDE4F1982E4
:10E850001882CE51D14022C02F5F3F4F4F4F5F4FA4
:10E86000213082E138078AE7480780E0580780F0C6
:10E87000C45CDE4FE881F981CC53D140EF5FFF4F9C
:10E8800019F0EE27FF27099420E030E040E050E047
:10E890008091C00087FFE0CF2091C600C35DDE4FAE
:10E8A00048815981CD52D1404F5F5F4FC35DDE4FEC
:10E8B00059834883CD52D140213209F063C64A3092
:10E8C000510508F05FC60894811C911C53E0851621
:10E8D000910409F059C600E010E018C081E280936D
:10E8E000C6008091C00086FFFCCF8091C00080648C
:10E8F0008093C0002F5F3F4F2931310579F70F9486
:10E90000DCF10F5F1F4F0530110519F020E030E0FA
:10E91000E5CF10920A0210920B0210920C02109294
:10E920000D02109206021092070210920802109235
:10E930000902109202021092030210920402109235
:10E9400005028FEE90EE60E00F94F5F180E191EE1C
:10E9500060E00F94C2F18091C00087FFFCCF9091DE
:10E96000C600903608F09F759032B8F09093C600BC
:10E970008091C00086FFFCCF8091C00080648093AE
:10E98000C000A0E2A093C6008091C00086FFFCCF2B
:10E990008091C00080648093C000983409F4D7C18E
:10E9A0009934B8F4923409F459C1933458F490333B
:10E9B00019F1903308F4E3C59F33A1F1903409F0C5
:10E9C000DEC5BDC0953409F470C1963409F0D7C5D1
:10E9D00098C1923509F42BC2933538F49C3409F46C
:10E9E000F5C1913509F0CBC518C2963509F445C279
:10E9F000993509F0C4C567C483E792EE62E00F94CD
:10EA0000F5F110920602109207021092080210927D
:10EA1000090210920A0210920B0210920C0210923C
:10EA20000D0213C18FE792EE62E00F94F5F18FEEC5
:10EA300090EE60E00F94F5F181E291EE60E00F94CA
:10EA4000C2F187EB91EE60E00F94F5F180E391EE77
:10EA500060E00F94C2F184EE90EE60E00F94F5F167
:10EA60008FE391EE60E00F94C2F186E090E061E008
:10EA700070E00F9434F20F94DCF18DE591EE60E0DC
:10EA80000F94C2F189EC91EE60E00F94F5F18EE401
:10EA900091EE60E00F94C2F183EC91EE60E00F9490
:10EAA000F5F18CE691EE60E00F94C2F18EE10F94E7
:10EAB0000DF288E90F940DF281E00F940DF20F949E
:10EAC000DCF18BE791EE60E00F94C2F119E0E0E039
:10EAD000F0E010935700E4918E2F0F940DF20F94F5
:10EAE000DCF18AE891EE60E00F94C2F1E3E0F0E03F
:10EAF00010935700E4918E2F0F940DF20F94DCF1D8
:10EB000089E991EE60E00F94C2F1E2E0F0E0109349
:10EB10005700E4918E2F0F940DF20F94DCF188EAE8
:10EB200091EE60E00F94C2F1E1E0F0E01093570045
:10EB30001491812F0F940DF20F94DCF107CF8BE825
:10EB400092EE62E00F94F5F18BE492EE60E00F94A8
:10EB5000F5F10F94DCF100E010E019C0C8016F2D51
:10EB60000F947FFEFF2031F489E492EE60E00F9471
:10EB7000C2F10BC0F092C6008091C00086FFFCCFAE
:10EB80008091C00080648093C0000F5F1F4FC80158
:10EB900081519F41A0E0B0E0ABBFFC01F790BAE229
:10EBA000FB1621F0E2E000301E07C1F60F94DCF105
:10EBB0000F94DCF187E592EE60E00F94F5F10F948D
:10EBC000DCF1CC24DD2400E010E01EC0C8010F946D
:10EBD00077FEF82E882331F489E492EE60E00F94FA
:10EBE000C2F10BC08093C6008091C00086FFFCCFAD
:10EBF0008091C00080648093C000FE1419F00894D6
:10EC0000C11CD11C0F5F1F4FC80181519F41A0E063
:10EC1000B0E0ABBFFC01E790FAE2EF1621F022E092
:10EC20000030120799F60F94DCF10F94DCF182E6C4
:10EC300092EE60E00F94C2F1C60161E070E00F94C3
:10EC400034F20F94DCF10F94DCF110920202109276
:10EC50000302109204021092050278CE89E992EE26
:10EC600062E00F94F5F1279A2F9A16C02F9880E052
:10EC700090E0E0EDF7E03197F1F7019684369105E9
:10EC8000C1F72F9A80E090E0E0EDF7E03197F1F7DF
:10EC9000019684369105C1F78091C00087FFE6CFC9
:10ECA0008091C00087FFFCCF64C485EA92EE62E0E9
:10ECB0000F94F5F140910202509103026091040219
:10ECC0007091050281E020E10F9491F2809102029F
:10ECD00090910302A0910402B091050280509F4FD1
:10ECE000AF4FBF4F8093020290930302A0930402A0
:10ECF000B093050280509041A040B04008F426CE69
:10ED0000A4CF83EB92EE62E00F94F5F140910602FE
:10ED100050910702609108027091090280E020E1A1
:10ED20000F9491F28091060290910702A09108023F
:10ED3000B091090280509F4FAF4FBF4F80930602A2
:10ED400090930702A0930802B0930902FFCD80ECD4
:10ED500092EE62E00F94F5F183E792EE60E00F949B
:10ED6000F5F18FE792EE60E00F94F5F18BE892EE0B
:10ED700060E00F94F5F189E992EE60E00F94F5F10F
:10ED800085EA92EE60E00F94F5F183EB92EE60E09D
:10ED90000F94F5F180EC92EE60E00F94F5F187ECC2
:10EDA00092EE60E00F94F5F188ED92EE60E00F9442
:10EDB000F5F18FED92EE60E00F94F5F18AEE92EEB0
:10EDC00060E00F94F5F183E093EEBDCD87EC92EE19
:10EDD00062E00F94F5F181E40F947BF282E40F94EA
:10EDE0007BF283E40F947BF284E40F947BF285E45E
:10EDF0000F947BF286E40F947BF287E40F947BF20E
:10EE000088E40F947BF28AE40F947BF28BE40F94F6
:10EE10007BF28CE40F947BF299CD88ED92EE62E068
:10EE20000F94F5F1772473948824992409C48FED05
:10EE300092EE62E00F94F5F140910A0250910B02BC
:10EE400060910C0270910D0282E020E10F9491F22A
:10EE500080910A0290910B02A0910C02B0910D02D8
:10EE600080509F4FAF4FBF4F80930A0290930B0289
:10EE7000A0930C02B0930D0269CD8AEE92EE62E08F
:10EE80000F94F5F184EE90EE60E00F94F5F18FECC5
:10EE900091EE60E00F94F5F1662477244301CC5D98
:10EEA000DE4F19821882C452D140D401C301B695F5
:10EEB000A79597958795CA5DDE4F88839983AA8326
:10EEC000BB83C652D140CC5DDE4FA881B981C4520C
:10EED000D1401196CC5DDE4FB983A883C452D14096
:10EEE000CD0162E070E00F9434F2B0E2B093C6005E
:10EEF0008091C00086FFFCCF8091C0008064809329
:10EF0000C000EDE2E093C6008091C00086FFFCCF18
:10EF10008091C00080648093C000F0E2F093C6004E
:10EF20008091C00086FFFCCF8091C00080648093F8
:10EF3000C000CA5DDE4FE880F9800A811B81C6529D
:10EF4000D140BB27A12F902F8F2D0F940DF2CA5DBA
:10EF5000DE4F8881C652D1400F940DF2B0E2FB2EF5
:10EF6000F092C6008091C00086FFFCCF8091C00067
:10EF700080648093C0000DE30093C6008091C000C0
:10EF800086FFFCCF8091C00080648093C00010E2B7
:10EF90001093C6008091C00086FFFCCF8091C00016
:10EFA00080648093C0008BBEF3012791C65DDE4F65
:10EFB0002883CA52D140A22EBB24CC24DD2408943D
:10EFC000611C711C811C911C8BBEF3018791282E42
:10EFD0003324442455240894611C711C811C911C09
:10EFE0008BBEF3013791C55DDE4F3883CB52D140E4
:10EFF0000894611C711C811C911C8BBEF30147910C
:10F00000C45DDE4F4883CC52D140ADEFEA2EAFEF66
:10F01000FA2EAFEF0A2FAFEF1A2F6E0C7F1C801E57
:10F02000911E142D032DF22CEE24EA0CFB1C0C1D5A
:10F030001D1D0F940DF220E22093C6008091C000A8
:10F0400086FFFCCF8091C00080648093C000C65DC5
:10F05000DE4F8881CA52D1400F940DF230E23093D6
:10F06000C6008091C00086FFFCCF8091C000806404
:10F070008093C000C45DDE4F8881CC52D1400F9494
:10F080000DF240E24093C6008091C00086FFFCCFA5
:10F090008091C00080648093C000C55DDE4F888190
:10F0A000CB52D1400F940DF250E25093C6008091A4
:10F0B000C00086FFFCCF8091C00080648093C000B8
:10F0C0008FEFE8168FEFF80680E0080780E018075A
:10F0D00031F484E092EE60E00F94C2F1DFC0D80119
:10F0E000C7018070907CA070B0708050904CA040A0
:10F0F000B040D1F52FEF3FE340E050E0E222F322B1
:10F1000004231523CA5DDE4FA880B980CA80DB8046
:10F11000C652D140AE0CBF1CC01ED11EAA0CBB1CD7
:10F12000CC1CDD1C8EE092EE60E00F94C2F1BB2798
:10F13000A12F902F8F2D0F940DF28E2D0F940DF285
:10F1400030E23093C6008091C00086FFFCCF8091F2
:10F15000C00080648093C0004EE34093C60080915D
:10F16000C00086FFFCCF87C08EE09EEFA0E0B0E03D
:10F17000E822F9220A231B239CE0E91694E9F90608
:10F1800090E0090790E0190709F088C0C45DDE4FE0
:10F19000A881CC52D140EA2EFF2400E010E0102FCD
:10F1A0000F2DFE2CEE24C55DDE4FB881CB52D14031
:10F1B000EB0EF11C011D111DD601C501817090706F
:10F1C000A070B070DC0199278827E80EF91E0A1F8D
:10F1D0001B1F20EF30E040E050E0A222B322C42207
:10F1E000D52241E1AA0CBB1CCC1CDD1C4A95D1F7F1
:10F1F000EA0CFB1C0C1D1D1D81E090E0A0E0B0E0BE
:10F20000282239224A225B2235E1220C331C441C7D
:10F21000551C3A95D1F7E20CF31C041D151D57013E
:10F220006801AA0CBB1CCC1CDD1C85E192EE60E0E1
:10F230000F94C2F1C801AA27BB270F940DF2BB2778
:10F24000A12F902F8F2D0F940DF28E2D0F940DF274
:10F2500090E29093C6008091C00086FFFCCF809121
:10F26000C00080648093C000AEE3A093C60080918C
:10F27000C00086FFFCCF8091C00080648093C000F6
:10F28000C601AA27BB270F940DF2BB27AD2D9C2DDD
:10F290008B2D0F940DF28A2D0F940DF20F94DCF14B
:10F2A000CC5DDE4FE881F981C452D140F99709F471
:10F2B0004DCBF4E0EF2EF12C012D112D6E0C7F1CA7
:10F2C000801E911EF2CD83E093EE62E00F94F5F183
:10F2D0008AE192EE60E00F94C2F18091C00087FF56
:10F2E000FCCF1091C6001F751093C6008091C0001E
:10F2F00086FFFCCF8091C00080648093C0000F9493
:10F30000DCF1812F81548A3108F036C1163409F4BA
:10F3100095C0173490F4133409F44EC0143430F40B
:10F320001134F1F0123409F01DC130C0143409F465
:10F3300059C0153409F016C16BC01A3409F4C4C0A1
:10F340001B3438F4173409F48FC0183409F00AC19B
:10F35000A1C01B3409F4D2C01C3409F003C1E8C0B9
:10F360008FEF81B90DC082B1809582B980E090E0C5
:10F37000E0EDF7E03197F1F70196883C9105C1F790
:10F380008091C00087FFEFCF12B8EFC08FEF84B934
:10F390000DC085B1809585B980E090E0E0EDF7E0A3
:10F3A0003197F1F70196883C9105C1F78091C00033
:10F3B00087FFEFCF15B8D9C08FEF87B90DC088B1DF
:10F3C000809588B980E090E0E0EDF7E03197F1F7C3
:10F3D0000196883C9105C1F78091C00087FFEFCF6F
:10F3E00018B8C3C08FEF8AB90DC08BB180958BB9A7
:10F3F00080E090E0E0EDF7E03197F1F70196883C8E
:10F400009105C1F78091C00087FFEFCF1BB8ADC059
:10F410008FEF8DB90DC08EB180958EB980E090E0F0
:10F42000E0EDF7E03197F1F70196883C9105C1F7DF
:10F430008091C00087FFEFCF1EB897C08FEF80BBD1
:10F440000DC081B3809581BB80E090E0E0EDF7E0F6
:10F450003197F1F70196883C9105C1F78091C00082
:10F4600087FFEFCF11BA81C08FEF83BB0DC084B38C
:10F47000809584BB80E090E0E0EDF7E03197F1F714
:10F480000196883C9105C1F78091C00087FFEFCFBE
:10F4900014BA6BC08FEF809301010FC080910201FD
:10F4A00080958093020180E090E0E0EDF7E03197F5
:10F4B000F1F70196883C9105C1F78091C00087FF64
:10F4C000EDCF1092020151C08FEF809304010FC065
:10F4D0008091050180958093050180E090E0E0ED4A
:10F4E000F7E03197F1F70196883C9105C1F78091DB
:10F4F000C00087FFEDCF1092050137C08FEF8093DA
:10F5000007010FC08091080180958093080180E079
:10F5100090E0E0EDF7E03197F1F70196883C910536
:10F52000C1F78091C00087FFEDCF109208011DC088
:10F530008FEF80930A010FC080910B01809580931B
:10F540000B0180E090E0E0EDF7E03197F1F70196F4
:10F55000883C9105C1F78091C00087FFEDCF1092E4
:10F560000B0103C085E292EEEEC98091C00087FFD7
:10F57000FCCF8091C600EAC988E392EEE4C98CE131
:10F5800091EEE1C988249924933011F1943028F444
:10F59000913089F09230B8F408C0953061F195301F
:10F5A000F0F0963009F048C043C02B3109F042C951
:10F5B00091E06BE13FC96227C15DDE4F2883CF52E6
:10F5C000D14092E037C9B22FA0E0622793E032C960
:10F5D000822F90E0A82BB92B622794E02BC92E3004
:10F5E00009F039C3622795E0C05DDE4F19821882A9
:10F5F000C053D1401FC9E1E0F0E0EC0FFD1FC05D3A
:10F60000DE4F08811981C053D140E00FF11F2083E4
:10F610000F5F1F4FC05DDE4F19830883C053D14079
:10F6200062270A171B0709F005C9D80196E002C92D
:10F63000261709F010C303C0973009F0FBC87724E0
:10F640009981933109F412C19431C8F4963009F4C8
:10F65000D8C0973050F4923009F406C1933009F4C1
:10F660006DC0913009F059C253C0913109F477C08F
:10F67000923108F0BBC0903109F04FC2F5C098310B
:10F6800009F487C0993150F4953109F4EFC09531F0
:10F6900008F4C6C1963109F040C2C2C19A3109F4DA
:10F6A0006CC09A3108F491C09B3109F45BC09D3164
:10F6B00009F033C29D81903359F48F81882311F46E
:10F6C0009EE11CC0813011F091E018C098E916C08D
:10F6D000892F807591F0903539F4E0E0F0E089E011
:10F6E0008093570094910AC0983539F4E3E0F0E034
:10F6F00089E080935700949101C090E01A821B82A8
:10F700008D818C831D829E831F8227E030E009C299
:10F710001A8288E08B8381E48C8386E58D8382E581
:10F720008E8389E48F8383E5888780E589878FE5E9
:10F730008A8782E38B872BE030E0F3C18A818139AD
:10F7400041F0823941F0803911F48FE005C080E04A
:10F7500003C082E001C08AE01A828B8344C0772410
:10F76000739482C08D81882311F48EE12CC0813086
:10F7700011F081E028C088E926C01A82E1E0F0E0BB
:10F7800089E08093570084918B831C8224E030E0D1
:10F79000C8C18B81803589F48C81883039F4E2E0EE
:10F7A000F0E089E08093570084910DC0E0E0F0E044
:10F7B00089E080935700849106C0E3E0F0E089E09F
:10F7C0008093570084911A82DFCF8D81836C99E0FA
:10F7D000E1E0F0E0082E90935700E89507B600FCB2
:10F7E000FDCF1A821B8223E030E09BC180EC8A832C
:10F7F000CE5CDE4F188219821A821B82C253D1401E
:10F800008EC18A8190E0A0E0B0E0582F44273327D2
:10F8100022278B8190E0A0E0B0E0DC0199278827C7
:10F82000282B392B4A2B5B2B8D8190E0A0E0B0E098
:10F83000282B392B4A2B5B2B8C8190E0A0E0B0E089
:10F84000BA2FA92F982F8827282B392B4A2B5B2BCF
:10F85000220F331F441F551FC05EDE4F288339839C
:10F860004A835B83C052D1401A8259C13A81C95C34
:10F87000DE4F3883C753D140CA5CDE4F1882C6536F
:10F88000D1408B81C82EDD24CA5CDE4F488159816E
:10F89000C653D140C42AD52A933109F082C0CE5C28
:10F8A000DE4F88819981AA81BB81C253D1408050AB
:10F8B000904CA340B04030F583E0CE5CDE4FE88052
:10F8C000F9800A811B81C253D140F70100935B008C
:10F8D00080935700E89507B600FCFDCFCE5CDE4F65
:10F8E000088119812A813B81C253D14000501F4FAA
:10F8F0002F4F3F4FCE5CDE4F088319832A833B8313
:10F90000C253D140C05EDE4F488159816A817B81FC
:10F91000C052D140DE011B9631E08C9111962C91A2
:10F9200011971296C75CDE4F2883C953D140C85C3B
:10F93000DE4F1882C853D14090E0C85CDE4FE881AA
:10F94000F981C853D1408E2B9F2B0C01FA01609393
:10F950005B0030935700E89511244E5F5F4F6F4F67
:10F960007F4F0EEFE02E0FEFF02ECE0CDF1CC114F8
:10F97000D10499F685E0C05EDE4F088119812A81A5
:10F980003B81C052D140F80120935B008093570027
:10F99000E89507B600FCFDCF81E180935700E8951C
:10F9A00035C0C05EDE4F88819981AA81BB81C0527B
:10F9B000D140B695A795979587957C018601ABE0D8
:10F9C000AA2EB12CAC0EBD1E0BC0D5016D915D01F0
:10F9D000C7010F947FFE0894E11CF11C01501040F8
:10F9E0000115110591F7A60160E070E0440F551F65
:10F9F000661F771FC05EDE4FE880F9800A811B8199
:10FA0000C052D1404E0D5F1D601F711F1A82C05E33
:10FA1000DE4F488359836A837B83C052D1407FC0C5
:10FA2000FA80C55CDE4FF882CB53D140C65CDE4F16
:10FA30001882CA53D1408B81C82EDD24C65CDE4FAC
:10FA400008811981CA53D140C02AD12A1A828981DA
:10FA5000BE016D5F7F4F843121F59601C05EDE4FA0
:10FA6000E880F9800A811B81C052D1400BBFF701A9
:10FA700087919691DB018C9311969C936E5F7F4FDB
:10FA8000D801C7010296A11DB11DC05EDE4F88835B
:10FA90009983AA83BB83C052D14022503040F1F6F3
:10FAA00036C0C05EDE4F288139814A815B81C052F9
:10FAB000D1400894C108D108760100E010E0089414
:10FAC000C11CD11C0894E11CF11C011D111DE20E8A
:10FAD000F31E041F151F21BDBB27A52F942F832FB5
:10FAE00082BD2F5F3F4F4F4F5F4FF89A80B5DB01CC
:10FAF0008D93BD012E153F054007510761F7C05E8C
:10FB0000DE4F288339834A835B83C052D1409601FC
:10FB10002D5F3F4FFB01108204C080EC8A8322E0FE
:10FB200030E08BE18093C6008091C00086FFFCCF5F
:10FB30008091C00080648093C000C15DDE4FF88179
:10FB4000CF52D140F093C6008091C00086FFFCCF19
:10FB50008091C00080648093C000432F3093C60022
:10FB60008091C00086FFFCCF8091C00080648093AC
:10FB7000C000922F2093C6008091C00086FFFCCF6A
:10FB80008091C00080648093C0008EE08093C600A6
:10FB90008091C00086FFFCCF8091C000806480937C
:10FBA000C00065E1C15DDE4FE880CF52D1406E25D7
:10FBB00069276427FE01319610C090819093C6009A
:10FBC0008091C00086FFFCCF31968091C000806498
:10FBD0008093C0006927215030402115310569F715
:10FBE0006093C6008091C00086FFFCCF8091C0006A
:10FBF00080648093C00085B1805885B9772081F4F6
:10FC0000C15DDE4F0881CF52D1400F5FC15DDE4F35
:10FC10000883CF52D14090E0A0E0B0E00D941AF4F8
:10FC200027982F9880E090E020ED37E0F901319798
:10FC3000F1F7019684369105C9F700008091C00064
:10FC40008D7F8093C00081E180935700E895EE2777
:10FC5000FF270994FFCF90E00D941AF497FB092E2B
:10FC600007260AD077FD04D02ED006D000201AF443
:10FC7000709561957F4F0895F6F7909581959F4F08
:10FC80000895A1E21A2EAA1BBB1BFD010DC0AA1FDD
:10FC9000BB1FEE1FFF1FA217B307E407F50720F0F5
:10FCA000A21BB30BE40BF50B661F771F881F991F70
:10FCB0001A9469F760957095809590959B01AC01B9
:10FCC000BD01CF010895AA1BBB1B51E107C0AA1FAC
:10FCD000BB1FA617B70710F0A61BB70B881F991FED
:10FCE0005A95A9F780959095BC01CD010895F99991
:10FCF000FECF92BD81BDF89A992780B50895262F31
:10FD0000F999FECF1FBA92BD81BD20BD0FB6F89400
:0EFD1000FA9AF99A0FBE01960895F894FFCF63
:00000001FF
