:100000000C9439010C946A010C946A010C946A01F5
:100010000C946A010C946A010C946A010C946A01B4
:100020000C946A010C946A010C946A010C946A01A4
:100030000C946A010C946A010C946A010C946A0194
:100040000C946A010C946A010C946A010C946A0184
:100050000C946A010C946A010C946A010C94F304E8
:100060000C946A010C9467050C943D050C946A018C
:100070000C946A010C946A010C946A010C946A0154
:100080000C946A010C946A010C946A010C946A0144
:100090000C946A010C946A010C946A010C946A0134
:1000A0000C946A010C946A010C946A010C946A0124
:1000B0000C946A010C946A010C946A010C946A0114
:1000C0000C946A010C946A010C946A010C946A0104
:1000D0000C946A010C946A010C946A010C946A01F4
:1000E0000C946A010C94B1020C94E3040C94C501C5
:1000F0000C94CF010C94D9050C94B7010C94940185
:100100000C94BF020C94AF010C94C1010C94F70243
:100110000C9444030C949D020C94BD010C94610258
:100120000C94B3010C94CA010C9490010C949801A6
:100130000C948A010C949C010C948E020C94A901DD
:100140000C94BA030C949F010C94A5010C94CB0160
:1001500000002100240027002A002D003000330079
:1001600001010000040107010A010000220025002E
:1001700028002B002E003100340002010000050190
:1001800008010B01000020002300260029002C009C
:100190002F003200000100000301060109010505DE
:1001A0000505070508080808020202020A0A0808ED
:1001B000040404040101010101010101030303031B
:1001C00003030303040707070C0C0C0C0C0C0C0CAA
:1001D0000202020206060606060606060B0B0B0BBB
:1001E0000B0B0B0B010210202008081020401020E0
:1001F00040800201020108040201010204081020EB
:1002000040808040201008040201800402018040E8
:100210002010080402010804020101020408102051
:100220004080010204081020408000000A0B0209EF
:100230000C0D0E0807030401000000000000000080
:1002400000000000000000000000000000000000AE
:10025000000000000000121110000000000000006B
:10026000000000000000000000000000000000008E
:10027000D90511241FBECFEFD1E2DEBFCDBF00E014
:100280000CBF23E0A8E1B2E001C01D92A632B20784
:10029000E1F712E0A0E0B2E0E6E1F1E100E00BBF3F
:1002A00002C007900D92A831B107D9F711E0C9E358
:1002B000D1E000E006C021970109802FFE010E94D5
:1002C0008108C833D10780E00807A9F70E94F30628
:1002D0000C9489080C9400008150823108F05AC0B7
:1002E000E82FF0E08827E858FE4F8F4F0C948108E4
:1002F00098019C018A0190019401CA019F01A50106
:10030000A901AF01B301B701BD01C101CA01C50116
:10031000CB01CF01809180008F778093800008957A
:10032000809180008F7DF9CF80918000877FF5CF0D
:1003300084B58F7784BD089584B58F7DFBCF809180
:10034000B0008F778093B00008958091B0008F7DCA
:10035000F9CF809190008F778093900008958091DD
:1003600090008F7DF9CF80919000877FF5CF8091AD
:10037000A0008F778093A00008958091A0008F7DCA
:10038000F9CF8091A000877FF5CF809120018F77F2
:10039000809320010895809120018F7DF9CF809175
:1003A0002001877FF5CFCF93DF93282F30E0F9012D
:1003B000E65DFD4F8491F901EC51FE4FD491F901B6
:1003C000E256FE4FC491CC23A1F081110E946C0132
:1003D000EC2FF0E0EE0FFF1FEC57FE4FA591B4910C
:1003E000EC91ED2381E090E009F480E0DF91CF9182
:1003F000089580E090E0FACF1F93CF93DF93282FEA
:1004000030E0F901E65DFD4F8491F901EC51FE4FBA
:10041000D491F901E256FE4FC491CC23A9F0162FD6
:1004200081110E946C01EC2FF0E0EE0FFF1FE659E6
:10043000FE4FA591B4918FB7F894EC91111108C0BB
:10044000D095DE23DC938FBFDF91CF911F9108956C
:10045000DE2BF8CFCF93DF9360E08CE00E94FC01AD
:1004600060E088E00E94FC01C7E0D0E060E084E04A
:100470000E94FC018091C30290E00C2E02C0959571
:1004800087950A94E2F761E080FF60E088E00E94CF
:10049000FC0161E084E00E94FC01219738F761E0F3
:1004A0008CE0DF91CF910C94FC012FB7F894609110
:1004B00022027091230280912402909125022FBF85
:1004C0000895AF92BF92CF92DF92EF92FF920F9377
:1004D0001F93CF93DF936C017B018B01040F151FDA
:1004E000EB015E01AE18BF08C017D10759F0699142
:1004F000D601ED91FC910190F081E02DC601199596
:10050000892B79F7C501DF91CF911F910F91FF9052
:10051000EF90DF90CF90BF90AF900895FC01538D86
:10052000448D252F30E0842F90E0821B930B5417CD
:1005300010F0CF96089501970895FC01918D828D5A
:10054000981761F0A28DAE0FBF2FB11D5D968C91F3
:10055000928D9F5F9F73928F90E008958FEF9FEF32
:100560000895FC01918D828D981731F0828DE80FEE
:10057000F11D858D90E008958FEF9FEF0895FC01A8
:10058000918D228D892F90E0805C9F4F821B910975
:100590008F739927089586E292E00E94BF0221E0BE
:1005A000892B09F420E0822F0895FC01A48DA80F67
:1005B000B92FB11DA35ABF4F2C91848D90E00196A5
:1005C0008F739927848FA689B7892C93A089B189C5
:1005D0008C91837080648C93938D848D981306C066
:1005E0000288F389E02D80818F7D80830895EF92CA
:1005F000FF920F931F93CF93DF93EC0181E0888FDD
:100600009B8D8C8D98131AC0E889F989808185FFAC
:1006100015C09FB7F894EE89FF896083E889F9894E
:1006200080818370806480839FBF81E090E0DF9150
:10063000CF911F910F91FF90EF900895F62E0B8DA3
:1006400010E00F5F1F4F0F731127E02E8C8D8E115E
:100650000CC00FB607FCFACFE889F989808185FFC5
:10066000F5CFCE010E94D502F1CFEB8DEC0FFD2F1F
:10067000F11DE35AFF4FF0829FB7F8940B8FEA8980
:10068000FB8980818062CFCFCF93DF93EC01888D8F
:100690008823B9F0AA89BB89E889F9898C9185FDFD
:1006A00003C0808186FD0DC00FB607FCF7CF8C918B
:1006B00085FFF2CF808185FFEDCFCE010E94D5026C
:1006C000E9CFDF91CF91089580E090E0892B29F068
:1006D0000E94CB0281110E94000080E090E0892BF3
:1006E00049F080E090E0892B29F00E940000811100
:1006F0000E94000080E090E0892B49F080E090E0CB
:10070000892B29F00E94000081110E94000080E0E6
:1007100090E0892B49F080E090E0892B29F00E943D
:10072000000081110C9400000895FC01808182304A
:1007300079F018F4813031F00895833079F0843005
:1007400099F0089570E0709389006093880008958F
:1007500070E070939D0060939C00089570E070932A
:10076000A9006093A800089570E0709399006093C9
:100770009800089580910002909101028A3F9105AE
:1007800064F082E390E09093010280930002609114
:10079000000285EC92E00C949503C296F4CFFC0124
:1007A0008081823049F118F4813031F0089583302E
:1007B000E9F08430F1F0089553E082E021E030E088
:1007C000F90102C0EE0FFF1F8A95E2F7CF014091B9
:1007D000C30201C0220F5A95EAF7623081F0842BE0
:1007E000209528232093C3020C942A0257E085E029
:1007F000E5CF56E080E0E2CF54E081E0DFCF8095A6
:100800008423822B8093C302EFCFCF93DF93EC013D
:100810008B810E94D3019C018A81823028F481E07F
:10082000232B31F080E004C081E021303105D1F785
:10083000DF91CF9108950F931F93CF93DF93EC0136
:10084000888199818130910581F130F0029709F416
:1008500074C01982188224C08C859D85892B89F0EB
:100860000E9455020A891B892C893D89601B710BE6
:10087000820B930B683E73408105910510F01D8635
:100880001C86CE010E940504882351F00E94550267
:100890006E877F87888B998B81E090E0998388832E
:1008A000DF91CF911F910F9108950E9455020E85FF
:1008B0001F8528893989AB01BC01401B510B620B94
:1008C000730B8E819F81B0E0A0E0481759076A073B
:1008D0007B0730F3CE010E940504882309F4B9CFC9
:1008E0001B861A868E8D8E7F86608E8F8C859D8569
:1008F000892B31F40E9455026A8B7B8B8C8B9D8BEC
:10090000888599850196998788878C859D8501962C
:100910009D878C87EE89FF89309711F0CE0119955C
:100920008C859D85029730F0EC8DFD8D309711F010
:10093000CE01199582E090E0B1CFCE010E9405046E
:100940008823C9F10E9455020E851F85288939899F
:10095000AB01BC01401B510B620B730B8C819D8161
:10096000B0E0A0E0481759076A077B0708F498CF62
:100970000E9455020E851F8528893989DC01CB012B
:10098000801B910BA20BB30B2A853B85820F931F13
:100990009B878A870E9455026E877F87888B998BF9
:1009A000E88DF98D309711F0CE0119958E8D8B7FE2
:1009B00081608E8F75CFEA8DFB8D309709F449CF1A
:1009C000CE01199546CF80911802811108C081E0AF
:1009D0008093180262E085EC92E00C94CF031092B1
:1009E000180261E0F8CF1F920F920FB60F921124F8
:1009F0002F933F938F939F93AF93BF938091220246
:100A000090912302A0912402B091250230912102FD
:100A100023E0230F2D3758F50196A11DB11D20931A
:100A200021028093220290932302A0932402B09388
:100A3000250280911D0290911E02A0911F02B0918B
:100A400020020196A11DB11D80931D0290931E02EC
:100A5000A0931F02B0932002BF91AF919F918F91FD
:100A60003F912F910F900FBE0F901F90189526E881
:100A7000230F0296A11DB11DD2CF1F920F920FB668
:100A80000F9211240BB60F922F933F934F935F93C6
:100A90006F937F938F939F93AF93BF93EF93FF9346
:100AA00086E292E00E94D502FF91EF91BF91AF9153
:100AB0009F918F917F916F915F914F913F912F9176
:100AC0000F900BBE0F900FBE0F901F9018951F92A6
:100AD0000F920FB60F9211240BB60F922F938F9394
:100AE0009F93EF93FF93E0913602F091370280815C
:100AF000E0913C02F0913D0282FD1DC09081809109
:100B00003F028F5F8F7320914002821741F0E09186
:100B10003F02F0E0EA5DFD4F958F80933F02FF9129
:100B2000EF919F918F912F910F900BBE0F900FBE61
:100B30000F901F9018958081F2CFCF93DF9390E0B4
:100B4000FC01EC51FE4F249182569E4FFC01849192
:100B50008823C9F090E0880F991FFC01E05BFE4FED
:100B6000A591B491FC01E659FE4FC591D491611154
:100B70000DC09FB7F8948C91209582238C93888127
:100B8000282328839FBFDF91CF910895623051F4CD
:100B90009FB7F8943C91822F809583238C93E881B2
:100BA0002E2BEFCF8FB7F894EC912E2B2C938FBF79
:100BB000EACFDF92EF92FF920F931F93CF93DF93D1
:100BC000E6E2F2E01382128288EE93E0A0E0B0E069
:100BD00084839583A683B78386E092E091838083A4
:100BE00085EC90E09587848784EC90E097878687F2
:100BF00080EC90E0918B808B81EC90E0938B828BEA
:100C000082EC90E0958B848B86EC90E0978B868BC2
:100C1000118E128E138E148E1092C402C7E0D3E090
:100C20001982188262E087E30E949D05198218826A
:100C30001E861F86188A198A1A8A1B8A1C8A1D8A90
:100C400087E38B83DD24D394DA8288E8E82E83E17E
:100C5000F82EFD82EC8204E110E01F830E831986DA
:100C600018861B861A861D861C861F8A1E8A198E68
:100C7000188E1B8E1A8E1D8E1C8E1E8EC8EED2E014
:100C80001982188262E088E30E949D051982188209
:100C90001E861F86188A198A1A8A1B8A1C8A1D8A30
:100CA00088E38B83DA82FD82EC821F830E831986B0
:100CB00018861B861A861D861C861F8A1E8A198E18
:100CC000188E1B8E1A8E1D8E1C8E1E8EC9ECD2E0C5
:100CD0001982188262E089E30E949D0519821882B8
:100CE0001E861F86188A198A1A8A1B8A1C8A1D8AE0
:100CF00089E38B83DA82FD82EC821F830E8319865F
:100D000018861B861A861D861C861F8A1E8A198EC7
:100D1000188E1B8E1A8E1D8E1C8E1E8EE7ECF2E036
:100D200083E08083D2E0D18361E08CE00E949D0566
:100D300061E087E00E949D0561E088E00E949D05DA
:100D400061E084E00E949D051092C3020E942A0285
:100D500060E087E00E94FC010E942A02E0EAF0E0E5
:100D6000808181688083CAE0C093A1001092A900AD
:100D70001092A80061E086E00E949D05E5ECF2E09B
:100D800084E08083D18361E08CE00E949D0561E076
:100D900087E00E949D0561E088E00E949D0561E07A
:100DA00084E00E949D051092C3020E942A0260E026
:100DB00087E00E94FC010E942A02E0E9F0E08081C5
:100DC00081688083C09391001092990010929800DE
:100DD00061E085E0DF91CF911F910F91FF90EF903F
:100DE000DF900C949D05CF93DF93CDB7DEB7A1972D
:100DF0000FB6F894DEBF0FBECDBF789484B5826085
:100E000084BD84B5816084BD85B5826085BD85B5AE
:100E1000816085BD80916E00816080936E0010922C
:100E200081008091810082608093810080918100A7
:100E30008160809381008091800081608093800038
:100E40008091B10084608093B1008091B000816096
:100E50008093B00080919100826080939100809196
:100E600091008160809391008091900081608093D7
:100E700090008091A10082608093A1008091A100E8
:100E800081608093A1008091A00081608093A00088
:100E900080912101826080932101809121018160F4
:100EA00080932101809120018160809320018091B5
:100EB0007A00846080937A0080917A0082608093C7
:100EC0007A0080917A00816080937A0080917A0024
:100ED000806880937A001092C100E0913602F09110
:100EE000370282E08083E0913202F0913302108277
:100EF000E0913402F09135028FEC808310923E0233
:100F0000E0913A02F0913B0286E08083E091380262
:100F1000F0913902808180618083E0913802F09104
:100F20003902808188608083E0913802F091390233
:100F3000808180688083E0913802F091390280815D
:100F40008F7D808383EE94E090931E0380931D0336
:100F50008AEB93E09093FF028093FE0262E087ECBD
:100F600092E00E94CF0366E987EC92E00E9495032D
:100F700061E085EC92E00E94CF036091000285EC75
:100F800092E00E94950313E48AE0882E912CA12C14
:100F9000B12C87E093E00E941B0488EE92E00E944F
:100FA0001B0489EC92E00E941B0480917B00886006
:100FB00080937B0010937C0080917A008064809302
:100FC0007A0080917A0086FDFCCFC0907800D090A6
:100FD000790081E40E94D3010E9455022B013C015B
:100FE0008091190290911A02A0911B02B0911C02EB
:100FF00088519C4FAF4FBF4F84159505A605B70587
:1010000008F044C00D2C000CEE08FF08F7FE41C0AC
:101010006DE286E292E00E94F70222273327A901BF
:101020002C193D094E095F0919A2CE0181967C0158
:10103000CA01B901A50194010E945F08605DF70132
:1010400062937F01211531054105510589F7E114AE
:10105000F10461F001900020E9F73197AF014E19DA
:101060005F09B70186E292E00E94610242E050E02F
:1010700064E172E086E292E00E946102409219020D
:1010800050921A0260921B0270921C020E9464032A
:1010900080CFA701960119A2CE0181967C01CA01D9
:1010A000B901A50194010E945F08605DF701629398
:1010B0007F01211531054105510589F7C8CFA1E20E
:1010C0001A2EAA1BBB1BFD010DC0AA1FBB1FEE1FC2
:1010D000FF1FA217B307E407F50720F0A21BB30B0D
:1010E000E40BF50B661F771F881F991F1A9469F789
:1010F00060957095809590959B01AC01BD01CF01E5
:101100000895EE0FFF1F881F8BBF0790F691E02D0B
:061110001994F894FFCFD2
:10111600320000000000F70261028E024403BF02A3
:081126009D02B1020D0A000058
:00000001FF
